{
  "contractName": "Charity",
  "abi": [
    {
      "constant": true,
      "inputs": [],
      "name": "missionCounter",
      "outputs": [
        {
          "name": "",
          "type": "uint256"
        }
      ],
      "payable": false,
      "stateMutability": "view",
      "type": "function"
    },
    {
      "constant": true,
      "inputs": [],
      "name": "multipurposeBalance",
      "outputs": [
        {
          "name": "",
          "type": "uint256"
        }
      ],
      "payable": false,
      "stateMutability": "view",
      "type": "function"
    },
    {
      "inputs": [],
      "payable": false,
      "stateMutability": "nonpayable",
      "type": "constructor"
    },
    {
      "payable": true,
      "stateMutability": "payable",
      "type": "fallback"
    },
    {
      "anonymous": false,
      "inputs": [
        {
          "indexed": true,
          "name": "from",
          "type": "address"
        },
        {
          "indexed": false,
          "name": "amount",
          "type": "uint256"
        },
        {
          "indexed": false,
          "name": "organization",
          "type": "string"
        }
      ],
      "name": "Donated",
      "type": "event"
    },
    {
      "anonymous": false,
      "inputs": [
        {
          "indexed": false,
          "name": "amount",
          "type": "uint256"
        },
        {
          "indexed": true,
          "name": "organization",
          "type": "string"
        }
      ],
      "name": "Given",
      "type": "event"
    },
    {
      "anonymous": false,
      "inputs": [
        {
          "indexed": true,
          "name": "org",
          "type": "string"
        },
        {
          "indexed": false,
          "name": "fundGoal",
          "type": "uint256"
        }
      ],
      "name": "CreatedMission",
      "type": "event"
    },
    {
      "anonymous": false,
      "inputs": [
        {
          "indexed": true,
          "name": "org",
          "type": "string"
        },
        {
          "indexed": false,
          "name": "fundGoal",
          "type": "uint256"
        }
      ],
      "name": "AddedFundGoal",
      "type": "event"
    },
    {
      "constant": false,
      "inputs": [
        {
          "name": "_organization",
          "type": "string"
        },
        {
          "name": "_fundGoal",
          "type": "uint256"
        }
      ],
      "name": "createMission",
      "outputs": [],
      "payable": false,
      "stateMutability": "nonpayable",
      "type": "function"
    },
    {
      "constant": false,
      "inputs": [
        {
          "name": "org",
          "type": "string"
        },
        {
          "name": "amount",
          "type": "uint256"
        }
      ],
      "name": "giveBack",
      "outputs": [],
      "payable": false,
      "stateMutability": "nonpayable",
      "type": "function"
    },
    {
      "constant": false,
      "inputs": [
        {
          "name": "_org",
          "type": "string"
        },
        {
          "name": "_fundGoal",
          "type": "uint256"
        }
      ],
      "name": "addFundGoal",
      "outputs": [
        {
          "name": "",
          "type": "uint256"
        }
      ],
      "payable": false,
      "stateMutability": "nonpayable",
      "type": "function"
    },
    {
      "constant": true,
      "inputs": [],
      "name": "getBalance",
      "outputs": [
        {
          "name": "",
          "type": "uint256"
        }
      ],
      "payable": false,
      "stateMutability": "view",
      "type": "function"
    },
    {
      "constant": true,
      "inputs": [
        {
          "name": "_org",
          "type": "string"
        }
      ],
      "name": "donationsToFundGoal",
      "outputs": [
        {
          "name": "",
          "type": "uint256"
        }
      ],
      "payable": false,
      "stateMutability": "view",
      "type": "function"
    }
  ],
  "bytecode": "0x608060405234801561001057600080fd5b50336000806101000a81548173ffffffffffffffffffffffffffffffffffffffff021916908373ffffffffffffffffffffffffffffffffffffffff160217905550610e82806100606000396000f300608060405260043610610083576000357c0100000000000000000000000000000000000000000000000000000000900463ffffffff16806312065fe014610180578063167595ee146101ab5780631a0f74fc1461021e578063581579731461029b578063b276345514610322578063dcd4491b1461034d578063ee86318014610378575b610098346001546103eb90919063ffffffff16565b6001819055506001600360003373ffffffffffffffffffffffffffffffffffffffff1673ffffffffffffffffffffffffffffffffffffffff16815260200190815260200160002060006101000a81548160ff021916908360ff1602179055503373ffffffffffffffffffffffffffffffffffffffff167fcf76696fec6613453db3fc8d0e87a2417d6033db7623130bae09a2d82c06813b346040518082815260200180602001828103825260088152602001807f66616c6c6261636b0000000000000000000000000000000000000000000000008152506020019250505060405180910390a2005b34801561018c57600080fd5b5061019561040c565b6040518082815260200191505060405180910390f35b3480156101b757600080fd5b5061021c600480360381019080803590602001908201803590602001908080601f01602080910402602001604051908101604052809392919081815260200183838082843782019150505050505091929192908035906020019092919050505061042b565b005b34801561022a57600080fd5b50610285600480360381019080803590602001908201803590602001908080601f016020809104026020016040519081016040528093929190818152602001838380828437820191505050505050919291929050505061066a565b6040518082815260200191505060405180910390f35b3480156102a757600080fd5b5061030c600480360381019080803590602001908201803590602001908080601f0160208091040260200160405190810160405280939291908181526020018383808284378201915050505050509192919290803590602001909291905050506106fd565b6040518082815260200191505060405180910390f35b34801561032e57600080fd5b5061033761088f565b6040518082815260200191505060405180910390f35b34801561035957600080fd5b50610362610895565b6040518082815260200191505060405180910390f35b34801561038457600080fd5b506103e9600480360381019080803590602001908201803590602001908080601f01602080910402602001604051908101604052809392919081815260200183838082843782019150505050505091929192908035906020019092919050505061089b565b005b600080828401905083811015151561040257600080fd5b8091505092915050565b60003073ffffffffffffffffffffffffffffffffffffffff1631905090565b60008060009054906101000a900473ffffffffffffffffffffffffffffffffffffffff1673ffffffffffffffffffffffffffffffffffffffff163373ffffffffffffffffffffffffffffffffffffffff1614151561048857600080fd5b6004836040518082805190602001908083835b6020831015156104c0578051825260208201915060208101905060208303925061049b565b6001836020036101000a03801982511681845116808217855250505050505090500191505090815260200160405180910390209050600081600201541415151561050957600080fd5b81816003015411151561051b57600080fd5b813073ffffffffffffffffffffffffffffffffffffffff16311015151561054157600080fd5b8060090160009054906101000a900473ffffffffffffffffffffffffffffffffffffffff1673ffffffffffffffffffffffffffffffffffffffff166108fc839081150290604051600060405180830381858888f193505050501580156105ab573d6000803e3d6000fd5b506105c3828260030154610be490919063ffffffff16565b8160030181905550826040518082805190602001908083835b60208310151561060157805182526020820191506020810190506020830392506105dc565b6001836020036101000a03801982511681845116808217855250505050505090500191505060405180910390207ff39ed54c3a63ca881695c190da1e9572ccc241c340d9f41a22677f1d90bbb43c836040518082815260200191505060405180910390a2505050565b6000806004836040518082805190602001908083835b6020831015156106a55780518252602082019150602081019050602083039250610680565b6001836020036101000a038019825116818451168082178552505050505050905001915050908152602001604051809103902090506106f581600401548260070154610be490919063ffffffff16565b915050919050565b6000806000809054906101000a900473ffffffffffffffffffffffffffffffffffffffff1673ffffffffffffffffffffffffffffffffffffffff163373ffffffffffffffffffffffffffffffffffffffff1614151561075b57600080fd5b6004846040518082805190602001908083835b602083101515610793578051825260208201915060208101905060208303925061076e565b6001836020036101000a038019825116818451168082178552505050505050905001915050908152602001604051809103902090506107df8382600701546103eb90919063ffffffff16565b8160070181905550836040518082805190602001908083835b60208310151561081d57805182526020820191506020810190506020830392506107f8565b6001836020036101000a03801982511681845116808217855250505050505090500191505060405180910390207f7111d56781ecdd48151e807951a9dbe25e0bb304cbe9f2a7ae57c19c620ca642846040518082815260200191505060405180910390a2806007015491505092915050565b60025481565b60015481565b6108a3610c05565b6000809054906101000a900473ffffffffffffffffffffffffffffffffffffffff1673ffffffffffffffffffffffffffffffffffffffff163373ffffffffffffffffffffffffffffffffffffffff161415156108fe57600080fd5b828160600181905250818160a0018181525050806004846040518082805190602001908083835b60208310151561094a5780518252602082019150602081019050602083039250610925565b6001836020036101000a038019825116818451168082178552505050505050905001915050908152602001604051809103902060008201518160020155602082015181600301556040820151816004015560608201518160050190805190602001906109b7929190610c77565b506080820151816006015560a0820151816007015560c08201518160080160006101000a81548173ffffffffffffffffffffffffffffffffffffffff021916908373ffffffffffffffffffffffffffffffffffffffff16021790555060e08201518160090160006101000a81548173ffffffffffffffffffffffffffffffffffffffff021916908373ffffffffffffffffffffffffffffffffffffffff160217905550905050610a7360016002546103eb90919063ffffffff16565b60028190555082610a82610cf7565b8080602001828103825283818151815260200191508051906020019080838360005b83811015610abf578082015181840152602081019050610aa4565b50505050905090810190601f168015610aec5780820380516001836020036101000a031916815260200191505b5092505050604051809103906000f080158015610b0d573d6000803e3d6000fd5b508160e0019073ffffffffffffffffffffffffffffffffffffffff16908173ffffffffffffffffffffffffffffffffffffffff1681525050826040518082805190602001908083835b602083101515610b7b5780518252602082019150602081019050602083039250610b56565b6001836020036101000a03801982511681845116808217855250505050505090500191505060405180910390207f2362915a770d438c034b1e4fdfac17fe8d6353614c7f8275df20db5fb64070b2836040518082815260200191505060405180910390a2505050565b600080838311151515610bf657600080fd5b82840390508091505092915050565b61010060405190810160405280600081526020016000815260200160008152602001606081526020016000815260200160008152602001600073ffffffffffffffffffffffffffffffffffffffff168152602001600073ffffffffffffffffffffffffffffffffffffffff1681525090565b828054600181600116156101000203166002900490600052602060002090601f016020900481019282601f10610cb857805160ff1916838001178555610ce6565b82800160010185558215610ce6579182015b82811115610ce5578251825591602001919060010190610cca565b5b509050610cf39190610d07565b5090565b60405161012a80610d2d83390190565b610d2991905b80821115610d25576000816000905550600101610d0d565b5090565b9056006080604052348015600f57600080fd5b5060405161012a38038061012a8339810180604052810190808051820192919050505080600090805190602001906046929190604c565b505060e7565b828054600181600116156101000203166002900490600052602060002090601f016020900481019282601f10608b57805160ff191683800117855560b6565b8280016001018555821560b6579182015b8281111560b5578251825591602001919060010190609c565b5b50905060c1919060c5565b5090565b60e491905b8082111560e057600081600090555060010160ca565b5090565b90565b6035806100f56000396000f3006080604052600080fd00a165627a7a723058208f7ba481978aae9438e4f113b64ebae0e1c02523948f215b0f116f4029394bb10029a165627a7a723058202e48bf5406b16b19898ab78e506b2712befa6556efcd97de9f9c413cf93f81520029",
  "source": "pragma solidity ^0.4.24;\n\nimport \"./SafeMath.sol\";\nimport \"./OrgContract.sol\";\n\ncontract Charity{\n    using SafeMath for uint;\n\n    address private owner;\n    //uint public totalDonations;\n    uint public multipurposeBalance;\n    uint public missionCounter;\n    //uint comments;\n\n    modifier isOwner{\n        require(msg.sender == owner);\n        _;\n    }\n\n    event Donated(address indexed from, uint amount, string organization);\n    event Given(uint amount, string indexed organization);\n    event CreatedMission(string indexed org, uint fundGoal);\n    event AddedFundGoal(string indexed org, uint fundGoal);\n\n    constructor() public{\n        //TODO add balance\n        owner = msg.sender;\n    }\n\n    //TODO\n    //maybe add mission address in struct or in createMission\n    //instead of manual input of address in giveBack\n\n    //TODO\n    //fix indexed keyword in events\n\n    //@dev map to store if address has donated or not\n    mapping(address=>uint8) donors;\n\n    // @dev struct to store collection of donations given to one organization\n    // and store its Impact\n    struct Mission{\n        //address receiver;\n        //TODO get Contributor amount\n        mapping(address => uint8) contributors;\n        mapping(address => uint) addressDonations;\n        //address[] contributors;\n        uint contributorCount;\n        //availableAmount eth left in balance to give back\n        uint availableAmount;\n        //total amount donated disregarding \"givebacks\"\n        uint amountDonated;\n        string organization;\n        uint date;\n        uint fundGoal;\n        address requester;\n\n        //organization address\n        address orgAddr;\n    }\n\n    mapping(string => Mission) missions;\n\n    //@dev fallback for any donation received, used for multipurpose balance\n    //TODO check if fallback should be removed\n    function() payable public{\n        multipurposeBalance = multipurposeBalance.add(msg.value);\n        donors[msg.sender] = 1;\n        emit Donated(msg.sender, msg.value, \"fallback\");\n    }\n\n    //@dev allows owner to create new mission with org name\n    function createMission(string _organization, uint _fundGoal) isOwner public{\n        Mission memory mission;\n        mission.organization = _organization;\n        //mission.receiver = recAddress;\n        mission.fundGoal = _fundGoal;\n        missions[_organization] = mission;\n        missionCounter = missionCounter.add(1);\n\n        //Creating new address for the org\n        mission.orgAddr = new OrgContract(_organization);\n\n        emit CreatedMission(_organization, _fundGoal);\n    }\n\n    //@dev owner distributes specific mission's amount\n    //@dev removed address to argument\n    function giveBack(string org, uint amount) isOwner public{\n        Mission storage mission = missions[org];\n        require(mission.contributorCount != 0x0);\n        require(mission.availableAmount > amount);\n        require(address(this).balance >= amount);\n        mission.orgAddr.transfer(amount);\n        //to.transfer(amount);\n        mission.availableAmount = mission.availableAmount.sub(amount);\n        emit Given(amount, org);\n    }\n\n\n    //@dev allow owner to change fundGoal for mission\n    function addFundGoal(string _org, uint _fundGoal) isOwner public returns(uint){\n       Mission storage mission = missions[_org];\n       mission.fundGoal = mission.fundGoal.add(_fundGoal);\n       emit AddedFundGoal(_org, _fundGoal);\n       return mission.fundGoal;\n    }\n\n    function getBalance() view public returns(uint){\n        return address(this).balance;\n    }\n\n    /*function getGenericDonations() view public returns(uint){\n      return multipurposeBalance;\n    }*/\n\n    //@dev returns amount needed to reach the fund goal\n    function donationsToFundGoal(string _org) public view returns(uint){\n      Mission storage mission = missions[_org];\n      return (mission.fundGoal.sub(mission.amountDonated));\n    }\n\n\n}\n",
  "sourcePath": "/Users/hazemtabbaa/Desktop/Other/give-back/contracts/Charity.sol",
  "compiler": {
    "name": "solc",
    "version": "0.4.24+commit.e67f0147.Emscripten.clang"
  },
  "schemaVersion": "2.0.1",
  "updatedAt": "2018-10-13T23:34:11.195Z"
}