{
  "contractName": "Charity",
  "abi": [
    {
      "constant": true,
      "inputs": [],
      "name": "missionCounter",
      "outputs": [
        {
          "name": "",
          "type": "uint256"
        }
      ],
      "payable": false,
      "stateMutability": "view",
      "type": "function"
    },
    {
      "constant": true,
      "inputs": [],
      "name": "multipurposeBalance",
      "outputs": [
        {
          "name": "",
          "type": "uint256"
        }
      ],
      "payable": false,
      "stateMutability": "view",
      "type": "function"
    },
    {
      "inputs": [],
      "payable": false,
      "stateMutability": "nonpayable",
      "type": "constructor"
    },
    {
      "payable": true,
      "stateMutability": "payable",
      "type": "fallback"
    },
    {
      "anonymous": false,
      "inputs": [
        {
          "indexed": true,
          "name": "from",
          "type": "address"
        },
        {
          "indexed": false,
          "name": "amount",
          "type": "uint256"
        },
        {
          "indexed": false,
          "name": "organization",
          "type": "string"
        }
      ],
      "name": "Donated",
      "type": "event"
    },
    {
      "anonymous": false,
      "inputs": [
        {
          "indexed": true,
          "name": "to",
          "type": "address"
        },
        {
          "indexed": false,
          "name": "amount",
          "type": "uint256"
        },
        {
          "indexed": false,
          "name": "organization",
          "type": "string"
        }
      ],
      "name": "Given",
      "type": "event"
    },
    {
      "anonymous": false,
      "inputs": [
        {
          "indexed": true,
          "name": "org",
          "type": "string"
        },
        {
          "indexed": false,
          "name": "fundGoal",
          "type": "uint256"
        }
      ],
      "name": "CreatedMission",
      "type": "event"
    },
    {
      "anonymous": false,
      "inputs": [
        {
          "indexed": true,
          "name": "org",
          "type": "string"
        },
        {
          "indexed": false,
          "name": "fundGoal",
          "type": "uint256"
        }
      ],
      "name": "AddedFundGoal",
      "type": "event"
    },
    {
      "constant": false,
      "inputs": [
        {
          "name": "_organization",
          "type": "string"
        },
        {
          "name": "_fundGoal",
          "type": "uint256"
        }
      ],
      "name": "createMission",
      "outputs": [],
      "payable": false,
      "stateMutability": "nonpayable",
      "type": "function"
    },
    {
      "constant": false,
      "inputs": [
        {
          "name": "to",
          "type": "address"
        },
        {
          "name": "org",
          "type": "string"
        },
        {
          "name": "amount",
          "type": "uint256"
        }
      ],
      "name": "giveBack",
      "outputs": [],
      "payable": false,
      "stateMutability": "nonpayable",
      "type": "function"
    },
    {
      "constant": false,
      "inputs": [
        {
          "name": "_org",
          "type": "string"
        },
        {
          "name": "_fundGoal",
          "type": "uint256"
        }
      ],
      "name": "addFundGoal",
      "outputs": [
        {
          "name": "",
          "type": "uint256"
        }
      ],
      "payable": false,
      "stateMutability": "nonpayable",
      "type": "function"
    },
    {
      "constant": true,
      "inputs": [],
      "name": "getBalance",
      "outputs": [
        {
          "name": "",
          "type": "uint256"
        }
      ],
      "payable": false,
      "stateMutability": "view",
      "type": "function"
    },
    {
      "constant": true,
      "inputs": [],
      "name": "getGenericDonations",
      "outputs": [
        {
          "name": "",
          "type": "uint256"
        }
      ],
      "payable": false,
      "stateMutability": "view",
      "type": "function"
    }
  ],
  "bytecode": "0x608060405234801561001057600080fd5b50336000806101000a81548173ffffffffffffffffffffffffffffffffffffffff021916908373ffffffffffffffffffffffffffffffffffffffff160217905550610b5a806100606000396000f300608060405260043610610083576000357c0100000000000000000000000000000000000000000000000000000000900463ffffffff16806312065fe01461018057806358157973146101ab578063aa130d9a14610232578063b2763455146102c5578063b41dd9a0146102f0578063dcd4491b1461031b578063ee86318014610346575b610098346001546103b990919063ffffffff16565b6001819055506001600360003373ffffffffffffffffffffffffffffffffffffffff1673ffffffffffffffffffffffffffffffffffffffff16815260200190815260200160002060006101000a81548160ff021916908360ff1602179055503373ffffffffffffffffffffffffffffffffffffffff167fcf76696fec6613453db3fc8d0e87a2417d6033db7623130bae09a2d82c06813b346040518082815260200180602001828103825260088152602001807f66616c6c6261636b0000000000000000000000000000000000000000000000008152506020019250505060405180910390a2005b34801561018c57600080fd5b506101956103da565b6040518082815260200191505060405180910390f35b3480156101b757600080fd5b5061021c600480360381019080803590602001908201803590602001908080601f0160208091040260200160405190810160405280939291908181526020018383808284378201915050505050509192919290803590602001909291905050506103f9565b6040518082815260200191505060405180910390f35b34801561023e57600080fd5b506102c3600480360381019080803573ffffffffffffffffffffffffffffffffffffffff169060200190929190803590602001908201803590602001908080601f01602080910402602001604051908101604052809392919081815260200183838082843782019150505050505091929192908035906020019092919050505061058b565b005b3480156102d157600080fd5b506102da6107c8565b6040518082815260200191505060405180910390f35b3480156102fc57600080fd5b506103056107ce565b6040518082815260200191505060405180910390f35b34801561032757600080fd5b506103306107d8565b6040518082815260200191505060405180910390f35b34801561035257600080fd5b506103b7600480360381019080803590602001908201803590602001908080601f0160208091040260200160405190810160405280939291908181526020018383808284378201915050505050509192919290803590602001909291905050506107de565b005b60008082840190508381101515156103d057600080fd5b8091505092915050565b60003073ffffffffffffffffffffffffffffffffffffffff1631905090565b6000806000809054906101000a900473ffffffffffffffffffffffffffffffffffffffff1673ffffffffffffffffffffffffffffffffffffffff163373ffffffffffffffffffffffffffffffffffffffff1614151561045757600080fd5b6004846040518082805190602001908083835b60208310151561048f578051825260208201915060208101905060208303925061046a565b6001836020036101000a038019825116818451168082178552505050505050905001915050908152602001604051809103902090506104db8382600701546103b990919063ffffffff16565b8160070181905550836040518082805190602001908083835b60208310151561051957805182526020820191506020810190506020830392506104f4565b6001836020036101000a03801982511681845116808217855250505050505090500191505060405180910390207f7111d56781ecdd48151e807951a9dbe25e0bb304cbe9f2a7ae57c19c620ca642846040518082815260200191505060405180910390a2806007015491505092915050565b60008060009054906101000a900473ffffffffffffffffffffffffffffffffffffffff1673ffffffffffffffffffffffffffffffffffffffff163373ffffffffffffffffffffffffffffffffffffffff161415156105e857600080fd5b6004836040518082805190602001908083835b60208310151561062057805182526020820191506020810190506020830392506105fb565b6001836020036101000a03801982511681845116808217855250505050505090500191505090815260200160405180910390209050600081600201541415151561066957600080fd5b81816003015411151561067b57600080fd5b813073ffffffffffffffffffffffffffffffffffffffff1631101515156106a157600080fd5b8373ffffffffffffffffffffffffffffffffffffffff166108fc839081150290604051600060405180830381858888f193505050501580156106e7573d6000803e3d6000fd5b506106ff828260030154610a1490919063ffffffff16565b81600301819055508373ffffffffffffffffffffffffffffffffffffffff167fde3ec9fa1ba846c466aa2d622e31a7040b6ff55cc20ed4c122f6fb6e8cae0c6383856040518083815260200180602001828103825283818151815260200191508051906020019080838360005b8381101561078757808201518184015260208101905061076c565b50505050905090810190601f1680156107b45780820380516001836020036101000a031916815260200191505b50935050505060405180910390a250505050565b60025481565b6000600154905090565b60015481565b6107e6610a35565b6000809054906101000a900473ffffffffffffffffffffffffffffffffffffffff1673ffffffffffffffffffffffffffffffffffffffff163373ffffffffffffffffffffffffffffffffffffffff1614151561084157600080fd5b828160600181905250818160a0018181525050806004846040518082805190602001908083835b60208310151561088d5780518252602082019150602081019050602083039250610868565b6001836020036101000a038019825116818451168082178552505050505050905001915050908152602001604051809103902060008201518160020155602082015181600301556040820151816004015560608201518160050190805190602001906108fa929190610a89565b506080820151816006015560a0820151816007015560c08201518160080160006101000a81548173ffffffffffffffffffffffffffffffffffffffff021916908373ffffffffffffffffffffffffffffffffffffffff16021790555090505061096f60016002546103b990919063ffffffff16565b600281905550826040518082805190602001908083835b6020831015156109ab5780518252602082019150602081019050602083039250610986565b6001836020036101000a03801982511681845116808217855250505050505090500191505060405180910390207f2362915a770d438c034b1e4fdfac17fe8d6353614c7f8275df20db5fb64070b2836040518082815260200191505060405180910390a2505050565b600080838311151515610a2657600080fd5b82840390508091505092915050565b60e060405190810160405280600081526020016000815260200160008152602001606081526020016000815260200160008152602001600073ffffffffffffffffffffffffffffffffffffffff1681525090565b828054600181600116156101000203166002900490600052602060002090601f016020900481019282601f10610aca57805160ff1916838001178555610af8565b82800160010185558215610af8579182015b82811115610af7578251825591602001919060010190610adc565b5b509050610b059190610b09565b5090565b610b2b91905b80821115610b27576000816000905550600101610b0f565b5090565b905600a165627a7a72305820cc1b4e17c33d07d8a44713698e8126edad189577a4ffaad6010c49fc5413e8ee0029",
  "source": "pragma solidity ^0.4.19;\n\nimport \"./SafeMath.sol\";\n\ncontract Charity{\n    using SafeMath for uint;\n\n    address private owner;\n    //uint public totalDonations;\n    uint public multipurposeBalance;\n    uint public missionCounter;\n    //uint comments;\n\n    modifier isOwner{\n        require(msg.sender == owner);\n        _;\n    }\n\n    event Donated(address indexed from, uint amount, string organization);\n    event Given(address indexed to, uint amount, string organization);\n    event CreatedMission(string indexed org, uint fundGoal);\n    event AddedFundGoal(string indexed org, uint fundGoal);\n\n    constructor() public{\n        //TODO add balance\n        owner = msg.sender;\n    }\n\n    //TODO\n    //maybe add mission address in struct or in createMission\n    //instead of manual input of address in giveBack\n\n    //TODO\n    //fix indexed keyword in events\n\n    //@dev map to store if address has donated or not\n    mapping(address=>uint8) donors;\n\n    // @dev struct to store collection of donations given to one organization\n    // and store its Impact\n    struct Mission{\n        //address receiver;\n        //TODO get Contributor amount\n        mapping(address => uint8) contributors;\n        mapping(address => uint) addressDonations;\n        //address[] contributors;\n        uint contributorCount;\n        //amountBalance eth left in balance to give back\n        uint amountBalance;\n        uint amountDonated;\n        string organization;\n        uint date;\n        uint fundGoal;\n        address requester;\n    }\n\n    mapping(string => Mission) missions;\n\n    //@dev fallback for any donation received, used for multipurpose balance\n    //TODO check if fallback should be removed\n    function() payable public{\n        multipurposeBalance = multipurposeBalance.add(msg.value);\n        donors[msg.sender] = 1;\n        emit Donated(msg.sender, msg.value, \"fallback\");\n    }\n\n    //@dev allows owner to create new mission with org name\n    function createMission(string _organization, uint _fundGoal) isOwner public{\n        Mission memory mission;\n        mission.organization = _organization;\n        //mission.receiver = recAddress;\n        mission.fundGoal = _fundGoal;\n        missions[_organization] = mission;\n        missionCounter = missionCounter.add(1);\n        emit CreatedMission(_organization, _fundGoal);\n    }\n\n    //@dev owner distributes specific mission's amount\n    function giveBack(address to, string org, uint amount) isOwner public{\n        Mission storage mission = missions[org];\n        require(mission.contributorCount != 0x0);\n        require(mission.amountBalance > amount);\n        require(address(this).balance >= amount);\n        to.transfer(amount);\n        //mission.fundGoal = mission.fundGoal.sub(amount);\n        mission.amountBalance = mission.amountBalance.sub(amount);\n        emit Given(to, amount, org);\n    }\n\n\n    //@dev allow owner to change fundGoal for mission\n    function addFundGoal(string _org, uint _fundGoal) isOwner public returns(uint){\n       Mission storage mission = missions[_org];\n       mission.fundGoal = mission.fundGoal.add(_fundGoal);\n       emit AddedFundGoal(_org, _fundGoal);\n       return mission.fundGoal;\n    }\n\n    function getBalance() view public returns(uint){\n        return address(this).balance;\n    }\n\n    function getGenericDonations() view public returns(uint){\n      return multipurposeBalance;\n    }\n\n\n}\n",
  "sourcePath": "/Users/hazemtabbaa/Desktop/Other/give-back/contracts/Charity.sol",
  "compiler": {
    "name": "solc",
    "version": "0.4.24+commit.e67f0147.Emscripten.clang"
  },
  "schemaVersion": "2.0.1",
  "updatedAt": "2018-10-03T00:45:13.810Z"
}