{
  "contractName": "Charity",
  "abi": [
    {
      "constant": true,
      "inputs": [],
      "name": "missionCounter",
      "outputs": [
        {
          "name": "",
          "type": "uint256"
        }
      ],
      "payable": false,
      "stateMutability": "view",
      "type": "function"
    },
    {
      "constant": true,
      "inputs": [],
      "name": "multipurposeBalance",
      "outputs": [
        {
          "name": "",
          "type": "uint256"
        }
      ],
      "payable": false,
      "stateMutability": "view",
      "type": "function"
    },
    {
      "constant": true,
      "inputs": [],
      "name": "totalDonations",
      "outputs": [
        {
          "name": "",
          "type": "uint256"
        }
      ],
      "payable": false,
      "stateMutability": "view",
      "type": "function"
    },
    {
      "inputs": [],
      "payable": false,
      "stateMutability": "nonpayable",
      "type": "constructor"
    },
    {
      "payable": true,
      "stateMutability": "payable",
      "type": "fallback"
    },
    {
      "anonymous": false,
      "inputs": [
        {
          "indexed": false,
          "name": "from",
          "type": "address"
        },
        {
          "indexed": false,
          "name": "amount",
          "type": "uint256"
        },
        {
          "indexed": false,
          "name": "organization",
          "type": "string"
        }
      ],
      "name": "Donated",
      "type": "event"
    },
    {
      "anonymous": false,
      "inputs": [
        {
          "indexed": false,
          "name": "to",
          "type": "address"
        },
        {
          "indexed": false,
          "name": "amount",
          "type": "uint256"
        },
        {
          "indexed": false,
          "name": "organization",
          "type": "string"
        }
      ],
      "name": "Given",
      "type": "event"
    },
    {
      "constant": false,
      "inputs": [
        {
          "name": "organization",
          "type": "string"
        }
      ],
      "name": "createMission",
      "outputs": [],
      "payable": false,
      "stateMutability": "nonpayable",
      "type": "function"
    },
    {
      "constant": false,
      "inputs": [
        {
          "name": "to",
          "type": "address"
        },
        {
          "name": "org",
          "type": "string"
        },
        {
          "name": "amount",
          "type": "uint256"
        }
      ],
      "name": "giveBack",
      "outputs": [],
      "payable": false,
      "stateMutability": "nonpayable",
      "type": "function"
    },
    {
      "constant": true,
      "inputs": [],
      "name": "getBalance",
      "outputs": [
        {
          "name": "",
          "type": "uint256"
        }
      ],
      "payable": false,
      "stateMutability": "view",
      "type": "function"
    }
  ],
  "bytecode": "0x608060405234801561001057600080fd5b50336000806101000a81548173ffffffffffffffffffffffffffffffffffffffff021916908373ffffffffffffffffffffffffffffffffffffffff1602179055506109c9806100606000396000f300608060405260043610610078576000357c0100000000000000000000000000000000000000000000000000000000900463ffffffff16806312065fe0146101ad578063482b7fe8146101d8578063aa130d9a14610241578063b2763455146102d4578063dcd4491b146102ff578063de2ed8931461032a575b61008d3460025461035590919063ffffffff16565b6002819055506100a83460015461035590919063ffffffff16565b6001819055506001600460003373ffffffffffffffffffffffffffffffffffffffff1673ffffffffffffffffffffffffffffffffffffffff16815260200190815260200160002060006101000a81548160ff021916908360ff1602179055507fcf76696fec6613453db3fc8d0e87a2417d6033db7623130bae09a2d82c06813b3334604051808373ffffffffffffffffffffffffffffffffffffffff1673ffffffffffffffffffffffffffffffffffffffff16815260200182815260200180602001828103825260088152602001807f66616c6c6261636b000000000000000000000000000000000000000000000000815250602001935050505060405180910390a1005b3480156101b957600080fd5b506101c2610376565b6040518082815260200191505060405180910390f35b3480156101e457600080fd5b5061023f600480360381019080803590602001908201803590602001908080601f0160208091040260200160405190810160405280939291908181526020018383808284378201915050505050509192919290505050610395565b005b34801561024d57600080fd5b506102d2600480360381019080803573ffffffffffffffffffffffffffffffffffffffff169060200190929190803590602001908201803590602001908080601f01602080910402602001604051908101604052809392919081815260200183838082843782019150505050505091929192908035906020019092919050505061052f565b005b3480156102e057600080fd5b506102e96107a4565b6040518082815260200191505060405180910390f35b34801561030b57600080fd5b506103146107aa565b6040518082815260200191505060405180910390f35b34801561033657600080fd5b5061033f6107b0565b6040518082815260200191505060405180910390f35b600080828401905083811015151561036c57600080fd5b8091505092915050565b60003073ffffffffffffffffffffffffffffffffffffffff1631905090565b61039d6107d7565b6000809054906101000a900473ffffffffffffffffffffffffffffffffffffffff1673ffffffffffffffffffffffffffffffffffffffff163373ffffffffffffffffffffffffffffffffffffffff161415156103f857600080fd5b818160600181905250806005836040518082805190602001908083835b60208310151561043a5780518252602082019150602081019050602083039250610415565b6001836020036101000a0380198251168184511680821785525050505050509050019150509081526020016040518091039020600082015181600001908051906020019061048992919061082b565b50602082015181600101556040820151816002015560608201518160030190805190602001906104ba9291906108b5565b506080820151816004015560a0820151816005015560c08201518160060160006101000a81548173ffffffffffffffffffffffffffffffffffffffff021916908373ffffffffffffffffffffffffffffffffffffffff1602179055509050506003600081548092919060010191905055505050565b60008060009054906101000a900473ffffffffffffffffffffffffffffffffffffffff1673ffffffffffffffffffffffffffffffffffffffff163373ffffffffffffffffffffffffffffffffffffffff1614151561058c57600080fd5b6005836040518082805190602001908083835b6020831015156105c4578051825260208201915060208101905060208303925061059f565b6001836020036101000a03801982511681845116808217855250505050505090500191505090815260200160405180910390209050600081600101541415151561060d57600080fd5b81816002015411151561061f57600080fd5b813073ffffffffffffffffffffffffffffffffffffffff16311015151561064557600080fd5b8373ffffffffffffffffffffffffffffffffffffffff166108fc839081150290604051600060405180830381858888f1935050505015801561068b573d6000803e3d6000fd5b506106a1826001546107b690919063ffffffff16565b6001819055506106be8282600201546107b690919063ffffffff16565b81600201819055507fde3ec9fa1ba846c466aa2d622e31a7040b6ff55cc20ed4c122f6fb6e8cae0c63848385604051808473ffffffffffffffffffffffffffffffffffffffff1673ffffffffffffffffffffffffffffffffffffffff16815260200183815260200180602001828103825283818151815260200191508051906020019080838360005b83811015610762578082015181840152602081019050610747565b50505050905090810190601f16801561078f5780820380516001836020036101000a031916815260200191505b5094505050505060405180910390a150505050565b60035481565b60025481565b60015481565b6000808383111515156107c857600080fd5b82840390508091505092915050565b60e060405190810160405280606081526020016000815260200160008152602001606081526020016000815260200160008152602001600073ffffffffffffffffffffffffffffffffffffffff1681525090565b8280548282559060005260206000209081019282156108a4579160200282015b828111156108a35782518260006101000a81548173ffffffffffffffffffffffffffffffffffffffff021916908373ffffffffffffffffffffffffffffffffffffffff1602179055509160200191906001019061084b565b5b5090506108b19190610935565b5090565b828054600181600116156101000203166002900490600052602060002090601f016020900481019282601f106108f657805160ff1916838001178555610924565b82800160010185558215610924579182015b82811115610923578251825591602001919060010190610908565b5b5090506109319190610978565b5090565b61097591905b8082111561097157600081816101000a81549073ffffffffffffffffffffffffffffffffffffffff02191690555060010161093b565b5090565b90565b61099a91905b8082111561099657600081600090555060010161097e565b5090565b905600a165627a7a7230582009724ed5eec77b08e3c33617a5a92bd335217697fd98d8c2b1d719ddaaf754150029",
  "source": "pragma solidity ^0.4.19;\n\nimport \"./SafeMath.sol\";\n\ncontract Charity{\n    using SafeMath for uint;\n\n    address private owner;\n    uint public totalDonations;\n    uint public multipurposeBalance;\n    uint public missionCounter;\n\n    modifier isOwner{\n        require(msg.sender == owner);\n        _;\n    }\n\n    event Donated(address from, uint amount, string organization);\n    event Given(address to, uint amount, string organization);\n\n    constructor() public{\n        //TODO add balance\n        owner = msg.sender;\n    }\n\n    mapping(address=>uint8) donors;\n\n    // @dev struct to store collection of donations given to one organization\n    // and store its Impact\n    struct Mission{\n        //address receiver;\n        address[] contributors;\n        uint contributorCount;\n        uint amountBalance;\n        string organization;\n        uint date;\n        uint fundGoal;\n        address requester;\n    }\n\n    mapping(string => Mission) missions;\n    //Impact[] public impacts;\n\n    // @dev return total donations\n    /*function getTotalDonations() public view returns(uint){\n        return totalDonations;\n    }*/\n\n    //@dev fallback for any donation received, used for multipurpose balance\n    function() payable public{\n        multipurposeBalance = multipurposeBalance.add(msg.value);\n        totalDonations = totalDonations.add(msg.value);\n        donors[msg.sender] = 1;\n        emit Donated(msg.sender, msg.value, \"fallback\");\n    }\n\n    //@dev allows owner to create new mission with org name\n    function createMission(string organization) isOwner public{\n        Mission memory mission;\n        mission.organization = organization;\n        //mission.receiver = recAddress;\n        missions[organization] = mission;\n        missionCounter++;\n    }\n\n    //@dev owner distributes specific mission's amount\n    function giveBack(address to, string org, uint amount) isOwner public{\n        Mission storage mission = missions[org];\n        require(mission.contributorCount != 0x0);\n        require(mission.amountBalance > amount);\n        require(address(this).balance >= amount);\n        to.transfer(amount);\n        totalDonations = totalDonations.sub(amount);\n        mission.amountBalance = mission.amountBalance.sub(amount);\n        emit Given(to, amount, org);\n    }\n\n    function getBalance() view public returns(uint){\n        return address(this).balance;\n    }\n\n\n}\n",
  "sourcePath": "/Users/hazemtabbaa/Desktop/Other/give-back/contracts/Charity.sol",
  "compiler": {
    "name": "solc",
    "version": "0.4.24+commit.e67f0147.Emscripten.clang"
  },
  "schemaVersion": "2.0.1",
  "updatedAt": "2018-09-17T17:56:42.175Z"
}