{
  "contractName": "Charity",
  "abi": [
    {
      "constant": true,
      "inputs": [],
      "name": "missionCounter",
      "outputs": [
        {
          "name": "",
          "type": "uint256"
        }
      ],
      "payable": false,
      "stateMutability": "view",
      "type": "function"
    },
    {
      "constant": true,
      "inputs": [],
      "name": "multipurposeBalance",
      "outputs": [
        {
          "name": "",
          "type": "uint256"
        }
      ],
      "payable": false,
      "stateMutability": "view",
      "type": "function"
    },
    {
      "inputs": [],
      "payable": false,
      "stateMutability": "nonpayable",
      "type": "constructor"
    },
    {
      "payable": true,
      "stateMutability": "payable",
      "type": "fallback"
    },
    {
      "anonymous": false,
      "inputs": [
        {
          "indexed": true,
          "name": "from",
          "type": "address"
        },
        {
          "indexed": false,
          "name": "amount",
          "type": "uint256"
        },
        {
          "indexed": false,
          "name": "organization",
          "type": "string"
        }
      ],
      "name": "Donated",
      "type": "event"
    },
    {
      "anonymous": false,
      "inputs": [
        {
          "indexed": true,
          "name": "to",
          "type": "address"
        },
        {
          "indexed": false,
          "name": "amount",
          "type": "uint256"
        },
        {
          "indexed": false,
          "name": "organization",
          "type": "string"
        }
      ],
      "name": "Given",
      "type": "event"
    },
    {
      "anonymous": false,
      "inputs": [
        {
          "indexed": true,
          "name": "org",
          "type": "string"
        },
        {
          "indexed": false,
          "name": "fundGoal",
          "type": "uint256"
        }
      ],
      "name": "CreatedMission",
      "type": "event"
    },
    {
      "anonymous": false,
      "inputs": [
        {
          "indexed": true,
          "name": "org",
          "type": "string"
        },
        {
          "indexed": false,
          "name": "fundGoal",
          "type": "uint256"
        }
      ],
      "name": "AddedFundGoal",
      "type": "event"
    },
    {
      "constant": false,
      "inputs": [
        {
          "name": "_organization",
          "type": "string"
        },
        {
          "name": "_fundGoal",
          "type": "uint256"
        }
      ],
      "name": "createMission",
      "outputs": [],
      "payable": false,
      "stateMutability": "nonpayable",
      "type": "function"
    },
    {
      "constant": false,
      "inputs": [
        {
          "name": "to",
          "type": "address"
        },
        {
          "name": "org",
          "type": "string"
        },
        {
          "name": "amount",
          "type": "uint256"
        }
      ],
      "name": "giveBack",
      "outputs": [],
      "payable": false,
      "stateMutability": "nonpayable",
      "type": "function"
    },
    {
      "constant": false,
      "inputs": [
        {
          "name": "_org",
          "type": "string"
        },
        {
          "name": "_fundGoal",
          "type": "uint256"
        }
      ],
      "name": "addFundGoal",
      "outputs": [
        {
          "name": "",
          "type": "uint256"
        }
      ],
      "payable": false,
      "stateMutability": "nonpayable",
      "type": "function"
    },
    {
      "constant": true,
      "inputs": [],
      "name": "getBalance",
      "outputs": [
        {
          "name": "",
          "type": "uint256"
        }
      ],
      "payable": false,
      "stateMutability": "view",
      "type": "function"
    },
    {
      "constant": true,
      "inputs": [
        {
          "name": "_org",
          "type": "string"
        }
      ],
      "name": "donationsToFundGoal",
      "outputs": [
        {
          "name": "",
          "type": "uint256"
        }
      ],
      "payable": false,
      "stateMutability": "view",
      "type": "function"
    }
  ],
  "bytecode": "0x608060405234801561001057600080fd5b50336000806101000a81548173ffffffffffffffffffffffffffffffffffffffff021916908373ffffffffffffffffffffffffffffffffffffffff160217905550610c31806100606000396000f300608060405260043610610083576000357c0100000000000000000000000000000000000000000000000000000000900463ffffffff16806312065fe0146101805780631a0f74fc146101ab5780635815797314610228578063aa130d9a146102af578063b276345514610342578063dcd4491b1461036d578063ee86318014610398575b6100983460015461040b90919063ffffffff16565b6001819055506001600360003373ffffffffffffffffffffffffffffffffffffffff1673ffffffffffffffffffffffffffffffffffffffff16815260200190815260200160002060006101000a81548160ff021916908360ff1602179055503373ffffffffffffffffffffffffffffffffffffffff167fcf76696fec6613453db3fc8d0e87a2417d6033db7623130bae09a2d82c06813b346040518082815260200180602001828103825260088152602001807f66616c6c6261636b0000000000000000000000000000000000000000000000008152506020019250505060405180910390a2005b34801561018c57600080fd5b5061019561042c565b6040518082815260200191505060405180910390f35b3480156101b757600080fd5b50610212600480360381019080803590602001908201803590602001908080601f016020809104026020016040519081016040528093929190818152602001838380828437820191505050505050919291929050505061044b565b6040518082815260200191505060405180910390f35b34801561023457600080fd5b50610299600480360381019080803590602001908201803590602001908080601f0160208091040260200160405190810160405280939291908181526020018383808284378201915050505050509192919290803590602001909291905050506104c8565b6040518082815260200191505060405180910390f35b3480156102bb57600080fd5b50610340600480360381019080803573ffffffffffffffffffffffffffffffffffffffff169060200190929190803590602001908201803590602001908080601f01602080910402602001604051908101604052809392919081815260200183838082843782019150505050505091929192908035906020019092919050505061065a565b005b34801561034e57600080fd5b50610357610897565b6040518082815260200191505060405180910390f35b34801561037957600080fd5b5061038261089d565b6040518082815260200191505060405180910390f35b3480156103a457600080fd5b50610409600480360381019080803590602001908201803590602001908080601f0160208091040260200160405190810160405280939291908181526020018383808284378201915050505050509192919290803590602001909291905050506108a3565b005b600080828401905083811015151561042257600080fd5b8091505092915050565b60003073ffffffffffffffffffffffffffffffffffffffff1631905090565b6000806004836040518082805190602001908083835b6020831015156104865780518252602082019150602081019050602083039250610461565b6001836020036101000a038019825116818451168082178552505050505050905001915050908152602001604051809103902090508060080154915050919050565b6000806000809054906101000a900473ffffffffffffffffffffffffffffffffffffffff1673ffffffffffffffffffffffffffffffffffffffff163373ffffffffffffffffffffffffffffffffffffffff1614151561052657600080fd5b6004846040518082805190602001908083835b60208310151561055e5780518252602082019150602081019050602083039250610539565b6001836020036101000a038019825116818451168082178552505050505050905001915050908152602001604051809103902090506105aa83826007015461040b90919063ffffffff16565b8160070181905550836040518082805190602001908083835b6020831015156105e857805182526020820191506020810190506020830392506105c3565b6001836020036101000a03801982511681845116808217855250505050505090500191505060405180910390207f7111d56781ecdd48151e807951a9dbe25e0bb304cbe9f2a7ae57c19c620ca642846040518082815260200191505060405180910390a2806007015491505092915050565b60008060009054906101000a900473ffffffffffffffffffffffffffffffffffffffff1673ffffffffffffffffffffffffffffffffffffffff163373ffffffffffffffffffffffffffffffffffffffff161415156106b757600080fd5b6004836040518082805190602001908083835b6020831015156106ef57805182526020820191506020810190506020830392506106ca565b6001836020036101000a03801982511681845116808217855250505050505090500191505090815260200160405180910390209050600081600201541415151561073857600080fd5b81816003015411151561074a57600080fd5b813073ffffffffffffffffffffffffffffffffffffffff16311015151561077057600080fd5b8373ffffffffffffffffffffffffffffffffffffffff166108fc839081150290604051600060405180830381858888f193505050501580156107b6573d6000803e3d6000fd5b506107ce828260030154610ae390919063ffffffff16565b81600301819055508373ffffffffffffffffffffffffffffffffffffffff167fde3ec9fa1ba846c466aa2d622e31a7040b6ff55cc20ed4c122f6fb6e8cae0c6383856040518083815260200180602001828103825283818151815260200191508051906020019080838360005b8381101561085657808201518184015260208101905061083b565b50505050905090810190601f1680156108835780820380516001836020036101000a031916815260200191505b50935050505060405180910390a250505050565b60025481565b60015481565b6108ab610b04565b6000809054906101000a900473ffffffffffffffffffffffffffffffffffffffff1673ffffffffffffffffffffffffffffffffffffffff163373ffffffffffffffffffffffffffffffffffffffff1614151561090657600080fd5b828160600181905250818160a0018181525050806004846040518082805190602001908083835b602083101515610952578051825260208201915060208101905060208303925061092d565b6001836020036101000a038019825116818451168082178552505050505050905001915050908152602001604051809103902060008201518160020155602082015181600301556040820151816004015560608201518160050190805190602001906109bf929190610b60565b506080820151816006015560a0820151816007015560c0820151816008015560e08201518160090160006101000a81548173ffffffffffffffffffffffffffffffffffffffff021916908373ffffffffffffffffffffffffffffffffffffffff160217905550905050610a3e600160025461040b90919063ffffffff16565b600281905550826040518082805190602001908083835b602083101515610a7a5780518252602082019150602081019050602083039250610a55565b6001836020036101000a03801982511681845116808217855250505050505090500191505060405180910390207f2362915a770d438c034b1e4fdfac17fe8d6353614c7f8275df20db5fb64070b2836040518082815260200191505060405180910390a2505050565b600080838311151515610af557600080fd5b82840390508091505092915050565b6101006040519081016040528060008152602001600081526020016000815260200160608152602001600081526020016000815260200160008152602001600073ffffffffffffffffffffffffffffffffffffffff1681525090565b828054600181600116156101000203166002900490600052602060002090601f016020900481019282601f10610ba157805160ff1916838001178555610bcf565b82800160010185558215610bcf579182015b82811115610bce578251825591602001919060010190610bb3565b5b509050610bdc9190610be0565b5090565b610c0291905b80821115610bfe576000816000905550600101610be6565b5090565b905600a165627a7a72305820a69aba7865814b51e3610a10c0983e384a4734d5a6eaa8c0fcc94700382c571a0029",
  "source": "pragma solidity ^0.4.24;\n\nimport \"./SafeMath.sol\";\n\ncontract Charity{\n    using SafeMath for uint;\n\n    address private owner;\n    //uint public totalDonations;\n    uint public multipurposeBalance;\n    uint public missionCounter;\n    //uint comments;\n\n    modifier isOwner{\n        require(msg.sender == owner);\n        _;\n    }\n\n    event Donated(address indexed from, uint amount, string organization);\n    event Given(address indexed to, uint amount, string organization);\n    event CreatedMission(string indexed org, uint fundGoal);\n    event AddedFundGoal(string indexed org, uint fundGoal);\n\n    constructor() public{\n        //TODO add balance\n        owner = msg.sender;\n    }\n\n    //TODO\n    //maybe add mission address in struct or in createMission\n    //instead of manual input of address in giveBack\n\n    //TODO\n    //fix indexed keyword in events\n\n    //@dev map to store if address has donated or not\n    mapping(address=>uint8) donors;\n\n    // @dev struct to store collection of donations given to one organization\n    // and store its Impact\n    struct Mission{\n        //address receiver;\n        //TODO get Contributor amount\n        mapping(address => uint8) contributors;\n        mapping(address => uint) addressDonations;\n        //address[] contributors;\n        uint contributorCount;\n        //amountBalance eth left in balance to give back\n        uint amountBalance;\n        //total amount donated disregarding \"givebacks\"\n        uint amountDonated;\n        string organization;\n        uint date;\n        uint fundGoal;\n        //amount needed to reach fund goal\n        uint toReachFundGoal;\n        address requester;\n    }\n\n    mapping(string => Mission) missions;\n\n    //@dev fallback for any donation received, used for multipurpose balance\n    //TODO check if fallback should be removed\n    function() payable public{\n        multipurposeBalance = multipurposeBalance.add(msg.value);\n        donors[msg.sender] = 1;\n        emit Donated(msg.sender, msg.value, \"fallback\");\n    }\n\n    //@dev allows owner to create new mission with org name\n    function createMission(string _organization, uint _fundGoal) isOwner public{\n        Mission memory mission;\n        mission.organization = _organization;\n        //mission.receiver = recAddress;\n        mission.fundGoal = _fundGoal;\n        missions[_organization] = mission;\n        missionCounter = missionCounter.add(1);\n        emit CreatedMission(_organization, _fundGoal);\n    }\n\n    //@dev owner distributes specific mission's amount\n    function giveBack(address to, string org, uint amount) isOwner public{\n        Mission storage mission = missions[org];\n        require(mission.contributorCount != 0x0);\n        require(mission.amountBalance > amount);\n        require(address(this).balance >= amount);\n        to.transfer(amount);\n        //mission.fundGoal = mission.fundGoal.sub(amount);\n        mission.amountBalance = mission.amountBalance.sub(amount);\n        emit Given(to, amount, org);\n    }\n\n\n    //@dev allow owner to change fundGoal for mission\n    function addFundGoal(string _org, uint _fundGoal) isOwner public returns(uint){\n       Mission storage mission = missions[_org];\n       mission.fundGoal = mission.fundGoal.add(_fundGoal);\n       emit AddedFundGoal(_org, _fundGoal);\n       return mission.fundGoal;\n    }\n\n    function getBalance() view public returns(uint){\n        return address(this).balance;\n    }\n\n    /*function getGenericDonations() view public returns(uint){\n      return multipurposeBalance;\n    }*/\n\n    function donationsToFundGoal(string _org) public view returns(uint){\n      Mission storage mission = missions[_org];\n      return mission.toReachFundGoal;\n    }\n\n\n}\n",
  "sourcePath": "/Users/hazemtabbaa/Desktop/Other/give-back/contracts/Charity.sol",
  "compiler": {
    "name": "solc",
    "version": "0.4.24+commit.e67f0147.Emscripten.clang"
  },
  "schemaVersion": "2.0.1",
  "updatedAt": "2018-10-09T07:27:14.424Z"
}