{
  "contractName": "Charity",
  "abi": [
    {
      "constant": true,
      "inputs": [],
      "name": "missionCounter",
      "outputs": [
        {
          "name": "",
          "type": "uint256"
        }
      ],
      "payable": false,
      "stateMutability": "view",
      "type": "function"
    },
    {
      "constant": true,
      "inputs": [],
      "name": "multipurposeBalance",
      "outputs": [
        {
          "name": "",
          "type": "uint256"
        }
      ],
      "payable": false,
      "stateMutability": "view",
      "type": "function"
    },
    {
      "inputs": [],
      "payable": false,
      "stateMutability": "nonpayable",
      "type": "constructor"
    },
    {
      "payable": true,
      "stateMutability": "payable",
      "type": "fallback"
    },
    {
      "anonymous": false,
      "inputs": [
        {
          "indexed": true,
          "name": "from",
          "type": "address"
        },
        {
          "indexed": false,
          "name": "amount",
          "type": "uint256"
        },
        {
          "indexed": false,
          "name": "organization",
          "type": "string"
        }
      ],
      "name": "Donated",
      "type": "event"
    },
    {
      "anonymous": false,
      "inputs": [
        {
          "indexed": false,
          "name": "amount",
          "type": "uint256"
        },
        {
          "indexed": false,
          "name": "organization",
          "type": "string"
        }
      ],
      "name": "Given",
      "type": "event"
    },
    {
      "anonymous": false,
      "inputs": [
        {
          "indexed": false,
          "name": "org",
          "type": "string"
        },
        {
          "indexed": false,
          "name": "fundGoal",
          "type": "uint256"
        },
        {
          "indexed": true,
          "name": "orgHead",
          "type": "address"
        }
      ],
      "name": "CreatedMission",
      "type": "event"
    },
    {
      "anonymous": false,
      "inputs": [
        {
          "indexed": false,
          "name": "org",
          "type": "string"
        },
        {
          "indexed": false,
          "name": "fundGoal",
          "type": "uint256"
        }
      ],
      "name": "AddedFundGoal",
      "type": "event"
    },
    {
      "constant": false,
      "inputs": [
        {
          "name": "_organization",
          "type": "string"
        },
        {
          "name": "_fundGoal",
          "type": "uint256"
        },
        {
          "name": "_orgHead",
          "type": "address"
        }
      ],
      "name": "createMission",
      "outputs": [],
      "payable": false,
      "stateMutability": "nonpayable",
      "type": "function"
    },
    {
      "constant": false,
      "inputs": [
        {
          "name": "org",
          "type": "string"
        },
        {
          "name": "amount",
          "type": "uint256"
        }
      ],
      "name": "giveBack",
      "outputs": [],
      "payable": false,
      "stateMutability": "nonpayable",
      "type": "function"
    },
    {
      "constant": false,
      "inputs": [
        {
          "name": "_org",
          "type": "string"
        },
        {
          "name": "_fundGoal",
          "type": "uint256"
        }
      ],
      "name": "addFundGoal",
      "outputs": [
        {
          "name": "",
          "type": "uint256"
        }
      ],
      "payable": false,
      "stateMutability": "nonpayable",
      "type": "function"
    },
    {
      "constant": true,
      "inputs": [],
      "name": "getBalance",
      "outputs": [
        {
          "name": "",
          "type": "uint256"
        }
      ],
      "payable": false,
      "stateMutability": "view",
      "type": "function"
    },
    {
      "constant": true,
      "inputs": [
        {
          "name": "_org",
          "type": "string"
        }
      ],
      "name": "donationsToFundGoal",
      "outputs": [
        {
          "name": "",
          "type": "uint256"
        }
      ],
      "payable": false,
      "stateMutability": "view",
      "type": "function"
    }
  ],
  "bytecode": "0x608060405234801561001057600080fd5b50336000806101000a81548173ffffffffffffffffffffffffffffffffffffffff021916908373ffffffffffffffffffffffffffffffffffffffff160217905550611266806100606000396000f300608060405260043610610083576000357c0100000000000000000000000000000000000000000000000000000000900463ffffffff16806312065fe014610180578063167595ee146101ab5780631a0f74fc1461021e578063581579731461029b578063b276345514610322578063dcd4491b1461034d578063fd2202ce14610378575b6100983460015461040b90919063ffffffff16565b6001819055506001600360003373ffffffffffffffffffffffffffffffffffffffff1673ffffffffffffffffffffffffffffffffffffffff16815260200190815260200160002060006101000a81548160ff021916908360ff1602179055503373ffffffffffffffffffffffffffffffffffffffff167fcf76696fec6613453db3fc8d0e87a2417d6033db7623130bae09a2d82c06813b346040518082815260200180602001828103825260088152602001807f66616c6c6261636b0000000000000000000000000000000000000000000000008152506020019250505060405180910390a2005b34801561018c57600080fd5b5061019561042c565b6040518082815260200191505060405180910390f35b3480156101b757600080fd5b5061021c600480360381019080803590602001908201803590602001908080601f01602080910402602001604051908101604052809392919081815260200183838082843782019150505050505091929192908035906020019092919050505061044b565b005b34801561022a57600080fd5b50610285600480360381019080803590602001908201803590602001908080601f0160208091040260200160405190810160405280939291908181526020018383808284378201915050505050509192919290505050610694565b6040518082815260200191505060405180910390f35b3480156102a757600080fd5b5061030c600480360381019080803590602001908201803590602001908080601f016020809104026020016040519081016040528093929190818152602001838380828437820191505050505050919291929080359060200190929190505050610727565b6040518082815260200191505060405180910390f35b34801561032e57600080fd5b506103376108c3565b6040518082815260200191505060405180910390f35b34801561035957600080fd5b506103626108c9565b6040518082815260200191505060405180910390f35b34801561038457600080fd5b50610409600480360381019080803590602001908201803590602001908080601f016020809104026020016040519081016040528093929190818152602001838380828437820191505050505050919291929080359060200190929190803573ffffffffffffffffffffffffffffffffffffffff1690602001909291905050506108cf565b005b600080828401905083811015151561042257600080fd5b8091505092915050565b60003073ffffffffffffffffffffffffffffffffffffffff1631905090565b60008060009054906101000a900473ffffffffffffffffffffffffffffffffffffffff1673ffffffffffffffffffffffffffffffffffffffff163373ffffffffffffffffffffffffffffffffffffffff161415156104a857600080fd5b6004836040518082805190602001908083835b6020831015156104e057805182526020820191506020810190506020830392506104bb565b6001836020036101000a03801982511681845116808217855250505050505090500191505090815260200160405180910390209050600081600201541415151561052957600080fd5b81816003015411151561053b57600080fd5b813073ffffffffffffffffffffffffffffffffffffffff16311015151561056157600080fd5b8060090160009054906101000a900473ffffffffffffffffffffffffffffffffffffffff1673ffffffffffffffffffffffffffffffffffffffff166108fc839081150290604051600060405180830381858888f193505050501580156105cb573d6000803e3d6000fd5b506105e3828260030154610cef90919063ffffffff16565b81600301819055507ff39ed54c3a63ca881695c190da1e9572ccc241c340d9f41a22677f1d90bbb43c82846040518083815260200180602001828103825283818151815260200191508051906020019080838360005b83811015610654578082015181840152602081019050610639565b50505050905090810190601f1680156106815780820380516001836020036101000a031916815260200191505b50935050505060405180910390a1505050565b6000806004836040518082805190602001908083835b6020831015156106cf57805182526020820191506020810190506020830392506106aa565b6001836020036101000a0380198251168184511680821785525050505050509050019150509081526020016040518091039020905061071f81600401548260070154610cef90919063ffffffff16565b915050919050565b6000806000809054906101000a900473ffffffffffffffffffffffffffffffffffffffff1673ffffffffffffffffffffffffffffffffffffffff163373ffffffffffffffffffffffffffffffffffffffff1614151561078557600080fd5b6004846040518082805190602001908083835b6020831015156107bd5780518252602082019150602081019050602083039250610798565b6001836020036101000a0380198251168184511680821785525050505050509050019150509081526020016040518091039020905061080983826007015461040b90919063ffffffff16565b81600701819055507f7111d56781ecdd48151e807951a9dbe25e0bb304cbe9f2a7ae57c19c620ca64284846040518080602001838152602001828103825284818151815260200191508051906020019080838360005b8381101561087a57808201518184015260208101905061085f565b50505050905090810190601f1680156108a75780820380516001836020036101000a031916815260200191505b50935050505060405180910390a1806007015491505092915050565b60025481565b60015481565b6108d7610d10565b6000809054906101000a900473ffffffffffffffffffffffffffffffffffffffff1673ffffffffffffffffffffffffffffffffffffffff163373ffffffffffffffffffffffffffffffffffffffff1614151561093257600080fd5b8381606001819052508181610100019073ffffffffffffffffffffffffffffffffffffffff16908173ffffffffffffffffffffffffffffffffffffffff1681525050828160a0018181525050806004856040518082805190602001908083835b6020831015156109b75780518252602082019150602081019050602083039250610992565b6001836020036101000a03801982511681845116808217855250505050505090500191505090815260200160405180910390206000820151816002015560208201518160030155604082015181600401556060820151816005019080519060200190610a24929190610d9f565b506080820151816006015560a0820151816007015560c08201518160080160006101000a81548173ffffffffffffffffffffffffffffffffffffffff021916908373ffffffffffffffffffffffffffffffffffffffff16021790555060e08201518160090160006101000a81548173ffffffffffffffffffffffffffffffffffffffff021916908373ffffffffffffffffffffffffffffffffffffffff16021790555061010082015181600a0160006101000a81548173ffffffffffffffffffffffffffffffffffffffff021916908373ffffffffffffffffffffffffffffffffffffffff160217905550905050610b28600160025461040b90919063ffffffff16565b6002819055508382610b38610e1f565b80806020018373ffffffffffffffffffffffffffffffffffffffff1673ffffffffffffffffffffffffffffffffffffffff168152602001828103825284818151815260200191508051906020019080838360005b83811015610ba7578082015181840152602081019050610b8c565b50505050905090810190601f168015610bd45780820380516001836020036101000a031916815260200191505b509350505050604051809103906000f080158015610bf6573d6000803e3d6000fd5b508160e0019073ffffffffffffffffffffffffffffffffffffffff16908173ffffffffffffffffffffffffffffffffffffffff16815250508173ffffffffffffffffffffffffffffffffffffffff167fc1490e357730c1a879f6dde9e035b50deef91f0b7521ef58d59d50b46683ca1385856040518080602001838152602001828103825284818151815260200191508051906020019080838360005b83811015610cae578082015181840152602081019050610c93565b50505050905090810190601f168015610cdb5780820380516001836020036101000a031916815260200191505b50935050505060405180910390a250505050565b600080838311151515610d0157600080fd5b82840390508091505092915050565b61012060405190810160405280600081526020016000815260200160008152602001606081526020016000815260200160008152602001600073ffffffffffffffffffffffffffffffffffffffff168152602001600073ffffffffffffffffffffffffffffffffffffffff168152602001600073ffffffffffffffffffffffffffffffffffffffff1681525090565b828054600181600116156101000203166002900490600052602060002090601f016020900481019282601f10610de057805160ff1916838001178555610e0e565b82800160010185558215610e0e579182015b82811115610e0d578251825591602001919060010190610df2565b5b509050610e1b9190610e2f565b5090565b6040516103e680610e5583390190565b610e5191905b80821115610e4d576000816000905550600101610e35565b5090565b905600608060405234801561001057600080fd5b506040516103e63803806103e68339810180604052810190808051820192919060200180519060200190929190505050816000908051906020019061005692919061009f565b5080600160006101000a81548173ffffffffffffffffffffffffffffffffffffffff021916908373ffffffffffffffffffffffffffffffffffffffff1602179055505050610144565b828054600181600116156101000203166002900490600052602060002090601f016020900481019282601f106100e057805160ff191683800117855561010e565b8280016001018555821561010e579182015b8281111561010d5782518255916020019190600101906100f2565b5b50905061011b919061011f565b5090565b61014191905b8082111561013d576000816000905550600101610125565b5090565b90565b610293806101536000396000f30060806040526004361061004c576000357c0100000000000000000000000000000000000000000000000000000000900463ffffffff1680630f657b4314610051578063efe4fe021461007c575b600080fd5b34801561005d57600080fd5b506100666100fd565b6040518082815260200191505060405180910390f35b34801561008857600080fd5b506100e3600480360381019080803590602001908201803590602001908080601f016020809104026020016040519081016040528093929190818152602001838380828437820191505050505050919291929050505061011c565b604051808215151515815260200191505060405180910390f35b60003073ffffffffffffffffffffffffffffffffffffffff1631905090565b6000600160009054906101000a900473ffffffffffffffffffffffffffffffffffffffff1673ffffffffffffffffffffffffffffffffffffffff163373ffffffffffffffffffffffffffffffffffffffff1614151561017a57600080fd5b60028290806001815401808255809150509060018203906000526020600020016000909192909190915090805190602001906101b79291906101c2565b505060019050919050565b828054600181600116156101000203166002900490600052602060002090601f016020900481019282601f1061020357805160ff1916838001178555610231565b82800160010185558215610231579182015b82811115610230578251825591602001919060010190610215565b5b50905061023e9190610242565b5090565b61026491905b80821115610260576000816000905550600101610248565b5090565b905600a165627a7a7230582033c68b53a10a85fb4763852cba0f88d4fda520714adb972c37c9974483f47d470029a165627a7a7230582006d16b307ddb237fc28953fc133c5c46015a9c4b5acb1ab0fb41a93ff8e63fbc0029",
  "source": "pragma solidity ^0.4.24;\n\nimport \"./SafeMath.sol\";\nimport \"./OrgContract.sol\";\n\ncontract Charity{\n    using SafeMath for uint;\n\n    address private owner;\n    //uint public totalDonations;\n    uint public multipurposeBalance;\n    uint public missionCounter;\n    //uint comments;\n\n    modifier isOwner{\n        require(msg.sender == owner);\n        _;\n    }\n\n    event Donated(address indexed from, uint amount, string organization);\n    event Given(uint amount, string organization);\n    event CreatedMission(string org, uint fundGoal, address indexed orgHead);\n    event AddedFundGoal(string org, uint fundGoal);\n\n    constructor() public{\n        //TODO add balance\n        owner = msg.sender;\n    }\n\n    //TODO\n    //maybe add mission address in struct or in createMission\n    //instead of manual input of address in giveBack\n\n    //TODO\n    //fix indexed keyword in events\n\n    //@dev map to store if address has donated or not\n    mapping(address=>uint8) donors;\n\n    // @dev struct to store collection of donations given to one organization\n    // and store its Impact\n    struct Mission{\n        //TODO get Contributor amount\n        mapping(address => uint8) contributors;\n        mapping(address => uint) addressDonations;\n        uint contributorCount; //address[] contributors;\n        uint availableAmount; //availableAmount eth left in balance to give back\n        uint amountDonated; //total amount donated disregarding \"givebacks\"\n        string organization;\n        uint date;\n        uint fundGoal;\n        address requester;\n        address orgAddr; //organization address\n        address orgHead; //head of organization\n\n    }\n\n    mapping(string => Mission) missions;\n\n    //@dev fallback for any donation received, used for multipurpose balance\n    //TODO check if fallback should be removed\n    function() payable public{\n        multipurposeBalance = multipurposeBalance.add(msg.value);\n        donors[msg.sender] = 1;\n        emit Donated(msg.sender, msg.value, \"fallback\");\n    }\n\n    //@dev allows owner to create new mission with org name\n    function createMission(string _organization, uint _fundGoal, address _orgHead)\n      isOwner public{\n        Mission memory mission;\n        mission.organization = _organization;\n        mission.orgHead = _orgHead;\n        //mission.receiver = recAddress;\n        mission.fundGoal = _fundGoal;\n        missions[_organization] = mission;\n        missionCounter = missionCounter.add(1);\n\n        //Creating new address for the org\n        mission.orgAddr = new OrgContract(_organization, _orgHead);\n\n        emit CreatedMission(_organization, _fundGoal, _orgHead);\n    }\n\n    //@dev owner distributes specific mission's amount\n    //@dev removed address to argument\n    function giveBack(string org, uint amount)\n      isOwner public{\n        Mission storage mission = missions[org];\n        require(mission.contributorCount != 0x0);\n        require(mission.availableAmount > amount);\n        require(address(this).balance >= amount);\n        mission.orgAddr.transfer(amount);\n        //to.transfer(amount);\n        mission.availableAmount = mission.availableAmount.sub(amount);\n        emit Given(amount, org);\n    }\n\n\n    //@dev allow owner to change fundGoal for mission\n    function addFundGoal(string _org, uint _fundGoal)\n      isOwner public returns(uint){\n       Mission storage mission = missions[_org];\n       mission.fundGoal = mission.fundGoal.add(_fundGoal);\n       emit AddedFundGoal(_org, _fundGoal);\n       return mission.fundGoal;\n    }\n\n    function getBalance()\n      view public returns(uint){\n        return address(this).balance;\n    }\n\n    /*function getGenericDonations() view public returns(uint){\n      return multipurposeBalance;\n    }*/\n\n    //@dev returns amount needed to reach the fund goal\n    function donationsToFundGoal(string _org)\n      public view returns(uint){\n      Mission storage mission = missions[_org];\n      return (mission.fundGoal.sub(mission.amountDonated));\n    }\n\n\n}\n",
  "sourcePath": "/Users/hazemtabbaa/Desktop/Other/give-back/contracts/Charity.sol",
  "compiler": {
    "name": "solc",
    "version": "0.4.24+commit.e67f0147.Emscripten.clang"
  },
  "schemaVersion": "2.0.1",
  "updatedAt": "2018-11-04T03:27:37.807Z"
}