{
  "contractName": "Charity",
  "abi": [
    {
      "constant": true,
      "inputs": [
        {
          "name": "",
          "type": "uint256"
        }
      ],
      "name": "missions",
      "outputs": [
        {
          "name": "contributorCount",
          "type": "uint256"
        },
        {
          "name": "amountDonated",
          "type": "uint256"
        },
        {
          "name": "organization",
          "type": "string"
        },
        {
          "name": "date",
          "type": "uint256"
        },
        {
          "name": "fundGoal",
          "type": "uint256"
        },
        {
          "name": "requester",
          "type": "address"
        },
        {
          "name": "orgContract",
          "type": "address"
        },
        {
          "name": "orgHead",
          "type": "address"
        }
      ],
      "payable": false,
      "stateMutability": "view",
      "type": "function"
    },
    {
      "constant": true,
      "inputs": [
        {
          "name": "",
          "type": "address"
        }
      ],
      "name": "donorChoice",
      "outputs": [
        {
          "name": "",
          "type": "uint256"
        }
      ],
      "payable": false,
      "stateMutability": "view",
      "type": "function"
    },
    {
      "constant": true,
      "inputs": [
        {
          "name": "",
          "type": "uint256"
        }
      ],
      "name": "existingMissions",
      "outputs": [
        {
          "name": "",
          "type": "uint8"
        }
      ],
      "payable": false,
      "stateMutability": "view",
      "type": "function"
    },
    {
      "constant": true,
      "inputs": [
        {
          "name": "",
          "type": "address"
        }
      ],
      "name": "donorAmount",
      "outputs": [
        {
          "name": "",
          "type": "uint256"
        }
      ],
      "payable": false,
      "stateMutability": "view",
      "type": "function"
    },
    {
      "constant": true,
      "inputs": [
        {
          "name": "",
          "type": "uint256"
        }
      ],
      "name": "missionAddresses",
      "outputs": [
        {
          "name": "",
          "type": "address"
        }
      ],
      "payable": false,
      "stateMutability": "view",
      "type": "function"
    },
    {
      "constant": true,
      "inputs": [],
      "name": "missionCounter",
      "outputs": [
        {
          "name": "",
          "type": "uint256"
        }
      ],
      "payable": false,
      "stateMutability": "view",
      "type": "function"
    },
    {
      "constant": true,
      "inputs": [
        {
          "name": "",
          "type": "address"
        }
      ],
      "name": "donors",
      "outputs": [
        {
          "name": "",
          "type": "uint8"
        }
      ],
      "payable": false,
      "stateMutability": "view",
      "type": "function"
    },
    {
      "constant": true,
      "inputs": [],
      "name": "multipurposeBalance",
      "outputs": [
        {
          "name": "",
          "type": "uint256"
        }
      ],
      "payable": false,
      "stateMutability": "view",
      "type": "function"
    },
    {
      "inputs": [],
      "payable": false,
      "stateMutability": "nonpayable",
      "type": "constructor"
    },
    {
      "payable": true,
      "stateMutability": "payable",
      "type": "fallback"
    },
    {
      "anonymous": false,
      "inputs": [
        {
          "indexed": false,
          "name": "test",
          "type": "string"
        },
        {
          "indexed": false,
          "name": "addr",
          "type": "address"
        }
      ],
      "name": "debugger",
      "type": "event"
    },
    {
      "anonymous": false,
      "inputs": [
        {
          "indexed": true,
          "name": "from",
          "type": "address"
        },
        {
          "indexed": false,
          "name": "amount",
          "type": "uint256"
        },
        {
          "indexed": false,
          "name": "organization",
          "type": "string"
        }
      ],
      "name": "Donated",
      "type": "event"
    },
    {
      "anonymous": false,
      "inputs": [
        {
          "indexed": false,
          "name": "amount",
          "type": "uint256"
        },
        {
          "indexed": false,
          "name": "organization",
          "type": "string"
        }
      ],
      "name": "Given",
      "type": "event"
    },
    {
      "anonymous": false,
      "inputs": [
        {
          "indexed": false,
          "name": "org",
          "type": "string"
        },
        {
          "indexed": false,
          "name": "fundGoal",
          "type": "uint256"
        },
        {
          "indexed": true,
          "name": "orgHead",
          "type": "address"
        }
      ],
      "name": "CreatedMission",
      "type": "event"
    },
    {
      "anonymous": false,
      "inputs": [
        {
          "indexed": false,
          "name": "org",
          "type": "string"
        },
        {
          "indexed": false,
          "name": "fundGoal",
          "type": "uint256"
        }
      ],
      "name": "AddedFundGoal",
      "type": "event"
    },
    {
      "constant": false,
      "inputs": [
        {
          "name": "_organization",
          "type": "string"
        },
        {
          "name": "_fundGoal",
          "type": "uint256"
        },
        {
          "name": "_orgHead",
          "type": "address"
        }
      ],
      "name": "createMission",
      "outputs": [],
      "payable": false,
      "stateMutability": "nonpayable",
      "type": "function"
    },
    {
      "constant": false,
      "inputs": [
        {
          "name": "org",
          "type": "string"
        },
        {
          "name": "amount",
          "type": "uint256"
        }
      ],
      "name": "giveBack",
      "outputs": [],
      "payable": false,
      "stateMutability": "nonpayable",
      "type": "function"
    },
    {
      "constant": false,
      "inputs": [
        {
          "name": "_org",
          "type": "string"
        },
        {
          "name": "_fundGoal",
          "type": "uint256"
        }
      ],
      "name": "addFundGoal",
      "outputs": [
        {
          "name": "",
          "type": "uint256"
        }
      ],
      "payable": false,
      "stateMutability": "nonpayable",
      "type": "function"
    },
    {
      "constant": true,
      "inputs": [],
      "name": "getBalance",
      "outputs": [
        {
          "name": "",
          "type": "uint256"
        }
      ],
      "payable": false,
      "stateMutability": "view",
      "type": "function"
    },
    {
      "constant": true,
      "inputs": [
        {
          "name": "_org",
          "type": "string"
        }
      ],
      "name": "donationsToFundGoal",
      "outputs": [
        {
          "name": "",
          "type": "uint256"
        }
      ],
      "payable": false,
      "stateMutability": "view",
      "type": "function"
    }
  ],
  "bytecode": "0x608060405234801561001057600080fd5b50336000806101000a81548173ffffffffffffffffffffffffffffffffffffffff021916908373ffffffffffffffffffffffffffffffffffffffff160217905550611c74806100606000396000f3006080604052600436106100c5576000357c0100000000000000000000000000000000000000000000000000000000900463ffffffff16806312065fe0146101c2578063167595ee146101ed5780631a0f74fc146102605780632c8fe526146102dd5780634d21aabf1461043857806353db69281461048f57806358157973146104d65780636e5c2bb21461055d5780638cb21471146105b4578063b276345514610621578063ca0cdea81461064c578063dcd4491b146106a9578063fd2202ce146106d4575b6100da3460015461076790919063ffffffff16565b6001819055506001600360003373ffffffffffffffffffffffffffffffffffffffff1673ffffffffffffffffffffffffffffffffffffffff16815260200190815260200160002060006101000a81548160ff021916908360ff1602179055503373ffffffffffffffffffffffffffffffffffffffff167fcf76696fec6613453db3fc8d0e87a2417d6033db7623130bae09a2d82c06813b346040518082815260200180602001828103825260088152602001807f66616c6c6261636b0000000000000000000000000000000000000000000000008152506020019250505060405180910390a2005b3480156101ce57600080fd5b506101d7610788565b6040518082815260200191505060405180910390f35b3480156101f957600080fd5b5061025e600480360381019080803590602001908201803590602001908080601f0160208091040260200160405190810160405280939291908181526020018383808284378201915050505050509192919290803590602001909291905050506107a7565b005b34801561026c57600080fd5b506102c7600480360381019080803590602001908201803590602001908080601f0160208091040260200160405190810160405280939291908181526020018383808284378201915050505050509192919290505050610a39565b6040518082815260200191505060405180910390f35b3480156102e957600080fd5b5061030860048036038101908080359060200190929190505050610b46565b60405180898152602001888152602001806020018781526020018681526020018573ffffffffffffffffffffffffffffffffffffffff1673ffffffffffffffffffffffffffffffffffffffff1681526020018473ffffffffffffffffffffffffffffffffffffffff1673ffffffffffffffffffffffffffffffffffffffff1681526020018373ffffffffffffffffffffffffffffffffffffffff1673ffffffffffffffffffffffffffffffffffffffff168152602001828103825288818151815260200191508051906020019080838360005b838110156103f65780820151818401526020810190506103db565b50505050905090810190601f1680156104235780820380516001836020036101000a031916815260200191505b50995050505050505050505060405180910390f35b34801561044457600080fd5b50610479600480360381019080803573ffffffffffffffffffffffffffffffffffffffff169060200190929190505050610c86565b6040518082815260200191505060405180910390f35b34801561049b57600080fd5b506104ba60048036038101908080359060200190929190505050610c9e565b604051808260ff1660ff16815260200191505060405180910390f35b3480156104e257600080fd5b50610547600480360381019080803590602001908201803590602001908080601f016020809104026020016040519081016040528093929190818152602001838380828437820191505050505050919291929080359060200190929190505050610cbe565b6040518082815260200191505060405180910390f35b34801561056957600080fd5b5061059e600480360381019080803573ffffffffffffffffffffffffffffffffffffffff169060200190929190505050610ed4565b6040518082815260200191505060405180910390f35b3480156105c057600080fd5b506105df60048036038101908080359060200190929190505050610eec565b604051808273ffffffffffffffffffffffffffffffffffffffff1673ffffffffffffffffffffffffffffffffffffffff16815260200191505060405180910390f35b34801561062d57600080fd5b50610636610f1f565b6040518082815260200191505060405180910390f35b34801561065857600080fd5b5061068d600480360381019080803573ffffffffffffffffffffffffffffffffffffffff169060200190929190505050610f25565b604051808260ff1660ff16815260200191505060405180910390f35b3480156106b557600080fd5b506106be610f45565b6040518082815260200191505060405180910390f35b3480156106e057600080fd5b50610765600480360381019080803590602001908201803590602001908080601f016020809104026020016040519081016040528093929190818152602001838380828437820191505050505050919291929080359060200190929190803573ffffffffffffffffffffffffffffffffffffffff169060200190929190505050610f4b565b005b600080828401905083811015151561077e57600080fd5b8091505092915050565b60003073ffffffffffffffffffffffffffffffffffffffff1631905090565b60008060009054906101000a900473ffffffffffffffffffffffffffffffffffffffff1673ffffffffffffffffffffffffffffffffffffffff163373ffffffffffffffffffffffffffffffffffffffff1614151561080457600080fd5b60086000846040516020018082805190602001908083835b602083101515610841578051825260208201915060208101905060208303925061081c565b6001836020036101000a0380198251168184511680821785525050505050509050019150506040516020818303038152906040526040518082805190602001908083835b6020831015156108aa5780518252602082019150602081019050602083039250610885565b6001836020036101000a0380198251168184511680821785525050505050509050019150506040518091039020600190048152602001908152602001600020905060008160020154141515156108ff57600080fd5b813073ffffffffffffffffffffffffffffffffffffffff16311015151561092557600080fd5b8060080160009054906101000a900473ffffffffffffffffffffffffffffffffffffffff1673ffffffffffffffffffffffffffffffffffffffff166108fc839081150290604051600060405180830381858888f1935050505015801561098f573d6000803e3d6000fd5b507ff39ed54c3a63ca881695c190da1e9572ccc241c340d9f41a22677f1d90bbb43c82846040518083815260200180602001828103825283818151815260200191508051906020019080838360005b838110156109f95780820151818401526020810190506109de565b50505050905090810190601f168015610a265780820380516001836020036101000a031916815260200191505b50935050505060405180910390a1505050565b60008060086000846040516020018082805190602001908083835b602083101515610a795780518252602082019150602081019050602083039250610a54565b6001836020036101000a0380198251168184511680821785525050505050509050019150506040516020818303038152906040526040518082805190602001908083835b602083101515610ae25780518252602082019150602081019050602083039250610abd565b6001836020036101000a03801982511681845116808217855250505050505090500191505060405180910390206001900481526020019081526020016000209050610b3e8160030154826006015461170490919063ffffffff16565b915050919050565b6008602052806000526040600020600091509050806002015490806003015490806004018054600181600116156101000203166002900480601f016020809104026020016040519081016040528092919081815260200182805460018160011615610100020316600290048015610bfe5780601f10610bd357610100808354040283529160200191610bfe565b820191906000526020600020905b815481529060010190602001808311610be157829003601f168201915b5050505050908060050154908060060154908060070160009054906101000a900473ffffffffffffffffffffffffffffffffffffffff16908060080160009054906101000a900473ffffffffffffffffffffffffffffffffffffffff16908060090160009054906101000a900473ffffffffffffffffffffffffffffffffffffffff16905088565b60046020528060005260406000206000915090505481565b60066020528060005260406000206000915054906101000a900460ff1681565b6000806000809054906101000a900473ffffffffffffffffffffffffffffffffffffffff1673ffffffffffffffffffffffffffffffffffffffff163373ffffffffffffffffffffffffffffffffffffffff16141515610d1c57600080fd5b60086000856040516020018082805190602001908083835b602083101515610d595780518252602082019150602081019050602083039250610d34565b6001836020036101000a0380198251168184511680821785525050505050509050019150506040516020818303038152906040526040518082805190602001908083835b602083101515610dc25780518252602082019150602081019050602083039250610d9d565b6001836020036101000a03801982511681845116808217855250505050505090500191505060405180910390206001900481526020019081526020016000209050610e1a83826006015461076790919063ffffffff16565b81600601819055507f7111d56781ecdd48151e807951a9dbe25e0bb304cbe9f2a7ae57c19c620ca64284846040518080602001838152602001828103825284818151815260200191508051906020019080838360005b83811015610e8b578082015181840152602081019050610e70565b50505050905090810190601f168015610eb85780820380516001836020036101000a031916815260200191505b50935050505060405180910390a1806006015491505092915050565b60056020528060005260406000206000915090505481565b60076020528060005260406000206000915054906101000a900473ffffffffffffffffffffffffffffffffffffffff1681565b60025481565b60036020528060005260406000206000915054906101000a900460ff1681565b60015481565b610f53611725565b6000809054906101000a900473ffffffffffffffffffffffffffffffffffffffff1673ffffffffffffffffffffffffffffffffffffffff163373ffffffffffffffffffffffffffffffffffffffff16141515610fae57600080fd5b600060066000866040516020018082805190602001908083835b602083101515610fed5780518252602082019150602081019050602083039250610fc8565b6001836020036101000a0380198251168184511680821785525050505050509050019150506040516020818303038152906040526040518082805190602001908083835b6020831015156110565780518252602082019150602081019050602083039250611031565b6001836020036101000a038019825116818451168082178552505050505050905001915050604051809103902060019004815260200190815260200160002060009054906101000a900460ff1660ff161415156110b257600080fd5b838160400181905250818160e0019073ffffffffffffffffffffffffffffffffffffffff16908173ffffffffffffffffffffffffffffffffffffffff1681525050828160800181815250508060086000866040516020018082805190602001908083835b60208310151561113b5780518252602082019150602081019050602083039250611116565b6001836020036101000a0380198251168184511680821785525050505050509050019150506040516020818303038152906040526040518082805190602001908083835b6020831015156111a4578051825260208201915060208101905060208303925061117f565b6001836020036101000a0380198251168184511680821785525050505050509050019150506040518091039020600190048152602001908152602001600020600082015181600201556020820151816003015560408201518160040190805190602001906112139291906117ad565b50606082015181600501556080820151816006015560a08201518160070160006101000a81548173ffffffffffffffffffffffffffffffffffffffff021916908373ffffffffffffffffffffffffffffffffffffffff16021790555060c08201518160080160006101000a81548173ffffffffffffffffffffffffffffffffffffffff021916908373ffffffffffffffffffffffffffffffffffffffff16021790555060e08201518160090160006101000a81548173ffffffffffffffffffffffffffffffffffffffff021916908373ffffffffffffffffffffffffffffffffffffffff160217905550905050611316600160025461076790919063ffffffff16565b600281905550838261132661182d565b80806020018373ffffffffffffffffffffffffffffffffffffffff1673ffffffffffffffffffffffffffffffffffffffff168152602001828103825284818151815260200191508051906020019080838360005b8381101561139557808201518184015260208101905061137a565b50505050905090810190601f1680156113c25780820380516001836020036101000a031916815260200191505b509350505050604051809103906000f0801580156113e4573d6000803e3d6000fd5b508160c0019073ffffffffffffffffffffffffffffffffffffffff16908173ffffffffffffffffffffffffffffffffffffffff1681525050600160066000866040516020018082805190602001908083835b60208310151561145b5780518252602082019150602081019050602083039250611436565b6001836020036101000a0380198251168184511680821785525050505050509050019150506040516020818303038152906040526040518082805190602001908083835b6020831015156114c4578051825260208201915060208101905060208303925061149f565b6001836020036101000a038019825116818451168082178552505050505050905001915050604051809103902060019004815260200190815260200160002060006101000a81548160ff021916908360ff1602179055508060c0015160076000866040516020018082805190602001908083835b60208310151561155d5780518252602082019150602081019050602083039250611538565b6001836020036101000a0380198251168184511680821785525050505050509050019150506040516020818303038152906040526040518082805190602001908083835b6020831015156115c657805182526020820191506020810190506020830392506115a1565b6001836020036101000a038019825116818451168082178552505050505050905001915050604051809103902060019004815260200190815260200160002060006101000a81548173ffffffffffffffffffffffffffffffffffffffff021916908373ffffffffffffffffffffffffffffffffffffffff1602179055508173ffffffffffffffffffffffffffffffffffffffff167fc1490e357730c1a879f6dde9e035b50deef91f0b7521ef58d59d50b46683ca1385856040518080602001838152602001828103825284818151815260200191508051906020019080838360005b838110156116c35780820151818401526020810190506116a8565b50505050905090810190601f1680156116f05780820380516001836020036101000a031916815260200191505b50935050505060405180910390a250505050565b60008083831115151561171657600080fd5b82840390508091505092915050565b610100604051908101604052806000815260200160008152602001606081526020016000815260200160008152602001600073ffffffffffffffffffffffffffffffffffffffff168152602001600073ffffffffffffffffffffffffffffffffffffffff168152602001600073ffffffffffffffffffffffffffffffffffffffff1681525090565b828054600181600116156101000203166002900490600052602060002090601f016020900481019282601f106117ee57805160ff191683800117855561181c565b8280016001018555821561181c579182015b8281111561181b578251825591602001919060010190611800565b5b509050611829919061183d565b5090565b6040516103e68061186383390190565b61185f91905b8082111561185b576000816000905550600101611843565b5090565b905600608060405234801561001057600080fd5b506040516103e63803806103e68339810180604052810190808051820192919060200180519060200190929190505050816000908051906020019061005692919061009f565b5080600160006101000a81548173ffffffffffffffffffffffffffffffffffffffff021916908373ffffffffffffffffffffffffffffffffffffffff1602179055505050610144565b828054600181600116156101000203166002900490600052602060002090601f016020900481019282601f106100e057805160ff191683800117855561010e565b8280016001018555821561010e579182015b8281111561010d5782518255916020019190600101906100f2565b5b50905061011b919061011f565b5090565b61014191905b8082111561013d576000816000905550600101610125565b5090565b90565b610293806101536000396000f30060806040526004361061004c576000357c0100000000000000000000000000000000000000000000000000000000900463ffffffff1680630f657b4314610051578063efe4fe021461007c575b600080fd5b34801561005d57600080fd5b506100666100fd565b6040518082815260200191505060405180910390f35b34801561008857600080fd5b506100e3600480360381019080803590602001908201803590602001908080601f016020809104026020016040519081016040528093929190818152602001838380828437820191505050505050919291929050505061011c565b604051808215151515815260200191505060405180910390f35b60003073ffffffffffffffffffffffffffffffffffffffff1631905090565b6000600160009054906101000a900473ffffffffffffffffffffffffffffffffffffffff1673ffffffffffffffffffffffffffffffffffffffff163373ffffffffffffffffffffffffffffffffffffffff1614151561017a57600080fd5b60028290806001815401808255809150509060018203906000526020600020016000909192909190915090805190602001906101b79291906101c2565b505060019050919050565b828054600181600116156101000203166002900490600052602060002090601f016020900481019282601f1061020357805160ff1916838001178555610231565b82800160010185558215610231579182015b82811115610230578251825591602001919060010190610215565b5b50905061023e9190610242565b5090565b61026491905b80821115610260576000816000905550600101610248565b5090565b905600a165627a7a72305820026dd2eee08e8e323ea80fcaa705dc46c4d683d1d32c51f73f720a13bc3025a40029a165627a7a72305820a6eb955fdd2ea7df184b18fee6acdd1ebc452f8a238cf205f331118c428bb7790029",
  "source": "pragma solidity ^0.4.24;\n\nimport \"./SafeMath.sol\";\nimport \"./OrgContract.sol\";\n\ncontract Charity{\n    //TODO: Implement Ownable.sol\n    using SafeMath for uint;\n\n    address private owner;\n    //uint public totalDonations;\n    uint public multipurposeBalance;\n    uint public missionCounter;\n    //uint comments;\n    event debugger(string test, address addr);\n\n    modifier isOwner{\n        require(msg.sender == owner);\n        _;\n    }\n\n    event Donated(address indexed from, uint amount, string organization);\n    event Given(uint amount, string organization);\n    event CreatedMission(string org, uint fundGoal, address indexed orgHead);\n    event AddedFundGoal(string org, uint fundGoal);\n\n    constructor() public{\n        //TODO add balance\n        owner = msg.sender;\n    }\n\n\n    //@dev map to store if address has donated or not\n    mapping(address=>uint8) public donors;\n\n    //@dev mapping to store donor's current org choice\n    mapping(address=>uint) public donorChoice;\n    //@dev mapping to store donor's current donation amount\n    mapping(address=>uint) public donorAmount;\n\n    //@dev mapping to avoid creating duplicate missions\n    mapping(uint=>uint8) public existingMissions;\n\n    //@dev mapping to store all addresses of created orgContracts\n    mapping(uint=>address) public missionAddresses;\n\n    // @dev struct to store collection of donations given to one organization\n    // and store its Impact\n    struct Mission{\n        //TODO get Contributor amount\n        mapping(address => uint8) contributors;\n        mapping(address => uint) addressDonations;\n        uint contributorCount; //address[] contributors;\n        uint amountDonated; //total amount donated disregarding \"givebacks\"\n        string organization;\n        uint date;\n        uint fundGoal;\n        address requester;\n        OrgContract orgContract;\n        address orgHead; //head of organization\n        //address orgAddr;\n\n    }\n\n    //mapping(string => Mission) missions;\n    mapping(uint => Mission) public missions;\n\n    //@dev fallback for any donation received, used for multipurpose balance\n    //TODO check if fallback should be removed\n    function() payable public{\n        multipurposeBalance = multipurposeBalance.add(msg.value);\n        donors[msg.sender] = 1;\n        emit Donated(msg.sender, msg.value, \"fallback\");\n    }\n\n    //@dev allows owner to create new mission with org name\n    function createMission(string _organization, uint _fundGoal, address _orgHead)\n      isOwner public{\n        //prevent user from \"shooting themselves in foot\" by creating duplicate\n        //missions\n        require(existingMissions[uint(keccak256(abi.encodePacked(_organization)))] == 0);\n        Mission memory mission;\n        mission.organization = _organization;\n        mission.orgHead = _orgHead;\n        //mission.receiver = recAddress;\n        //setting fundGoal to ether\n        //uint oneEther = 1 ether;\n        //_fundGoal = _fundGoal * oneEther;\n        mission.fundGoal = _fundGoal;\n        missions[uint(keccak256(abi.encodePacked(_organization)))] = mission;\n        missionCounter = missionCounter.add(1);\n\n        //Creating new address for the org\n        mission.orgContract = new OrgContract(_organization, _orgHead);\n        //mission.orgAddr = new OrgContract(_organization, _orgHead);\n        //mission.orgAddr = address(mission.orgContract);\n        //set existingMissions to 1;\n        existingMissions[uint(keccak256(abi.encodePacked(_organization)))] = 1;\n        missionAddresses[uint(keccak256(abi.encodePacked(_organization)))] = mission.orgContract;\n\n        emit CreatedMission(_organization, _fundGoal, _orgHead);\n    }\n\n    //@dev owner distributes specific mission's amount\n    //@dev removed address to argument\n    function giveBack(string org, uint amount)\n      isOwner public{\n        Mission storage mission = missions[uint(keccak256(abi.encodePacked(org)))];\n        require(mission.contributorCount != 0x0);\n        //require(mission.availableAmount > amount);\n        require(address(this).balance >= amount);\n        address(mission.orgContract).transfer(amount);\n        //to.transfer(amount);\n        //mission.availableAmount = mission.availableAmount.sub(amount);\n        emit Given(amount, org);\n    }\n\n\n    //@dev allow owner to change fundGoal for mission\n    function addFundGoal(string _org, uint _fundGoal)\n      isOwner public returns(uint){\n       Mission storage mission = missions[uint(keccak256(abi.encodePacked(_org)))];\n       mission.fundGoal = mission.fundGoal.add(_fundGoal);\n       emit AddedFundGoal(_org, _fundGoal);\n       return mission.fundGoal;\n    }\n\n    function getBalance()\n      view public returns(uint){\n        return address(this).balance;\n    }\n\n    /*function getGenericDonations() view public returns(uint){\n      return multipurposeBalance;\n    }*/\n\n    //@dev returns amount needed to reach the fund goal\n    function donationsToFundGoal(string _org)\n      public view returns(uint){\n      Mission storage mission = missions[uint(keccak256(abi.encodePacked(_org)))];\n      return (mission.fundGoal.sub(mission.amountDonated));\n    }\n\n\n}\n",
  "sourcePath": "/Users/hazemtabbaa/Desktop/Other/give-back/contracts/Charity.sol",
  "compiler": {
    "name": "solc",
    "version": "0.4.24+commit.e67f0147.Emscripten.clang"
  },
  "schemaVersion": "2.0.1",
  "updatedAt": "2018-11-25T20:50:51.524Z"
}