{
  "contractName": "Charity",
  "abi": [
    {
      "constant": true,
      "inputs": [],
      "name": "missionCounter",
      "outputs": [
        {
          "name": "",
          "type": "uint256"
        }
      ],
      "payable": false,
      "stateMutability": "view",
      "type": "function"
    },
    {
      "constant": true,
      "inputs": [],
      "name": "multipurposeBalance",
      "outputs": [
        {
          "name": "",
          "type": "uint256"
        }
      ],
      "payable": false,
      "stateMutability": "view",
      "type": "function"
    },
    {
      "inputs": [],
      "payable": false,
      "stateMutability": "nonpayable",
      "type": "constructor"
    },
    {
      "payable": true,
      "stateMutability": "payable",
      "type": "fallback"
    },
    {
      "anonymous": false,
      "inputs": [
        {
          "indexed": false,
          "name": "test",
          "type": "string"
        },
        {
          "indexed": false,
          "name": "addr",
          "type": "address"
        }
      ],
      "name": "debugger",
      "type": "event"
    },
    {
      "anonymous": false,
      "inputs": [
        {
          "indexed": true,
          "name": "from",
          "type": "address"
        },
        {
          "indexed": false,
          "name": "amount",
          "type": "uint256"
        },
        {
          "indexed": false,
          "name": "organization",
          "type": "bytes32"
        }
      ],
      "name": "Donated",
      "type": "event"
    },
    {
      "anonymous": false,
      "inputs": [
        {
          "indexed": false,
          "name": "amount",
          "type": "uint256"
        },
        {
          "indexed": false,
          "name": "organization",
          "type": "bytes32"
        }
      ],
      "name": "Given",
      "type": "event"
    },
    {
      "anonymous": false,
      "inputs": [
        {
          "indexed": false,
          "name": "org",
          "type": "bytes32"
        },
        {
          "indexed": false,
          "name": "fundGoal",
          "type": "uint256"
        },
        {
          "indexed": true,
          "name": "orgHead",
          "type": "address"
        }
      ],
      "name": "CreatedMission",
      "type": "event"
    },
    {
      "anonymous": false,
      "inputs": [
        {
          "indexed": false,
          "name": "org",
          "type": "bytes32"
        },
        {
          "indexed": false,
          "name": "fundGoal",
          "type": "uint256"
        }
      ],
      "name": "AddedFundGoal",
      "type": "event"
    },
    {
      "constant": false,
      "inputs": [
        {
          "name": "_organization",
          "type": "bytes32"
        },
        {
          "name": "_fundGoal",
          "type": "uint256"
        },
        {
          "name": "_orgHead",
          "type": "address"
        }
      ],
      "name": "createMission",
      "outputs": [],
      "payable": false,
      "stateMutability": "nonpayable",
      "type": "function"
    },
    {
      "constant": false,
      "inputs": [
        {
          "name": "org",
          "type": "bytes32"
        },
        {
          "name": "amount",
          "type": "uint256"
        }
      ],
      "name": "giveBack",
      "outputs": [],
      "payable": false,
      "stateMutability": "nonpayable",
      "type": "function"
    },
    {
      "constant": false,
      "inputs": [
        {
          "name": "_org",
          "type": "bytes32"
        },
        {
          "name": "_fundGoal",
          "type": "uint256"
        }
      ],
      "name": "addFundGoal",
      "outputs": [
        {
          "name": "",
          "type": "uint256"
        }
      ],
      "payable": false,
      "stateMutability": "nonpayable",
      "type": "function"
    },
    {
      "constant": true,
      "inputs": [],
      "name": "getBalance",
      "outputs": [
        {
          "name": "",
          "type": "uint256"
        }
      ],
      "payable": false,
      "stateMutability": "view",
      "type": "function"
    },
    {
      "constant": true,
      "inputs": [
        {
          "name": "_org",
          "type": "bytes32"
        }
      ],
      "name": "donationsToFundGoal",
      "outputs": [
        {
          "name": "",
          "type": "uint256"
        }
      ],
      "payable": false,
      "stateMutability": "view",
      "type": "function"
    }
  ],
  "bytecode": "0x608060405234801561001057600080fd5b50336000806101000a81548173ffffffffffffffffffffffffffffffffffffffff021916908373ffffffffffffffffffffffffffffffffffffffff160217905550610d47806100606000396000f300608060405260043610610083576000357c0100000000000000000000000000000000000000000000000000000000900463ffffffff16806312065fe01461016f5780634f1eee5d1461019a57806385c821c9146101e9578063aaa8264614610244578063b27634551461027f578063dcd4491b146102aa578063feea9c1e146102d5575b6100983460015461031a90919063ffffffff16565b6001819055506001600360003373ffffffffffffffffffffffffffffffffffffffff1673ffffffffffffffffffffffffffffffffffffffff16815260200190815260200160002060006101000a81548160ff021916908360ff1602179055503373ffffffffffffffffffffffffffffffffffffffff167fbc02934a0cf9f160b8ad7ed695fea352347a8773ceebb1be559f1671fa95ab263460405180828152602001807f66616c6c6261636b00000000000000000000000000000000000000000000000081525060200191505060405180910390a2005b34801561017b57600080fd5b5061018461033b565b6040518082815260200191505060405180910390f35b3480156101a657600080fd5b506101d360048036038101908080356000191690602001909291908035906020019092919050505061035a565b6040518082815260200191505060405180910390f35b3480156101f557600080fd5b50610242600480360381019080803560001916906020019092919080359060200190929190803573ffffffffffffffffffffffffffffffffffffffff169060200190929190505050610449565b005b34801561025057600080fd5b5061027d600480360381019080803560001916906020019092919080359060200190929190505050610845565b005b34801561028b57600080fd5b506102946109b0565b6040518082815260200191505060405180910390f35b3480156102b657600080fd5b506102bf6109b6565b6040518082815260200191505060405180910390f35b3480156102e157600080fd5b5061030460048036038101908080356000191690602001909291905050506109bc565b6040518082815260200191505060405180910390f35b600080828401905083811015151561033157600080fd5b8091505092915050565b60003073ffffffffffffffffffffffffffffffffffffffff1631905090565b6000806000809054906101000a900473ffffffffffffffffffffffffffffffffffffffff1673ffffffffffffffffffffffffffffffffffffffff163373ffffffffffffffffffffffffffffffffffffffff161415156103b857600080fd5b60056000856000191660001916815260200190815260200160002090506103ec83826006015461031a90919063ffffffff16565b81600601819055507f4362d55d2745960dcd43237eba18f487245e4fa656b535d9ae11ef9a3ec250f084846040518083600019166000191681526020018281526020019250505060405180910390a1806006015491505092915050565b610451610a20565b6000809054906101000a900473ffffffffffffffffffffffffffffffffffffffff1673ffffffffffffffffffffffffffffffffffffffff163373ffffffffffffffffffffffffffffffffffffffff161415156104ac57600080fd5b600060046000866000191660001916815260200190815260200160002060009054906101000a900460ff1660ff161415156104e657600080fd5b8381604001906000191690816000191681525050818160e0019073ffffffffffffffffffffffffffffffffffffffff16908173ffffffffffffffffffffffffffffffffffffffff16815250508281608001818152505080600560008660001916600019168152602001908152602001600020600082015181600201556020820151816003015560408201518160040190600019169055606082015181600501556080820151816006015560a08201518160070160006101000a81548173ffffffffffffffffffffffffffffffffffffffff021916908373ffffffffffffffffffffffffffffffffffffffff16021790555060c08201518160080160006101000a81548173ffffffffffffffffffffffffffffffffffffffff021916908373ffffffffffffffffffffffffffffffffffffffff16021790555060e08201518160090160006101000a81548173ffffffffffffffffffffffffffffffffffffffff021916908373ffffffffffffffffffffffffffffffffffffffff16021790555061010082015181600a0160006101000a81548173ffffffffffffffffffffffffffffffffffffffff021916908373ffffffffffffffffffffffffffffffffffffffff1602179055509050506106c6600160025461031a90919063ffffffff16565b60028190555083826106d6610ac8565b8083600019166000191681526020018273ffffffffffffffffffffffffffffffffffffffff1673ffffffffffffffffffffffffffffffffffffffff16815260200192505050604051809103906000f080158015610737573d6000803e3d6000fd5b508160c0019073ffffffffffffffffffffffffffffffffffffffff16908173ffffffffffffffffffffffffffffffffffffffff16815250508060c0015181610100019073ffffffffffffffffffffffffffffffffffffffff16908173ffffffffffffffffffffffffffffffffffffffff1681525050600160046000866000191660001916815260200190815260200160002060006101000a81548160ff021916908360ff1602179055508173ffffffffffffffffffffffffffffffffffffffff167f35ef2fd21f575862a3a2beaa346f58e665fbc1ed21f97b7340f6573cc0b66bda85856040518083600019166000191681526020018281526020019250505060405180910390a250505050565b60008060009054906101000a900473ffffffffffffffffffffffffffffffffffffffff1673ffffffffffffffffffffffffffffffffffffffff163373ffffffffffffffffffffffffffffffffffffffff161415156108a257600080fd5b600560008460001916600019168152602001908152602001600020905060008160020154141515156108d357600080fd5b813073ffffffffffffffffffffffffffffffffffffffff1631101515156108f957600080fd5b8060080160009054906101000a900473ffffffffffffffffffffffffffffffffffffffff1673ffffffffffffffffffffffffffffffffffffffff166108fc839081150290604051600060405180830381858888f19350505050158015610963573d6000803e3d6000fd5b507fa260c3f60d9a4752427da29431394291a9dd7506b4a9e700fc1b436c15421a4882846040518083815260200182600019166000191681526020019250505060405180910390a1505050565b60025481565b60015481565b60008060056000846000191660001916815260200190815260200160002090506109f7816003015482600601546109ff90919063ffffffff16565b915050919050565b600080838311151515610a1157600080fd5b82840390508091505092915050565b610120604051908101604052806000815260200160008152602001600080191681526020016000815260200160008152602001600073ffffffffffffffffffffffffffffffffffffffff168152602001600073ffffffffffffffffffffffffffffffffffffffff168152602001600073ffffffffffffffffffffffffffffffffffffffff168152602001600073ffffffffffffffffffffffffffffffffffffffff1681525090565b60405161024380610ad9833901905600608060405234801561001057600080fd5b506040516040806102438339810180604052810190808051906020019092919080519060200190929190505050816000816000191690555080600160006101000a81548173ffffffffffffffffffffffffffffffffffffffff021916908373ffffffffffffffffffffffffffffffffffffffff16021790555050506101a98061009a6000396000f30060806040526004361061004c576000357c0100000000000000000000000000000000000000000000000000000000900463ffffffff1680630f657b43146100515780635c560b911461007c575b600080fd5b34801561005d57600080fd5b506100666100c5565b6040518082815260200191505060405180910390f35b34801561008857600080fd5b506100ab60048036038101908080356000191690602001909291905050506100e4565b604051808215151515815260200191505060405180910390f35b60003073ffffffffffffffffffffffffffffffffffffffff1631905090565b6000600160009054906101000a900473ffffffffffffffffffffffffffffffffffffffff1673ffffffffffffffffffffffffffffffffffffffff163373ffffffffffffffffffffffffffffffffffffffff1614151561014257600080fd5b6002829080600181540180825580915050906001820390600052602060002001600090919290919091509060001916905550600190509190505600a165627a7a723058200fbae7da372a95d0f558febb0f17c1abd0d656dc9dbf8037895bc7c22140161d0029a165627a7a723058208c061492653b19980cec90ad948388b121423d092907098b672b466a6aad333d0029",
  "source": "pragma solidity ^0.4.24;\n\nimport \"./SafeMath.sol\";\nimport \"./OrgContract.sol\";\n\ncontract Charity{\n    using SafeMath for uint;\n\n    address private owner;\n    //uint public totalDonations;\n    uint public multipurposeBalance;\n    uint public missionCounter;\n    //uint comments;\n    event debugger(string test, address addr);\n\n    modifier isOwner{\n        require(msg.sender == owner);\n        _;\n    }\n\n    event Donated(address indexed from, uint amount, bytes32 organization);\n    event Given(uint amount, bytes32 organization);\n    event CreatedMission(bytes32 org, uint fundGoal, address indexed orgHead);\n    event AddedFundGoal(bytes32 org, uint fundGoal);\n\n    constructor() public{\n        //TODO add balance\n        owner = msg.sender;\n    }\n\n\n    //@dev map to store if address has donated or not\n    mapping(address=>uint8) donors;\n\n    //@dev mapping to avoid creating duplicate missions\n    mapping(bytes32=>uint8) existingMissions;\n\n    // @dev struct to store collection of donations given to one organization\n    // and store its Impact\n    struct Mission{\n        //TODO get Contributor amount\n        mapping(address => uint8) contributors;\n        mapping(address => uint) addressDonations;\n        uint contributorCount; //address[] contributors;\n        uint amountDonated; //total amount donated disregarding \"givebacks\"\n        bytes32 organization;\n        uint date;\n        uint fundGoal;\n        address requester;\n        OrgContract orgContract;\n        address orgHead; //head of organization\n        address orgAddr;\n\n    }\n\n    //mapping(string => Mission) missions;\n    mapping(bytes32 => Mission) missions;\n\n    //@dev fallback for any donation received, used for multipurpose balance\n    //TODO check if fallback should be removed\n    function() payable public{\n        multipurposeBalance = multipurposeBalance.add(msg.value);\n        donors[msg.sender] = 1;\n        emit Donated(msg.sender, msg.value, \"fallback\");\n    }\n\n    //@dev allows owner to create new mission with org name\n    function createMission(bytes32 _organization, uint _fundGoal, address _orgHead)\n      isOwner public{\n        //prevent user from \"shooting themselves in foot\" by creating duplicate\n        //missions\n        require(existingMissions[_organization] == 0);\n        Mission memory mission;\n        mission.organization = _organization;\n        mission.orgHead = _orgHead;\n        //mission.receiver = recAddress;\n        //setting fundGoal to ether\n        //uint oneEther = 1 ether;\n        //_fundGoal = _fundGoal * oneEther;\n        mission.fundGoal = _fundGoal;\n        missions[_organization] = mission;\n        missionCounter = missionCounter.add(1);\n\n        //Creating new address for the org\n        mission.orgContract = new OrgContract(_organization, _orgHead);\n        //mission.orgAddr = new OrgContract(_organization, _orgHead);\n        mission.orgAddr = address(mission.orgContract);\n        //set existingMissions to 1;\n        existingMissions[_organization] = 1;\n\n\n        emit CreatedMission(_organization, _fundGoal, _orgHead);\n    }\n\n    //@dev owner distributes specific mission's amount\n    //@dev removed address to argument\n    function giveBack(bytes32 org, uint amount)\n      isOwner public{\n        Mission storage mission = missions[org];\n        require(mission.contributorCount != 0x0);\n        //require(mission.availableAmount > amount);\n        require(address(this).balance >= amount);\n        address(mission.orgContract).transfer(amount);\n        //to.transfer(amount);\n        //mission.availableAmount = mission.availableAmount.sub(amount);\n        emit Given(amount, org);\n    }\n\n\n    //@dev allow owner to change fundGoal for mission\n    function addFundGoal(bytes32 _org, uint _fundGoal)\n      isOwner public returns(uint){\n       Mission storage mission = missions[_org];\n       mission.fundGoal = mission.fundGoal.add(_fundGoal);\n       emit AddedFundGoal(_org, _fundGoal);\n       return mission.fundGoal;\n    }\n\n    function getBalance()\n      view public returns(uint){\n        return address(this).balance;\n    }\n\n    /*function getGenericDonations() view public returns(uint){\n      return multipurposeBalance;\n    }*/\n\n    //@dev returns amount needed to reach the fund goal\n    function donationsToFundGoal(bytes32 _org)\n      public view returns(uint){\n      Mission storage mission = missions[_org];\n      return (mission.fundGoal.sub(mission.amountDonated));\n    }\n\n\n}\n",
  "sourcePath": "/Users/hazemtabbaa/Desktop/Other/give-back/contracts/Charity.sol",
  "compiler": {
    "name": "solc",
    "version": "0.4.24+commit.e67f0147.Emscripten.clang"
  },
  "schemaVersion": "2.0.1",
  "updatedAt": "2018-11-11T03:20:16.154Z"
}