{
  "contractName": "Contributions",
  "abi": [
    {
      "constant": true,
      "inputs": [],
      "name": "getBalance",
      "outputs": [
        {
          "name": "",
          "type": "uint256"
        }
      ],
      "payable": false,
      "stateMutability": "view",
      "type": "function"
    },
    {
      "constant": false,
      "inputs": [
        {
          "name": "org",
          "type": "string"
        },
        {
          "name": "amount",
          "type": "uint256"
        }
      ],
      "name": "giveBack",
      "outputs": [],
      "payable": false,
      "stateMutability": "nonpayable",
      "type": "function"
    },
    {
      "constant": true,
      "inputs": [
        {
          "name": "_org",
          "type": "string"
        }
      ],
      "name": "donationsToFundGoal",
      "outputs": [
        {
          "name": "",
          "type": "uint256"
        }
      ],
      "payable": false,
      "stateMutability": "view",
      "type": "function"
    },
    {
      "constant": false,
      "inputs": [
        {
          "name": "_org",
          "type": "string"
        },
        {
          "name": "_fundGoal",
          "type": "uint256"
        }
      ],
      "name": "addFundGoal",
      "outputs": [
        {
          "name": "",
          "type": "uint256"
        }
      ],
      "payable": false,
      "stateMutability": "nonpayable",
      "type": "function"
    },
    {
      "constant": true,
      "inputs": [],
      "name": "missionCounter",
      "outputs": [
        {
          "name": "",
          "type": "uint256"
        }
      ],
      "payable": false,
      "stateMutability": "view",
      "type": "function"
    },
    {
      "constant": true,
      "inputs": [],
      "name": "multipurposeBalance",
      "outputs": [
        {
          "name": "",
          "type": "uint256"
        }
      ],
      "payable": false,
      "stateMutability": "view",
      "type": "function"
    },
    {
      "constant": false,
      "inputs": [
        {
          "name": "_organization",
          "type": "string"
        },
        {
          "name": "_fundGoal",
          "type": "uint256"
        },
        {
          "name": "_orgHead",
          "type": "address"
        }
      ],
      "name": "createMission",
      "outputs": [],
      "payable": false,
      "stateMutability": "nonpayable",
      "type": "function"
    },
    {
      "payable": true,
      "stateMutability": "payable",
      "type": "fallback"
    },
    {
      "anonymous": false,
      "inputs": [
        {
          "indexed": true,
          "name": "from",
          "type": "address"
        },
        {
          "indexed": false,
          "name": "org",
          "type": "string"
        }
      ],
      "name": "Request",
      "type": "event"
    },
    {
      "anonymous": false,
      "inputs": [
        {
          "indexed": false,
          "name": "org",
          "type": "string"
        }
      ],
      "name": "Approve",
      "type": "event"
    },
    {
      "anonymous": false,
      "inputs": [
        {
          "indexed": false,
          "name": "debug",
          "type": "string"
        },
        {
          "indexed": false,
          "name": "addr",
          "type": "address"
        },
        {
          "indexed": false,
          "name": "val2",
          "type": "uint256"
        }
      ],
      "name": "Debug",
      "type": "event"
    },
    {
      "anonymous": false,
      "inputs": [
        {
          "indexed": true,
          "name": "from",
          "type": "address"
        },
        {
          "indexed": false,
          "name": "amount",
          "type": "uint256"
        },
        {
          "indexed": false,
          "name": "organization",
          "type": "string"
        }
      ],
      "name": "Donated",
      "type": "event"
    },
    {
      "anonymous": false,
      "inputs": [
        {
          "indexed": false,
          "name": "amount",
          "type": "uint256"
        },
        {
          "indexed": false,
          "name": "organization",
          "type": "string"
        }
      ],
      "name": "Given",
      "type": "event"
    },
    {
      "anonymous": false,
      "inputs": [
        {
          "indexed": false,
          "name": "org",
          "type": "string"
        },
        {
          "indexed": false,
          "name": "fundGoal",
          "type": "uint256"
        },
        {
          "indexed": true,
          "name": "orgHead",
          "type": "address"
        }
      ],
      "name": "CreatedMission",
      "type": "event"
    },
    {
      "anonymous": false,
      "inputs": [
        {
          "indexed": false,
          "name": "org",
          "type": "string"
        },
        {
          "indexed": false,
          "name": "fundGoal",
          "type": "uint256"
        }
      ],
      "name": "AddedFundGoal",
      "type": "event"
    },
    {
      "constant": false,
      "inputs": [
        {
          "name": "org",
          "type": "string"
        }
      ],
      "name": "requestMission",
      "outputs": [],
      "payable": false,
      "stateMutability": "nonpayable",
      "type": "function"
    },
    {
      "constant": false,
      "inputs": [
        {
          "name": "org",
          "type": "string"
        },
        {
          "name": "_fundGoal",
          "type": "uint256"
        },
        {
          "name": "_orgHead",
          "type": "address"
        }
      ],
      "name": "approveRequest",
      "outputs": [],
      "payable": false,
      "stateMutability": "nonpayable",
      "type": "function"
    },
    {
      "constant": false,
      "inputs": [
        {
          "name": "org",
          "type": "string"
        }
      ],
      "name": "donate",
      "outputs": [],
      "payable": true,
      "stateMutability": "payable",
      "type": "function"
    },
    {
      "constant": false,
      "inputs": [],
      "name": "genericDonation",
      "outputs": [],
      "payable": true,
      "stateMutability": "payable",
      "type": "function"
    },
    {
      "constant": true,
      "inputs": [
        {
          "name": "org",
          "type": "string"
        }
      ],
      "name": "getMissionBalance",
      "outputs": [
        {
          "name": "",
          "type": "uint256"
        }
      ],
      "payable": false,
      "stateMutability": "view",
      "type": "function"
    },
    {
      "constant": true,
      "inputs": [
        {
          "name": "org",
          "type": "string"
        }
      ],
      "name": "getMissionTotalDonations",
      "outputs": [
        {
          "name": "",
          "type": "uint256"
        }
      ],
      "payable": false,
      "stateMutability": "view",
      "type": "function"
    }
  ],
  "bytecode": "0x6080604052336000806101000a81548173ffffffffffffffffffffffffffffffffffffffff021916908373ffffffffffffffffffffffffffffffffffffffff1602179055506120cb806100536000396000f3006080604052600436106100c5576000357c0100000000000000000000000000000000000000000000000000000000900463ffffffff16806312065fe0146101c2578063167595ee146101ed5780631a0f74fc146102605780631b49df65146102dd57806334f5ca6a1461035a5780633b36ceae146103d75780635815797314610440578063b2763455146104c7578063b5aebc80146104f2578063d0ef19fe1461054e578063da5504ba14610558578063dcd4491b146105eb578063fd2202ce14610616575b6100da346001546106a990919063ffffffff16565b6001819055506001600360003373ffffffffffffffffffffffffffffffffffffffff1673ffffffffffffffffffffffffffffffffffffffff16815260200190815260200160002060006101000a81548160ff021916908360ff1602179055503373ffffffffffffffffffffffffffffffffffffffff167fcf76696fec6613453db3fc8d0e87a2417d6033db7623130bae09a2d82c06813b346040518082815260200180602001828103825260088152602001807f66616c6c6261636b0000000000000000000000000000000000000000000000008152506020019250505060405180910390a2005b3480156101ce57600080fd5b506101d76106ca565b6040518082815260200191505060405180910390f35b3480156101f957600080fd5b5061025e600480360381019080803590602001908201803590602001908080601f0160208091040260200160405190810160405280939291908181526020018383808284378201915050505050509192919290803590602001909291905050506106e9565b005b34801561026c57600080fd5b506102c7600480360381019080803590602001908201803590602001908080601f0160208091040260200160405190810160405280939291908181526020018383808284378201915050505050509192919290505050610901565b6040518082815260200191505060405180910390f35b3480156102e957600080fd5b50610344600480360381019080803590602001908201803590602001908080601f0160208091040260200160405190810160405280939291908181526020018383808284378201915050505050509192919290505050610994565b6040518082815260200191505060405180910390f35b34801561036657600080fd5b506103c1600480360381019080803590602001908201803590602001908080601f0160208091040260200160405190810160405280939291908181526020018383808284378201915050505050509192919290505050610a48565b6040518082815260200191505060405180910390f35b3480156103e357600080fd5b5061043e600480360381019080803590602001908201803590602001908080601f0160208091040260200160405190810160405280939291908181526020018383808284378201915050505050509192919290505050610ad8565b005b34801561044c57600080fd5b506104b1600480360381019080803590602001908201803590602001908080601f016020809104026020016040519081016040528093929190818152602001838380828437820191505050505050919291929080359060200190929190505050610d03565b6040518082815260200191505060405180910390f35b3480156104d357600080fd5b506104dc610e9f565b6040518082815260200191505060405180910390f35b61054c600480360381019080803590602001908201803590602001908080601f0160208091040260200160405190810160405280939291908181526020018383808284378201915050505050509192919290505050610ea5565b005b6105566113aa565b005b34801561056457600080fd5b506105e9600480360381019080803590602001908201803590602001908080601f016020809104026020016040519081016040528093929190818152602001838380828437820191505050505050919291929080359060200190929190803573ffffffffffffffffffffffffffffffffffffffff1690602001909291905050506114a7565b005b3480156105f757600080fd5b5061060061161f565b6040518082815260200191505060405180910390f35b34801561062257600080fd5b506106a7600480360381019080803590602001908201803590602001908080601f016020809104026020016040519081016040528093929190818152602001838380828437820191505050505050919291929080359060200190929190803573ffffffffffffffffffffffffffffffffffffffff169060200190929190505050611625565b005b60008082840190508381101515156106c057600080fd5b8091505092915050565b60003073ffffffffffffffffffffffffffffffffffffffff1631905090565b60008060009054906101000a900473ffffffffffffffffffffffffffffffffffffffff1673ffffffffffffffffffffffffffffffffffffffff163373ffffffffffffffffffffffffffffffffffffffff1614151561074657600080fd5b6005836040518082805190602001908083835b60208310151561077e5780518252602082019150602081019050602083039250610759565b6001836020036101000a0380198251168184511680821785525050505050509050019150509081526020016040518091039020905060008160020154141515156107c757600080fd5b813073ffffffffffffffffffffffffffffffffffffffff1631101515156107ed57600080fd5b8060080160009054906101000a900473ffffffffffffffffffffffffffffffffffffffff1673ffffffffffffffffffffffffffffffffffffffff166108fc839081150290604051600060405180830381858888f19350505050158015610857573d6000803e3d6000fd5b507ff39ed54c3a63ca881695c190da1e9572ccc241c340d9f41a22677f1d90bbb43c82846040518083815260200180602001828103825283818151815260200191508051906020019080838360005b838110156108c15780820151818401526020810190506108a6565b50505050905090810190601f1680156108ee5780820380516001836020036101000a031916815260200191505b50935050505060405180910390a1505050565b6000806005836040518082805190602001908083835b60208310151561093c5780518252602082019150602081019050602083039250610917565b6001836020036101000a0380198251168184511680821785525050505050509050019150509081526020016040518091039020905061098c81600301548260060154611b5b90919063ffffffff16565b915050919050565b6000806005836040518082805190602001908083835b6020831015156109cf57805182526020820191506020810190506020830392506109aa565b6001836020036101000a038019825116818451168082178552505050505050905001915050908152602001604051809103902090508060080160009054906101000a900473ffffffffffffffffffffffffffffffffffffffff1673ffffffffffffffffffffffffffffffffffffffff1631915050919050565b6000806005836040518082805190602001908083835b602083101515610a835780518252602082019150602081019050602083039250610a5e565b6001836020036101000a0380198251168184511680821785525050505050509050019150509081526020016040518091039020905060008160030154111515610acb57600080fd5b8060030154915050919050565b60006004826040518082805190602001908083835b602083101515610b125780518252602082019150602081019050602083039250610aed565b6001836020036101000a038019825116818451168082178552505050505050905001915050908152602001604051809103902060009054906101000a900460ff1660ff16141515610b6257600080fd5b60006006826040518082805190602001908083835b602083101515610b9c5780518252602082019150602081019050602083039250610b77565b6001836020036101000a038019825116818451168082178552505050505050905001915050908152602001604051809103902054141515610bdc57600080fd5b60016006826040518082805190602001908083835b602083101515610c165780518252602082019150602081019050602083039250610bf1565b6001836020036101000a0380198251168184511680821785525050505050509050019150509081526020016040518091039020819055503373ffffffffffffffffffffffffffffffffffffffff167f9e7637d10c6f58bcf03ad632c3c3fcb88d4489674fdce2a7723c260e141ac398826040518080602001828103825283818151815260200191508051906020019080838360005b83811015610cc6578082015181840152602081019050610cab565b50505050905090810190601f168015610cf35780820380516001836020036101000a031916815260200191505b509250505060405180910390a250565b6000806000809054906101000a900473ffffffffffffffffffffffffffffffffffffffff1673ffffffffffffffffffffffffffffffffffffffff163373ffffffffffffffffffffffffffffffffffffffff16141515610d6157600080fd5b6005846040518082805190602001908083835b602083101515610d995780518252602082019150602081019050602083039250610d74565b6001836020036101000a03801982511681845116808217855250505050505090500191505090815260200160405180910390209050610de58382600601546106a990919063ffffffff16565b81600601819055507f7111d56781ecdd48151e807951a9dbe25e0bb304cbe9f2a7ae57c19c620ca64284846040518080602001838152602001828103825284818151815260200191508051906020019080838360005b83811015610e56578082015181840152602081019050610e3b565b50505050905090810190601f168015610e835780820380516001836020036101000a031916815260200191505b50935050505060405180910390a1806006015491505092915050565b60025481565b600080600080349350600034111515610ebd57600080fd5b6001600360003373ffffffffffffffffffffffffffffffffffffffff1673ffffffffffffffffffffffffffffffffffffffff16815260200190815260200160002060006101000a81548160ff021916908360ff1602179055506005856040518082805190602001908083835b602083101515610f4e5780518252602082019150602081019050602083039250610f29565b6001836020036101000a03801982511681845116808217855250505050505090500191505090815260200160405180910390209250670de0b6b3a7640000915081610fa68585600301546106a990919063ffffffff16565b0290508260080160009054906101000a900473ffffffffffffffffffffffffffffffffffffffff1673ffffffffffffffffffffffffffffffffffffffff166108fc859081150290604051600060405180830381858888f19350505050158015611013573d6000803e3d6000fd5b507fe5589756feb14fa54053633b30d9de8c8c4a3347afc5bd6efc411f7823ae87f28360080160009054906101000a900473ffffffffffffffffffffffffffffffffffffffff168460080160009054906101000a900473ffffffffffffffffffffffffffffffffffffffff1673ffffffffffffffffffffffffffffffffffffffff163160405180806020018473ffffffffffffffffffffffffffffffffffffffff1673ffffffffffffffffffffffffffffffffffffffff168152602001838152602001828103825260078152602001807f42414c414e434500000000000000000000000000000000000000000000000000815250602001935050505060405180910390a160018360000160003373ffffffffffffffffffffffffffffffffffffffff1673ffffffffffffffffffffffffffffffffffffffff16815260200190815260200160002060006101000a81548160ff021916908360ff1602179055506111c6848460010160003373ffffffffffffffffffffffffffffffffffffffff1673ffffffffffffffffffffffffffffffffffffffff168152602001908152602001600020546106a990919063ffffffff16565b8360010160003373ffffffffffffffffffffffffffffffffffffffff1673ffffffffffffffffffffffffffffffffffffffff16815260200190815260200160002081905550611223600184600201546106a990919063ffffffff16565b836002018190555042836005018190555061124b8484600301546106a990919063ffffffff16565b83600301819055506112a534600760003373ffffffffffffffffffffffffffffffffffffffff1673ffffffffffffffffffffffffffffffffffffffff168152602001908152602001600020546106a990919063ffffffff16565b600760003373ffffffffffffffffffffffffffffffffffffffff1673ffffffffffffffffffffffffffffffffffffffff168152602001908152602001600020819055503373ffffffffffffffffffffffffffffffffffffffff167fcf76696fec6613453db3fc8d0e87a2417d6033db7623130bae09a2d82c06813b85876040518083815260200180602001828103825283818151815260200191508051906020019080838360005b8381101561136857808201518184015260208101905061134d565b50505050905090810190601f1680156113955780820380516001836020036101000a031916815260200191505b50935050505060405180910390a25050505050565b6113bf346001546106a990919063ffffffff16565b6001819055506001600360003373ffffffffffffffffffffffffffffffffffffffff1673ffffffffffffffffffffffffffffffffffffffff16815260200190815260200160002060006101000a81548160ff021916908360ff1602179055503373ffffffffffffffffffffffffffffffffffffffff167fcf76696fec6613453db3fc8d0e87a2417d6033db7623130bae09a2d82c06813b346040518082815260200180602001828103825260078152602001807f67656e65726963000000000000000000000000000000000000000000000000008152506020019250505060405180910390a2565b6000809054906101000a900473ffffffffffffffffffffffffffffffffffffffff1673ffffffffffffffffffffffffffffffffffffffff163373ffffffffffffffffffffffffffffffffffffffff1614151561150257600080fd5b61150d838383611625565b60026006846040518082805190602001908083835b6020831015156115475780518252602082019150602081019050602083039250611522565b6001836020036101000a0380198251168184511680821785525050505050509050019150509081526020016040518091039020819055507fb8693ca6963890ed75ddc33a4bfb4c8c5c5fd5cb6108904d4a14fa40d0961c56836040518080602001828103825283818151815260200191508051906020019080838360005b838110156115e05780820151818401526020810190506115c5565b50505050905090810190601f16801561160d5780820380516001836020036101000a031916815260200191505b509250505060405180910390a1505050565b60015481565b61162d611b7c565b60008060009054906101000a900473ffffffffffffffffffffffffffffffffffffffff1673ffffffffffffffffffffffffffffffffffffffff163373ffffffffffffffffffffffffffffffffffffffff1614151561168a57600080fd5b60006004866040518082805190602001908083835b6020831015156116c4578051825260208201915060208101905060208303925061169f565b6001836020036101000a038019825116818451168082178552505050505050905001915050908152602001604051809103902060009054906101000a900460ff1660ff1614151561171457600080fd5b848260400181905250828260e0019073ffffffffffffffffffffffffffffffffffffffff16908173ffffffffffffffffffffffffffffffffffffffff1681525050670de0b6b3a76400009050808402935083826080018181525050816005866040518082805190602001908083835b6020831015156117a85780518252602082019150602081019050602083039250611783565b6001836020036101000a03801982511681845116808217855250505050505090500191505090815260200160405180910390206000820151816002015560208201518160030155604082015181600401908051906020019061180b929190611c04565b50606082015181600501556080820151816006015560a08201518160070160006101000a81548173ffffffffffffffffffffffffffffffffffffffff021916908373ffffffffffffffffffffffffffffffffffffffff16021790555060c08201518160080160006101000a81548173ffffffffffffffffffffffffffffffffffffffff021916908373ffffffffffffffffffffffffffffffffffffffff16021790555060e08201518160090160006101000a81548173ffffffffffffffffffffffffffffffffffffffff021916908373ffffffffffffffffffffffffffffffffffffffff16021790555090505061190e60016002546106a990919063ffffffff16565b600281905550848361191e611c84565b80806020018373ffffffffffffffffffffffffffffffffffffffff1673ffffffffffffffffffffffffffffffffffffffff168152602001828103825284818151815260200191508051906020019080838360005b8381101561198d578082015181840152602081019050611972565b50505050905090810190601f1680156119ba5780820380516001836020036101000a031916815260200191505b509350505050604051809103906000f0801580156119dc573d6000803e3d6000fd5b508260c0019073ffffffffffffffffffffffffffffffffffffffff16908173ffffffffffffffffffffffffffffffffffffffff168152505060016004866040518082805190602001908083835b602083101515611a4e5780518252602082019150602081019050602083039250611a29565b6001836020036101000a038019825116818451168082178552505050505050905001915050908152602001604051809103902060006101000a81548160ff021916908360ff1602179055508273ffffffffffffffffffffffffffffffffffffffff167fc1490e357730c1a879f6dde9e035b50deef91f0b7521ef58d59d50b46683ca1386866040518080602001838152602001828103825284818151815260200191508051906020019080838360005b83811015611b19578082015181840152602081019050611afe565b50505050905090810190601f168015611b465780820380516001836020036101000a031916815260200191505b50935050505060405180910390a25050505050565b600080838311151515611b6d57600080fd5b82840390508091505092915050565b610100604051908101604052806000815260200160008152602001606081526020016000815260200160008152602001600073ffffffffffffffffffffffffffffffffffffffff168152602001600073ffffffffffffffffffffffffffffffffffffffff168152602001600073ffffffffffffffffffffffffffffffffffffffff1681525090565b828054600181600116156101000203166002900490600052602060002090601f016020900481019282601f10611c4557805160ff1916838001178555611c73565b82800160010185558215611c73579182015b82811115611c72578251825591602001919060010190611c57565b5b509050611c809190611c94565b5090565b6040516103e680611cba83390190565b611cb691905b80821115611cb2576000816000905550600101611c9a565b5090565b905600608060405234801561001057600080fd5b506040516103e63803806103e68339810180604052810190808051820192919060200180519060200190929190505050816000908051906020019061005692919061009f565b5080600160006101000a81548173ffffffffffffffffffffffffffffffffffffffff021916908373ffffffffffffffffffffffffffffffffffffffff1602179055505050610144565b828054600181600116156101000203166002900490600052602060002090601f016020900481019282601f106100e057805160ff191683800117855561010e565b8280016001018555821561010e579182015b8281111561010d5782518255916020019190600101906100f2565b5b50905061011b919061011f565b5090565b61014191905b8082111561013d576000816000905550600101610125565b5090565b90565b610293806101536000396000f30060806040526004361061004c576000357c0100000000000000000000000000000000000000000000000000000000900463ffffffff1680630f657b4314610051578063efe4fe021461007c575b600080fd5b34801561005d57600080fd5b506100666100fd565b6040518082815260200191505060405180910390f35b34801561008857600080fd5b506100e3600480360381019080803590602001908201803590602001908080601f016020809104026020016040519081016040528093929190818152602001838380828437820191505050505050919291929050505061011c565b604051808215151515815260200191505060405180910390f35b60003073ffffffffffffffffffffffffffffffffffffffff1631905090565b6000600160009054906101000a900473ffffffffffffffffffffffffffffffffffffffff1673ffffffffffffffffffffffffffffffffffffffff163373ffffffffffffffffffffffffffffffffffffffff1614151561017a57600080fd5b60028290806001815401808255809150509060018203906000526020600020016000909192909190915090805190602001906101b79291906101c2565b505060019050919050565b828054600181600116156101000203166002900490600052602060002090601f016020900481019282601f1061020357805160ff1916838001178555610231565b82800160010185558215610231579182015b82811115610230578251825591602001919060010190610215565b5b50905061023e9190610242565b5090565b61026491905b80821115610260576000816000905550600101610248565b5090565b905600a165627a7a72305820375dd68b448b11e43069a6a24fdd269ad4b7b31ff97e3a39730313ec549c377a0029a165627a7a72305820348cf5605adadb28381f7324366640e349a84b5a4be197bf13937066ba1bca1e0029",
  "source": "pragma solidity ^0.4.24;\nimport \"./Charity.sol\";\nimport \"./SafeMath.sol\";\n\ncontract Contributions is Charity{\n    using SafeMath for uint;\n    event Request(address indexed from, string org);\n    event Approve(string org);\n\n\n    event Debug(string debug, address addr, uint val2);\n\n    //Mission[] public requested;\n    mapping(string => uint) requested;\n    //@dev map to store total contributions of specific address\n    mapping(address=>uint) donorContributions;\n\n    //@dev allows user to request a mission to be added to charity\n    //add requested mission to list of waiting for approval\n    function requestMission(string org) public{\n        //require that mission doesn't already exist\n        require(existingMissions[org] == 0);\n        //require that mission has not been already requested\n        require(requested[org] == 0 );\n        /*Mission memory pendingMission;\n        pendingMission.organization = org;\n        pendingMission.requester = msg.sender;\n        requested[org] = pendingMission;*/\n        requested[org] = 1;\n        emit Request(msg.sender, org);\n    }\n\n    //@dev allows owner to approve request for new mission\n    //delete mission from pending list\n    function approveRequest(string org, uint _fundGoal, address _orgHead)\n    isOwner public{\n        createMission(org, _fundGoal, _orgHead);\n        /*Mission storage mission = requested[org];\n        missions[org] = mission;\n        missionCounter = missionCounter.add(1);\n        mission.fundGoal = _fundGoal;*/\n        //TODO add address\n\n        //setting requested = 2 means mission already approved\n        //if requested = 0 then mission has never been requested\n        requested[org] = 2;\n        emit Approve(org);\n    }\n\n    //@dev contributors donate to their specific mission via organization name\n    //NEW AND CHANGED FUNCTIONALITY:\n    //@dev msg.value now goes directly to mission without the need for passing\n    //through the governing body\n    function donate(string org) payable public{\n        uint amount = msg.value;\n        //emit Debug(\"msgval = \", msg.value);\n        require(msg.value > 0 ether);\n        donors[msg.sender] = 1;\n        Mission storage mission = missions[org];\n        //TODO fix require:\n        //Add fundgoal function or add in instantiation otherwise donate\n        //will revert on require since fundGoal = 0\n        //emit Debug(\"after first require\", address(mission.orgContract),1);\n        uint oneEther = 1 ether;\n        uint tempAmountDonated = mission.amountDonated.add(amount) * oneEther;\n        //emit Debug(\">>>>check\", mission.fundGoal,tempAmountDonated);\n        //require(mission.fundGoal > (tempAmountDonated));\n        address(mission.orgContract).transfer(amount); //Transferring amount to org contract\n        emit Debug(\"BALANCE\", address(mission.orgContract),address(mission.orgContract).balance);\n        //mission.availableAmount = mission.availableAmount.add(amount);\n        //totalDonations = totalDonations.add(amount);\n        //mission.contributors.push(msg.sender);\n        mission.contributors[msg.sender] = 1;\n        mission.addressDonations[msg.sender] = mission.addressDonations[msg.sender].add(amount);\n        mission.contributorCount = mission.contributorCount.add(1);\n        mission.date = now;\n        mission.amountDonated = mission.amountDonated.add(amount);\n        donorContributions[msg.sender] = donorContributions[msg.sender].add(msg.value);\n        emit Donated(msg.sender, amount, org);\n    }\n\n    //@dev allow donations without specific organization\n    function genericDonation() payable public{\n      multipurposeBalance = multipurposeBalance.add(msg.value);\n      //totalDonations = totalDonations.add(msg.value);\n      donors[msg.sender] = 1;\n      emit Donated(msg.sender, msg.value, \"generic\");\n    }\n\n    //@dev return mission balance\n    function getMissionBalance(string org) public view returns(uint){\n        Mission storage mission = missions[org];\n        return address(mission.orgContract).balance;\n        //return mission.availableAmount;\n    }\n    //@dev get total amount donated since the beginning\n    // i.e. disregarding \"give-backs\"\n    function getMissionTotalDonations(string org) public view returns(uint){\n      Mission storage mission = missions[org];\n      require(mission.amountDonated > 0);\n      return mission.amountDonated;\n    }\n}\n",
  "sourcePath": "/Users/hazemtabbaa/Desktop/Other/give-back/contracts/Contributions.sol",
  "compiler": {
    "name": "solc",
    "version": "0.4.24+commit.e67f0147.Emscripten.clang"
  },
  "schemaVersion": "2.0.1",
  "updatedAt": "2018-11-08T18:45:48.646Z"
}