{
  "contractName": "Contributions",
  "abi": [
    {
      "constant": true,
      "inputs": [],
      "name": "getBalance",
      "outputs": [
        {
          "name": "",
          "type": "uint256"
        }
      ],
      "payable": false,
      "stateMutability": "view",
      "type": "function"
    },
    {
      "constant": false,
      "inputs": [
        {
          "name": "_org",
          "type": "bytes32"
        },
        {
          "name": "_fundGoal",
          "type": "uint256"
        }
      ],
      "name": "addFundGoal",
      "outputs": [
        {
          "name": "",
          "type": "uint256"
        }
      ],
      "payable": false,
      "stateMutability": "nonpayable",
      "type": "function"
    },
    {
      "constant": false,
      "inputs": [
        {
          "name": "_organization",
          "type": "bytes32"
        },
        {
          "name": "_fundGoal",
          "type": "uint256"
        },
        {
          "name": "_orgHead",
          "type": "address"
        }
      ],
      "name": "createMission",
      "outputs": [],
      "payable": false,
      "stateMutability": "nonpayable",
      "type": "function"
    },
    {
      "constant": false,
      "inputs": [
        {
          "name": "org",
          "type": "bytes32"
        },
        {
          "name": "amount",
          "type": "uint256"
        }
      ],
      "name": "giveBack",
      "outputs": [],
      "payable": false,
      "stateMutability": "nonpayable",
      "type": "function"
    },
    {
      "constant": true,
      "inputs": [],
      "name": "missionCounter",
      "outputs": [
        {
          "name": "",
          "type": "uint256"
        }
      ],
      "payable": false,
      "stateMutability": "view",
      "type": "function"
    },
    {
      "constant": true,
      "inputs": [],
      "name": "multipurposeBalance",
      "outputs": [
        {
          "name": "",
          "type": "uint256"
        }
      ],
      "payable": false,
      "stateMutability": "view",
      "type": "function"
    },
    {
      "constant": true,
      "inputs": [
        {
          "name": "_org",
          "type": "bytes32"
        }
      ],
      "name": "donationsToFundGoal",
      "outputs": [
        {
          "name": "",
          "type": "uint256"
        }
      ],
      "payable": false,
      "stateMutability": "view",
      "type": "function"
    },
    {
      "payable": true,
      "stateMutability": "payable",
      "type": "fallback"
    },
    {
      "anonymous": false,
      "inputs": [
        {
          "indexed": true,
          "name": "from",
          "type": "address"
        },
        {
          "indexed": false,
          "name": "org",
          "type": "bytes32"
        }
      ],
      "name": "Request",
      "type": "event"
    },
    {
      "anonymous": false,
      "inputs": [
        {
          "indexed": false,
          "name": "org",
          "type": "bytes32"
        }
      ],
      "name": "Approve",
      "type": "event"
    },
    {
      "anonymous": false,
      "inputs": [
        {
          "indexed": false,
          "name": "debug",
          "type": "bytes32"
        },
        {
          "indexed": false,
          "name": "addr",
          "type": "address"
        },
        {
          "indexed": false,
          "name": "val2",
          "type": "uint256"
        }
      ],
      "name": "Debug",
      "type": "event"
    },
    {
      "anonymous": false,
      "inputs": [
        {
          "indexed": false,
          "name": "test",
          "type": "string"
        },
        {
          "indexed": false,
          "name": "addr",
          "type": "address"
        }
      ],
      "name": "debugger",
      "type": "event"
    },
    {
      "anonymous": false,
      "inputs": [
        {
          "indexed": true,
          "name": "from",
          "type": "address"
        },
        {
          "indexed": false,
          "name": "amount",
          "type": "uint256"
        },
        {
          "indexed": false,
          "name": "organization",
          "type": "bytes32"
        }
      ],
      "name": "Donated",
      "type": "event"
    },
    {
      "anonymous": false,
      "inputs": [
        {
          "indexed": false,
          "name": "amount",
          "type": "uint256"
        },
        {
          "indexed": false,
          "name": "organization",
          "type": "bytes32"
        }
      ],
      "name": "Given",
      "type": "event"
    },
    {
      "anonymous": false,
      "inputs": [
        {
          "indexed": false,
          "name": "org",
          "type": "bytes32"
        },
        {
          "indexed": false,
          "name": "fundGoal",
          "type": "uint256"
        },
        {
          "indexed": true,
          "name": "orgHead",
          "type": "address"
        }
      ],
      "name": "CreatedMission",
      "type": "event"
    },
    {
      "anonymous": false,
      "inputs": [
        {
          "indexed": false,
          "name": "org",
          "type": "bytes32"
        },
        {
          "indexed": false,
          "name": "fundGoal",
          "type": "uint256"
        }
      ],
      "name": "AddedFundGoal",
      "type": "event"
    },
    {
      "constant": false,
      "inputs": [
        {
          "name": "org",
          "type": "bytes32"
        }
      ],
      "name": "requestMission",
      "outputs": [],
      "payable": false,
      "stateMutability": "nonpayable",
      "type": "function"
    },
    {
      "constant": false,
      "inputs": [
        {
          "name": "org",
          "type": "bytes32"
        },
        {
          "name": "_fundGoal",
          "type": "uint256"
        },
        {
          "name": "_orgHead",
          "type": "address"
        }
      ],
      "name": "approveRequest",
      "outputs": [],
      "payable": false,
      "stateMutability": "nonpayable",
      "type": "function"
    },
    {
      "constant": false,
      "inputs": [
        {
          "name": "org",
          "type": "bytes32"
        }
      ],
      "name": "donate",
      "outputs": [],
      "payable": true,
      "stateMutability": "payable",
      "type": "function"
    },
    {
      "constant": false,
      "inputs": [],
      "name": "genericDonation",
      "outputs": [],
      "payable": true,
      "stateMutability": "payable",
      "type": "function"
    },
    {
      "constant": true,
      "inputs": [
        {
          "name": "org",
          "type": "bytes32"
        }
      ],
      "name": "getMissionBalance",
      "outputs": [
        {
          "name": "",
          "type": "uint256"
        }
      ],
      "payable": false,
      "stateMutability": "view",
      "type": "function"
    },
    {
      "constant": true,
      "inputs": [
        {
          "name": "org",
          "type": "bytes32"
        }
      ],
      "name": "getMissionTotalDonations",
      "outputs": [
        {
          "name": "",
          "type": "uint256"
        }
      ],
      "payable": false,
      "stateMutability": "view",
      "type": "function"
    },
    {
      "constant": true,
      "inputs": [
        {
          "name": "_org",
          "type": "bytes32"
        }
      ],
      "name": "getMissionAddress",
      "outputs": [
        {
          "name": "",
          "type": "address"
        }
      ],
      "payable": false,
      "stateMutability": "view",
      "type": "function"
    }
  ],
  "bytecode": "0x6080604052336000806101000a81548173ffffffffffffffffffffffffffffffffffffffff021916908373ffffffffffffffffffffffffffffffffffffffff16021790555061165d806100536000396000f3006080604052600436106100d0576000357c0100000000000000000000000000000000000000000000000000000000900463ffffffff16806312065fe0146101bc578063289a94ff146101e7578063398cb7001461022c5780634e92db7f146102875780634f1eee5d146102cc5780638576bb251461031b57806385c821c91461038c578063aaa82646146103e7578063b276345514610422578063b34d2a111461044d578063c37067fa1461047e578063d0ef19fe146104a2578063dcd4491b146104ac578063feea9c1e146104d7575b6100e53460015461051c90919063ffffffff16565b6001819055506001600360003373ffffffffffffffffffffffffffffffffffffffff1673ffffffffffffffffffffffffffffffffffffffff16815260200190815260200160002060006101000a81548160ff021916908360ff1602179055503373ffffffffffffffffffffffffffffffffffffffff167fbc02934a0cf9f160b8ad7ed695fea352347a8773ceebb1be559f1671fa95ab263460405180828152602001807f66616c6c6261636b00000000000000000000000000000000000000000000000081525060200191505060405180910390a2005b3480156101c857600080fd5b506101d161053d565b6040518082815260200191505060405180910390f35b3480156101f357600080fd5b50610216600480360381019080803560001916906020019092919050505061055c565b6040518082815260200191505060405180910390f35b34801561023857600080fd5b50610285600480360381019080803560001916906020019092919080359060200190929190803573ffffffffffffffffffffffffffffffffffffffff16906020019092919050505061059c565b005b34801561029357600080fd5b506102b66004803603810190808035600019169060200190929190505050610691565b6040518082815260200191505060405180910390f35b3480156102d857600080fd5b506103056004803603810190808035600019169060200190929190803590602001909291905050506106f5565b6040518082815260200191505060405180910390f35b34801561032757600080fd5b5061034a60048036038101908080356000191690602001909291905050506107e4565b604051808273ffffffffffffffffffffffffffffffffffffffff1673ffffffffffffffffffffffffffffffffffffffff16815260200191505060405180910390f35b34801561039857600080fd5b506103e5600480360381019080803560001916906020019092919080359060200190929190803573ffffffffffffffffffffffffffffffffffffffff16906020019092919050505061086b565b005b3480156103f357600080fd5b50610420600480360381019080803560001916906020019092919080359060200190929190505050610c67565b005b34801561042e57600080fd5b50610437610dd2565b6040518082815260200191505060405180910390f35b34801561045957600080fd5b5061047c6004803603810190808035600019169060200190929190505050610dd8565b005b6104a06004803603810190808035600019169060200190929190505050610eb6565b005b6104aa6111e0565b005b3480156104b857600080fd5b506104c16112cc565b6040518082815260200191505060405180910390f35b3480156104e357600080fd5b5061050660048036038101908080356000191690602001909291905050506112d2565b6040518082815260200191505060405180910390f35b600080828401905083811015151561053357600080fd5b8091505092915050565b60003073ffffffffffffffffffffffffffffffffffffffff1631905090565b60008060056000846000191660001916815260200190815260200160002090506000816003015411151561058f57600080fd5b8060030154915050919050565b6000809054906101000a900473ffffffffffffffffffffffffffffffffffffffff1673ffffffffffffffffffffffffffffffffffffffff163373ffffffffffffffffffffffffffffffffffffffff161415156105f757600080fd5b60016006600085600019166000191681526020019081526020016000205414151561062157600080fd5b61062c83838361086b565b6002600660008560001916600019168152602001908152602001600020819055507f323d40c0aa1cf896ec093775d91d6ba7455923481a9da93e54d4e114e0d6fb168360405180826000191660001916815260200191505060405180910390a1505050565b600080600560008460001916600019168152602001908152602001600020905080600a0160009054906101000a900473ffffffffffffffffffffffffffffffffffffffff1673ffffffffffffffffffffffffffffffffffffffff1631915050919050565b6000806000809054906101000a900473ffffffffffffffffffffffffffffffffffffffff1673ffffffffffffffffffffffffffffffffffffffff163373ffffffffffffffffffffffffffffffffffffffff1614151561075357600080fd5b600560008560001916600019168152602001908152602001600020905061078783826006015461051c90919063ffffffff16565b81600601819055507f4362d55d2745960dcd43237eba18f487245e4fa656b535d9ae11ef9a3ec250f084846040518083600019166000191681526020018281526020019250505060405180910390a1806006015491505092915050565b6000806005600084600019166000191681526020019081526020016000209050600160046000856000191660001916815260200190815260200160002060009054906101000a900460ff1660ff1614151561083e57600080fd5b80600a0160009054906101000a900473ffffffffffffffffffffffffffffffffffffffff16915050919050565b610873611336565b6000809054906101000a900473ffffffffffffffffffffffffffffffffffffffff1673ffffffffffffffffffffffffffffffffffffffff163373ffffffffffffffffffffffffffffffffffffffff161415156108ce57600080fd5b600060046000866000191660001916815260200190815260200160002060009054906101000a900460ff1660ff1614151561090857600080fd5b8381604001906000191690816000191681525050818160e0019073ffffffffffffffffffffffffffffffffffffffff16908173ffffffffffffffffffffffffffffffffffffffff16815250508281608001818152505080600560008660001916600019168152602001908152602001600020600082015181600201556020820151816003015560408201518160040190600019169055606082015181600501556080820151816006015560a08201518160070160006101000a81548173ffffffffffffffffffffffffffffffffffffffff021916908373ffffffffffffffffffffffffffffffffffffffff16021790555060c08201518160080160006101000a81548173ffffffffffffffffffffffffffffffffffffffff021916908373ffffffffffffffffffffffffffffffffffffffff16021790555060e08201518160090160006101000a81548173ffffffffffffffffffffffffffffffffffffffff021916908373ffffffffffffffffffffffffffffffffffffffff16021790555061010082015181600a0160006101000a81548173ffffffffffffffffffffffffffffffffffffffff021916908373ffffffffffffffffffffffffffffffffffffffff160217905550905050610ae8600160025461051c90919063ffffffff16565b6002819055508382610af86113de565b8083600019166000191681526020018273ffffffffffffffffffffffffffffffffffffffff1673ffffffffffffffffffffffffffffffffffffffff16815260200192505050604051809103906000f080158015610b59573d6000803e3d6000fd5b508160c0019073ffffffffffffffffffffffffffffffffffffffff16908173ffffffffffffffffffffffffffffffffffffffff16815250508060c0015181610100019073ffffffffffffffffffffffffffffffffffffffff16908173ffffffffffffffffffffffffffffffffffffffff1681525050600160046000866000191660001916815260200190815260200160002060006101000a81548160ff021916908360ff1602179055508173ffffffffffffffffffffffffffffffffffffffff167f35ef2fd21f575862a3a2beaa346f58e665fbc1ed21f97b7340f6573cc0b66bda85856040518083600019166000191681526020018281526020019250505060405180910390a250505050565b60008060009054906101000a900473ffffffffffffffffffffffffffffffffffffffff1673ffffffffffffffffffffffffffffffffffffffff163373ffffffffffffffffffffffffffffffffffffffff16141515610cc457600080fd5b60056000846000191660001916815260200190815260200160002090506000816002015414151515610cf557600080fd5b813073ffffffffffffffffffffffffffffffffffffffff163110151515610d1b57600080fd5b8060080160009054906101000a900473ffffffffffffffffffffffffffffffffffffffff1673ffffffffffffffffffffffffffffffffffffffff166108fc839081150290604051600060405180830381858888f19350505050158015610d85573d6000803e3d6000fd5b507fa260c3f60d9a4752427da29431394291a9dd7506b4a9e700fc1b436c15421a4882846040518083815260200182600019166000191681526020019250505060405180910390a1505050565b60025481565b600060046000836000191660001916815260200190815260200160002060009054906101000a900460ff1660ff16141515610e1257600080fd5b600060066000836000191660001916815260200190815260200160002054141515610e3c57600080fd5b6001600660008360001916600019168152602001908152602001600020819055503373ffffffffffffffffffffffffffffffffffffffff167ff5dc3060b1e8c423c02cc05707c6da125c96442efc26683f42b83fcfa56319728260405180826000191660001916815260200191505060405180910390a250565b600080349150600034111515610ecb57600080fd5b6001600360003373ffffffffffffffffffffffffffffffffffffffff1673ffffffffffffffffffffffffffffffffffffffff16815260200190815260200160002060006101000a81548160ff021916908360ff160217905550600560008460001916600019168152602001908152602001600020905080600a0160009054906101000a900473ffffffffffffffffffffffffffffffffffffffff1673ffffffffffffffffffffffffffffffffffffffff166108fc349081150290604051600060405180830381858888f19350505050158015610fab573d6000803e3d6000fd5b5060018160000160003373ffffffffffffffffffffffffffffffffffffffff1673ffffffffffffffffffffffffffffffffffffffff16815260200190815260200160002060006101000a81548160ff021916908360ff16021790555061105b828260010160003373ffffffffffffffffffffffffffffffffffffffff1673ffffffffffffffffffffffffffffffffffffffff1681526020019081526020016000205461051c90919063ffffffff16565b8160010160003373ffffffffffffffffffffffffffffffffffffffff1673ffffffffffffffffffffffffffffffffffffffff168152602001908152602001600020819055506110b86001826002015461051c90919063ffffffff16565b81600201819055504281600501819055506110e082826003015461051c90919063ffffffff16565b816003018190555061113a34600760003373ffffffffffffffffffffffffffffffffffffffff1673ffffffffffffffffffffffffffffffffffffffff1681526020019081526020016000205461051c90919063ffffffff16565b600760003373ffffffffffffffffffffffffffffffffffffffff1673ffffffffffffffffffffffffffffffffffffffff168152602001908152602001600020819055503373ffffffffffffffffffffffffffffffffffffffff167fbc02934a0cf9f160b8ad7ed695fea352347a8773ceebb1be559f1671fa95ab2683856040518083815260200182600019166000191681526020019250505060405180910390a2505050565b6111f53460015461051c90919063ffffffff16565b6001819055506001600360003373ffffffffffffffffffffffffffffffffffffffff1673ffffffffffffffffffffffffffffffffffffffff16815260200190815260200160002060006101000a81548160ff021916908360ff1602179055503373ffffffffffffffffffffffffffffffffffffffff167fbc02934a0cf9f160b8ad7ed695fea352347a8773ceebb1be559f1671fa95ab263460405180828152602001807f67656e657269630000000000000000000000000000000000000000000000000081525060200191505060405180910390a2565b60015481565b600080600560008460001916600019168152602001908152602001600020905061130d8160030154826006015461131590919063ffffffff16565b915050919050565b60008083831115151561132757600080fd5b82840390508091505092915050565b610120604051908101604052806000815260200160008152602001600080191681526020016000815260200160008152602001600073ffffffffffffffffffffffffffffffffffffffff168152602001600073ffffffffffffffffffffffffffffffffffffffff168152602001600073ffffffffffffffffffffffffffffffffffffffff168152602001600073ffffffffffffffffffffffffffffffffffffffff1681525090565b604051610243806113ef833901905600608060405234801561001057600080fd5b506040516040806102438339810180604052810190808051906020019092919080519060200190929190505050816000816000191690555080600160006101000a81548173ffffffffffffffffffffffffffffffffffffffff021916908373ffffffffffffffffffffffffffffffffffffffff16021790555050506101a98061009a6000396000f30060806040526004361061004c576000357c0100000000000000000000000000000000000000000000000000000000900463ffffffff1680630f657b43146100515780635c560b911461007c575b600080fd5b34801561005d57600080fd5b506100666100c5565b6040518082815260200191505060405180910390f35b34801561008857600080fd5b506100ab60048036038101908080356000191690602001909291905050506100e4565b604051808215151515815260200191505060405180910390f35b60003073ffffffffffffffffffffffffffffffffffffffff1631905090565b6000600160009054906101000a900473ffffffffffffffffffffffffffffffffffffffff1673ffffffffffffffffffffffffffffffffffffffff163373ffffffffffffffffffffffffffffffffffffffff1614151561014257600080fd5b6002829080600181540180825580915050906001820390600052602060002001600090919290919091509060001916905550600190509190505600a165627a7a723058200fbae7da372a95d0f558febb0f17c1abd0d656dc9dbf8037895bc7c22140161d0029a165627a7a7230582092b868f1d33f2dc55502d52b2ebce594bc63c7014cd34c4ae41b69a4d6511b810029",
  "source": "pragma solidity ^0.4.24;\nimport \"./Charity.sol\";\nimport \"./SafeMath.sol\";\nimport \"./OrgContract.sol\";\n\ncontract Contributions is Charity{\n    using SafeMath for uint;\n    event Request(address indexed from, bytes32 org);\n    event Approve(bytes32 org);\n\n\n    event Debug(bytes32 debug, address addr, uint val2);\n\n    //Mission[] public requested;\n    mapping(bytes32 => uint) requested;\n    //@dev map to store total contributions of specific address\n    mapping(address=>uint) donorContributions;\n\n    //@dev allows user to request a mission to be added to charity\n    //add requested mission to list of waiting for approval\n    function requestMission(bytes32 org) public{\n        //require that mission doesn't already exist\n        require(existingMissions[org] == 0);\n        //require that mission has not been already requested\n        require(requested[org] == 0 );\n        requested[org] = 1;\n        emit Request(msg.sender, org);\n    }\n\n    //@dev allows owner to approve request for new mission\n    //delete mission from pending list\n    function approveRequest(bytes32 org, uint _fundGoal, address _orgHead)\n    isOwner public{\n        require(requested[org] == 1);\n        createMission(org, _fundGoal, _orgHead);\n        //TODO add address\n        //setting requested = 2 means mission already approved\n        //if requested = 0 then mission has never been requested\n        requested[org] = 2;\n        emit Approve(org);\n    }\n\n    //@dev contributors donate to their specific mission via organization name\n    //NEW AND CHANGED FUNCTIONALITY:\n    //@dev msg.value now goes directly to mission without the need for passing\n    //through the governing body\n    function donate(bytes32 org) payable public{\n        uint amount = msg.value;\n        //emit Debug(\"msgval = \", msg.value);\n        require(msg.value > 0 ether);\n        donors[msg.sender] = 1;\n        Mission storage mission = missions[org];\n        //Mission mission = missions(org);\n        //TODO fix require:\n        //emit Debug(\"after first require\", address(mission.orgContract),1);\n        //uint oneEther = 1 ether;\n        //require(mission.fundGoal > (tempAmountDonated));\n        //address(mission.orgContract).transfer(msg.value);\n        mission.orgAddr.transfer(msg.value); //Transferring amount to org contract\n        //totalDonations = totalDonations.add(amount);\n        //mission.contributors.push(msg.sender);\n        mission.contributors[msg.sender] = 1;\n        mission.addressDonations[msg.sender] = mission.addressDonations[msg.sender].add(amount);\n        mission.contributorCount = mission.contributorCount.add(1);\n        mission.date = now;\n        mission.amountDonated = mission.amountDonated.add(amount);\n        donorContributions[msg.sender] = donorContributions[msg.sender].add(msg.value);\n\n        emit Donated(msg.sender, amount, org);\n    }\n\n    //@dev allow donations without specific organization\n    function genericDonation() payable public{\n      multipurposeBalance = multipurposeBalance.add(msg.value);\n      //totalDonations = totalDonations.add(msg.value);\n      donors[msg.sender] = 1;\n      emit Donated(msg.sender, msg.value, \"generic\");\n    }\n\n    //@dev return mission balance\n    function getMissionBalance(bytes32 org) public view returns(uint){\n        Mission storage mission = missions[org];\n        return mission.orgAddr.balance;\n        //return mission.orgContract.getOrgBalance();\n        //return mission.availableAmount;\n    }\n\n    //@dev get total amount donated since the beginning\n    // i.e. disregarding \"give-backs\"\n    function getMissionTotalDonations(bytes32 org) public view returns(uint){\n      Mission storage mission = missions[org];\n      require(mission.amountDonated > 0);\n      return mission.amountDonated;\n    }\n\n    //@dev get the orgContract address\n    function getMissionAddress(bytes32 _org) public view returns(address){\n      Mission storage mission = missions[_org];\n      require(existingMissions[_org] == 1);\n      return mission.orgAddr;\n    }\n}\n",
  "sourcePath": "/Users/hazemtabbaa/Desktop/Other/give-back/contracts/Contributions.sol",
  "compiler": {
    "name": "solc",
    "version": "0.4.24+commit.e67f0147.Emscripten.clang"
  },
  "schemaVersion": "2.0.1",
  "updatedAt": "2018-11-11T03:20:16.162Z"
}