{
  "contractName": "Contributions",
  "abi": [
    {
      "constant": true,
      "inputs": [],
      "name": "getBalance",
      "outputs": [
        {
          "name": "",
          "type": "uint256"
        }
      ],
      "payable": false,
      "stateMutability": "view",
      "type": "function"
    },
    {
      "constant": false,
      "inputs": [
        {
          "name": "_org",
          "type": "string"
        },
        {
          "name": "_fundGoal",
          "type": "uint256"
        }
      ],
      "name": "addFundGoal",
      "outputs": [
        {
          "name": "",
          "type": "uint256"
        }
      ],
      "payable": false,
      "stateMutability": "nonpayable",
      "type": "function"
    },
    {
      "constant": false,
      "inputs": [
        {
          "name": "to",
          "type": "address"
        },
        {
          "name": "org",
          "type": "string"
        },
        {
          "name": "amount",
          "type": "uint256"
        }
      ],
      "name": "giveBack",
      "outputs": [],
      "payable": false,
      "stateMutability": "nonpayable",
      "type": "function"
    },
    {
      "constant": true,
      "inputs": [],
      "name": "missionCounter",
      "outputs": [
        {
          "name": "",
          "type": "uint256"
        }
      ],
      "payable": false,
      "stateMutability": "view",
      "type": "function"
    },
    {
      "constant": true,
      "inputs": [],
      "name": "getGenericDonations",
      "outputs": [
        {
          "name": "",
          "type": "uint256"
        }
      ],
      "payable": false,
      "stateMutability": "view",
      "type": "function"
    },
    {
      "constant": true,
      "inputs": [],
      "name": "multipurposeBalance",
      "outputs": [
        {
          "name": "",
          "type": "uint256"
        }
      ],
      "payable": false,
      "stateMutability": "view",
      "type": "function"
    },
    {
      "constant": false,
      "inputs": [
        {
          "name": "_organization",
          "type": "string"
        },
        {
          "name": "_fundGoal",
          "type": "uint256"
        }
      ],
      "name": "createMission",
      "outputs": [],
      "payable": false,
      "stateMutability": "nonpayable",
      "type": "function"
    },
    {
      "payable": true,
      "stateMutability": "payable",
      "type": "fallback"
    },
    {
      "anonymous": false,
      "inputs": [
        {
          "indexed": true,
          "name": "from",
          "type": "address"
        },
        {
          "indexed": false,
          "name": "org",
          "type": "string"
        }
      ],
      "name": "Request",
      "type": "event"
    },
    {
      "anonymous": false,
      "inputs": [
        {
          "indexed": true,
          "name": "org",
          "type": "string"
        }
      ],
      "name": "Approve",
      "type": "event"
    },
    {
      "anonymous": false,
      "inputs": [
        {
          "indexed": true,
          "name": "from",
          "type": "address"
        },
        {
          "indexed": false,
          "name": "amount",
          "type": "uint256"
        },
        {
          "indexed": false,
          "name": "organization",
          "type": "string"
        }
      ],
      "name": "Donated",
      "type": "event"
    },
    {
      "anonymous": false,
      "inputs": [
        {
          "indexed": true,
          "name": "to",
          "type": "address"
        },
        {
          "indexed": false,
          "name": "amount",
          "type": "uint256"
        },
        {
          "indexed": false,
          "name": "organization",
          "type": "string"
        }
      ],
      "name": "Given",
      "type": "event"
    },
    {
      "anonymous": false,
      "inputs": [
        {
          "indexed": true,
          "name": "org",
          "type": "string"
        },
        {
          "indexed": false,
          "name": "fundGoal",
          "type": "uint256"
        }
      ],
      "name": "CreatedMission",
      "type": "event"
    },
    {
      "anonymous": false,
      "inputs": [
        {
          "indexed": true,
          "name": "org",
          "type": "string"
        },
        {
          "indexed": false,
          "name": "fundGoal",
          "type": "uint256"
        }
      ],
      "name": "AddedFundGoal",
      "type": "event"
    },
    {
      "constant": false,
      "inputs": [
        {
          "name": "org",
          "type": "string"
        }
      ],
      "name": "requestMission",
      "outputs": [],
      "payable": false,
      "stateMutability": "nonpayable",
      "type": "function"
    },
    {
      "constant": false,
      "inputs": [
        {
          "name": "org",
          "type": "string"
        }
      ],
      "name": "approveRequest",
      "outputs": [],
      "payable": false,
      "stateMutability": "nonpayable",
      "type": "function"
    },
    {
      "constant": false,
      "inputs": [
        {
          "name": "org",
          "type": "string"
        }
      ],
      "name": "donate",
      "outputs": [],
      "payable": true,
      "stateMutability": "payable",
      "type": "function"
    },
    {
      "constant": false,
      "inputs": [],
      "name": "genericDonation",
      "outputs": [],
      "payable": true,
      "stateMutability": "payable",
      "type": "function"
    },
    {
      "constant": true,
      "inputs": [
        {
          "name": "org",
          "type": "string"
        }
      ],
      "name": "getMissionBalance",
      "outputs": [
        {
          "name": "",
          "type": "uint256"
        }
      ],
      "payable": false,
      "stateMutability": "view",
      "type": "function"
    },
    {
      "constant": true,
      "inputs": [
        {
          "name": "org",
          "type": "string"
        }
      ],
      "name": "getMissionTotalDonations",
      "outputs": [
        {
          "name": "",
          "type": "uint256"
        }
      ],
      "payable": false,
      "stateMutability": "view",
      "type": "function"
    }
  ],
  "bytecode": "0x6080604052336000806101000a81548173ffffffffffffffffffffffffffffffffffffffff021916908373ffffffffffffffffffffffffffffffffffffffff160217905550611a54806100536000396000f3006080604052600436106100c5576000357c0100000000000000000000000000000000000000000000000000000000900463ffffffff16806312065fe0146101c25780631b49df65146101ed5780631e0715df1461026a57806334f5ca6a146102d35780633b36ceae1461035057806358157973146103b9578063aa130d9a14610440578063b2763455146104d3578063b41dd9a0146104fe578063b5aebc8014610529578063d0ef19fe14610585578063dcd4491b1461058f578063ee863180146105ba575b6100da3460015461062d90919063ffffffff16565b6001819055506001600360003373ffffffffffffffffffffffffffffffffffffffff1673ffffffffffffffffffffffffffffffffffffffff16815260200190815260200160002060006101000a81548160ff021916908360ff1602179055503373ffffffffffffffffffffffffffffffffffffffff167fcf76696fec6613453db3fc8d0e87a2417d6033db7623130bae09a2d82c06813b346040518082815260200180602001828103825260088152602001807f66616c6c6261636b0000000000000000000000000000000000000000000000008152506020019250505060405180910390a2005b3480156101ce57600080fd5b506101d761064e565b6040518082815260200191505060405180910390f35b3480156101f957600080fd5b50610254600480360381019080803590602001908201803590602001908080601f016020809104026020016040519081016040528093929190818152602001838380828437820191505050505050919291929050505061066d565b6040518082815260200191505060405180910390f35b34801561027657600080fd5b506102d1600480360381019080803590602001908201803590602001908080601f01602080910402602001604051908101604052809392919081815260200183838082843782019150505050505091929192905050506106ea565b005b3480156102df57600080fd5b5061033a600480360381019080803590602001908201803590602001908080601f0160208091040260200160405190810160405280939291908181526020018383808284378201915050505050509192919290505050610a61565b6040518082815260200191505060405180910390f35b34801561035c57600080fd5b506103b7600480360381019080803590602001908201803590602001908080601f0160208091040260200160405190810160405280939291908181526020018383808284378201915050505050509192919290505050610af1565b005b3480156103c557600080fd5b5061042a600480360381019080803590602001908201803590602001908080601f016020809104026020016040519081016040528093929190818152602001838380828437820191505050505050919291929080359060200190929190505050610d74565b6040518082815260200191505060405180910390f35b34801561044c57600080fd5b506104d1600480360381019080803573ffffffffffffffffffffffffffffffffffffffff169060200190929190803590602001908201803590602001908080601f016020809104026020016040519081016040528093929190818152602001838380828437820191505050505050919291929080359060200190929190505050610f06565b005b3480156104df57600080fd5b506104e8611143565b6040518082815260200191505060405180910390f35b34801561050a57600080fd5b50610513611149565b6040518082815260200191505060405180910390f35b610583600480360381019080803590602001908201803590602001908080601f0160208091040260200160405190810160405280939291908181526020018383808284378201915050505050509192919290505050611153565b005b61058d611506565b005b34801561059b57600080fd5b506105a4611603565b6040518082815260200191505060405180910390f35b3480156105c657600080fd5b5061062b600480360381019080803590602001908201803590602001908080601f016020809104026020016040519081016040528093929190818152602001838380828437820191505050505050919291929080359060200190929190505050611609565b005b600080828401905083811015151561064457600080fd5b8091505092915050565b60003073ffffffffffffffffffffffffffffffffffffffff1631905090565b6000806004836040518082805190602001908083835b6020831015156106a85780518252602082019150602081019050602083039250610683565b6001836020036101000a038019825116818451168082178552505050505050905001915050908152602001604051809103902090508060030154915050919050565b60008060009054906101000a900473ffffffffffffffffffffffffffffffffffffffff1673ffffffffffffffffffffffffffffffffffffffff163373ffffffffffffffffffffffffffffffffffffffff1614151561074757600080fd5b6005826040518082805190602001908083835b60208310151561077f578051825260208201915060208101905060208303925061075a565b6001836020036101000a03801982511681845116808217855250505050505090500191505090815260200160405180910390209050806004836040518082805190602001908083835b6020831015156107ed57805182526020820191506020810190506020830392506107c8565b6001836020036101000a038019825116818451168082178552505050505050905001915050908152602001604051809103902060028201548160020155600382015481600301556004820154816004015560058201816005019080546001816001161561010002031660029004610865929190611860565b5060068201548160060155600782015481600701556008820160009054906101000a900473ffffffffffffffffffffffffffffffffffffffff168160080160006101000a81548173ffffffffffffffffffffffffffffffffffffffff021916908373ffffffffffffffffffffffffffffffffffffffff1602179055509050506108fa600160025461062d90919063ffffffff16565b6002819055506005826040518082805190602001908083835b6020831015156109385780518252602082019150602081019050602083039250610913565b6001836020036101000a0380198251168184511680821785525050505050509050019150509081526020016040518091039020600060028201600090556003820160009055600482016000905560058201600061099591906118e7565b600682016000905560078201600090556008820160006101000a81549073ffffffffffffffffffffffffffffffffffffffff02191690555050816040518082805190602001908083835b602083101515610a0457805182526020820191506020810190506020830392506109df565b6001836020036101000a03801982511681845116808217855250505050505090500191505060405180910390207fb8693ca6963890ed75ddc33a4bfb4c8c5c5fd5cb6108904d4a14fa40d0961c5660405160405180910390a25050565b6000806004836040518082805190602001908083835b602083101515610a9c5780518252602082019150602081019050602083039250610a77565b6001836020036101000a0380198251168184511680821785525050505050509050019150509081526020016040518091039020905060008160040154111515610ae457600080fd5b8060040154915050919050565b610af961192f565b60006004836040518082805190602001908083835b602083101515610b335780518252602082019150602081019050602083039250610b0e565b6001836020036101000a03801982511681845116808217855250505050505090500191505090815260200160405180910390206007015414151515610b7757600080fd5b818160600181905250338160c0019073ffffffffffffffffffffffffffffffffffffffff16908173ffffffffffffffffffffffffffffffffffffffff1681525050806005836040518082805190602001908083835b602083101515610bf15780518252602082019150602081019050602083039250610bcc565b6001836020036101000a03801982511681845116808217855250505050505090500191505090815260200160405180910390206000820151816002015560208201518160030155604082015181600401556060820151816005019080519060200190610c5e929190611983565b506080820151816006015560a0820151816007015560c08201518160080160006101000a81548173ffffffffffffffffffffffffffffffffffffffff021916908373ffffffffffffffffffffffffffffffffffffffff1602179055509050503373ffffffffffffffffffffffffffffffffffffffff167f9e7637d10c6f58bcf03ad632c3c3fcb88d4489674fdce2a7723c260e141ac398836040518080602001828103825283818151815260200191508051906020019080838360005b83811015610d36578082015181840152602081019050610d1b565b50505050905090810190601f168015610d635780820380516001836020036101000a031916815260200191505b509250505060405180910390a25050565b6000806000809054906101000a900473ffffffffffffffffffffffffffffffffffffffff1673ffffffffffffffffffffffffffffffffffffffff163373ffffffffffffffffffffffffffffffffffffffff16141515610dd257600080fd5b6004846040518082805190602001908083835b602083101515610e0a5780518252602082019150602081019050602083039250610de5565b6001836020036101000a03801982511681845116808217855250505050505090500191505090815260200160405180910390209050610e5683826007015461062d90919063ffffffff16565b8160070181905550836040518082805190602001908083835b602083101515610e945780518252602082019150602081019050602083039250610e6f565b6001836020036101000a03801982511681845116808217855250505050505090500191505060405180910390207f7111d56781ecdd48151e807951a9dbe25e0bb304cbe9f2a7ae57c19c620ca642846040518082815260200191505060405180910390a2806007015491505092915050565b60008060009054906101000a900473ffffffffffffffffffffffffffffffffffffffff1673ffffffffffffffffffffffffffffffffffffffff163373ffffffffffffffffffffffffffffffffffffffff16141515610f6357600080fd5b6004836040518082805190602001908083835b602083101515610f9b5780518252602082019150602081019050602083039250610f76565b6001836020036101000a038019825116818451168082178552505050505050905001915050908152602001604051809103902090506000816002015414151515610fe457600080fd5b818160030154111515610ff657600080fd5b813073ffffffffffffffffffffffffffffffffffffffff16311015151561101c57600080fd5b8373ffffffffffffffffffffffffffffffffffffffff166108fc839081150290604051600060405180830381858888f19350505050158015611062573d6000803e3d6000fd5b5061107a82826003015461183f90919063ffffffff16565b81600301819055508373ffffffffffffffffffffffffffffffffffffffff167fde3ec9fa1ba846c466aa2d622e31a7040b6ff55cc20ed4c122f6fb6e8cae0c6383856040518083815260200180602001828103825283818151815260200191508051906020019080838360005b838110156111025780820151818401526020810190506110e7565b50505050905090810190601f16801561112f5780820380516001836020036101000a031916815260200191505b50935050505060405180910390a250505050565b60025481565b6000600154905090565b60008034915060008211151561116857600080fd5b6001600360003373ffffffffffffffffffffffffffffffffffffffff1673ffffffffffffffffffffffffffffffffffffffff16815260200190815260200160002060006101000a81548160ff021916908360ff1602179055506004836040518082805190602001908083835b6020831015156111f957805182526020820191506020810190506020830392506111d4565b6001836020036101000a0380198251168184511680821785525050505050509050019150509081526020016040518091039020905061124582826004015461062d90919063ffffffff16565b816007015411151561125657600080fd5b61126d82826003015461062d90919063ffffffff16565b816003018190555060018160000160003373ffffffffffffffffffffffffffffffffffffffff1673ffffffffffffffffffffffffffffffffffffffff16815260200190815260200160002060006101000a81548160ff021916908360ff160217905550611324828260010160003373ffffffffffffffffffffffffffffffffffffffff1673ffffffffffffffffffffffffffffffffffffffff1681526020019081526020016000205461062d90919063ffffffff16565b8160010160003373ffffffffffffffffffffffffffffffffffffffff1673ffffffffffffffffffffffffffffffffffffffff168152602001908152602001600020819055506113816001826002015461062d90919063ffffffff16565b81600201819055504281600601819055506113a982826004015461062d90919063ffffffff16565b816004018190555061140334600660003373ffffffffffffffffffffffffffffffffffffffff1673ffffffffffffffffffffffffffffffffffffffff1681526020019081526020016000205461062d90919063ffffffff16565b600660003373ffffffffffffffffffffffffffffffffffffffff1673ffffffffffffffffffffffffffffffffffffffff168152602001908152602001600020819055503373ffffffffffffffffffffffffffffffffffffffff167fcf76696fec6613453db3fc8d0e87a2417d6033db7623130bae09a2d82c06813b83856040518083815260200180602001828103825283818151815260200191508051906020019080838360005b838110156114c65780820151818401526020810190506114ab565b50505050905090810190601f1680156114f35780820380516001836020036101000a031916815260200191505b50935050505060405180910390a2505050565b61151b3460015461062d90919063ffffffff16565b6001819055506001600360003373ffffffffffffffffffffffffffffffffffffffff1673ffffffffffffffffffffffffffffffffffffffff16815260200190815260200160002060006101000a81548160ff021916908360ff1602179055503373ffffffffffffffffffffffffffffffffffffffff167fcf76696fec6613453db3fc8d0e87a2417d6033db7623130bae09a2d82c06813b346040518082815260200180602001828103825260078152602001807f67656e65726963000000000000000000000000000000000000000000000000008152506020019250505060405180910390a2565b60015481565b61161161192f565b6000809054906101000a900473ffffffffffffffffffffffffffffffffffffffff1673ffffffffffffffffffffffffffffffffffffffff163373ffffffffffffffffffffffffffffffffffffffff1614151561166c57600080fd5b828160600181905250818160a0018181525050806004846040518082805190602001908083835b6020831015156116b85780518252602082019150602081019050602083039250611693565b6001836020036101000a03801982511681845116808217855250505050505090500191505090815260200160405180910390206000820151816002015560208201518160030155604082015181600401556060820151816005019080519060200190611725929190611983565b506080820151816006015560a0820151816007015560c08201518160080160006101000a81548173ffffffffffffffffffffffffffffffffffffffff021916908373ffffffffffffffffffffffffffffffffffffffff16021790555090505061179a600160025461062d90919063ffffffff16565b600281905550826040518082805190602001908083835b6020831015156117d657805182526020820191506020810190506020830392506117b1565b6001836020036101000a03801982511681845116808217855250505050505090500191505060405180910390207f2362915a770d438c034b1e4fdfac17fe8d6353614c7f8275df20db5fb64070b2836040518082815260200191505060405180910390a2505050565b60008083831115151561185157600080fd5b82840390508091505092915050565b828054600181600116156101000203166002900490600052602060002090601f016020900481019282601f1061189957805485556118d6565b828001600101855582156118d657600052602060002091601f016020900482015b828111156118d55782548255916001019190600101906118ba565b5b5090506118e39190611a03565b5090565b50805460018160011615610100020316600290046000825580601f1061190d575061192c565b601f01602090049060005260206000209081019061192b9190611a03565b5b50565b60e060405190810160405280600081526020016000815260200160008152602001606081526020016000815260200160008152602001600073ffffffffffffffffffffffffffffffffffffffff1681525090565b828054600181600116156101000203166002900490600052602060002090601f016020900481019282601f106119c457805160ff19168380011785556119f2565b828001600101855582156119f2579182015b828111156119f15782518255916020019190600101906119d6565b5b5090506119ff9190611a03565b5090565b611a2591905b80821115611a21576000816000905550600101611a09565b5090565b905600a165627a7a72305820bd15dae0734ccb8d17cc8fbf1a2e9bf08e858fcaf27a5a603bee674ee1c6346d0029",
  "source": "pragma solidity ^0.4.19;\nimport \"./Charity.sol\";\nimport \"./SafeMath.sol\";\n\ncontract Contributions is Charity{\n    using SafeMath for uint;\n    event Request(address indexed from, string org);\n    event Approve(string indexed org);\n\n    //Mission[] public requested;\n    mapping(string => Mission) requested;\n    //@dev map to store total contributions of specific address\n    mapping(address=>uint) donorContributions;\n\n    //@dev allows user to request a mission to be added to charity\n    //add requested mission to list of waiting for approval\n    function requestMission(string org) public{\n        //require that mission does not already exist\n        require(missions[org].fundGoal != 0 );\n        Mission memory pendingMission;\n        pendingMission.organization = org;\n        pendingMission.requester = msg.sender;\n        requested[org] = pendingMission;\n        emit Request(msg.sender, org);\n    }\n\n    //@dev allows owner to approve request for new mission\n    //delete mission from pending list\n    function approveRequest(string org) isOwner public{\n        Mission storage mission = requested[org];\n        missions[org] = mission;\n        missionCounter = missionCounter.add(1);\n        //TODO add address\n        delete requested[org];\n        emit Approve(org);\n    }\n\n    //@dev contributors donate to their specific mission via organization name\n    function donate(string org) payable public{\n        uint amount = msg.value;\n        require(amount > 0);\n        donors[msg.sender] = 1;\n        Mission storage mission = missions[org];\n        //TODO fix require:\n        //Add fundgoal function or add in instantiation otherwise donate\n        //will revert on require since fundGoal = 0\n        require(mission.fundGoal > (mission.amountDonated.add(amount)));\n        mission.amountBalance = mission.amountBalance.add(amount);\n        //totalDonations = totalDonations.add(amount);\n        //mission.contributors.push(msg.sender);\n        mission.contributors[msg.sender] = 1;\n        mission.addressDonations[msg.sender] = mission.addressDonations[msg.sender].add(amount);\n        mission.contributorCount = mission.contributorCount.add(1);\n        mission.date = now;\n        mission.amountDonated = mission.amountDonated.add(amount);\n        donorContributions[msg.sender] = donorContributions[msg.sender].add(msg.value);\n        emit Donated(msg.sender, amount, org);\n    }\n\n    //@dev allow donations without specific organization\n    function genericDonation() payable public{\n      multipurposeBalance = multipurposeBalance.add(msg.value);\n      //totalDonations = totalDonations.add(msg.value);\n      donors[msg.sender] = 1;\n      emit Donated(msg.sender, msg.value, \"generic\");\n    }\n\n    //@dev return mission balance\n    function getMissionBalance(string org) public view returns(uint){\n        Mission storage mission = missions[org];\n        return mission.amountBalance;\n    }\n    //@dev get total amount donated since the beginning\n    // i.e. disregarding \"give-backs\"\n    function getMissionTotalDonations(string org) public view returns(uint){\n      Mission storage mission = missions[org];\n      require(mission.amountDonated > 0);\n      return mission.amountDonated;\n    }\n}\n",
  "sourcePath": "/Users/hazemtabbaa/Desktop/Other/give-back/contracts/Contributions.sol",
  "compiler": {
    "name": "solc",
    "version": "0.4.24+commit.e67f0147.Emscripten.clang"
  },
  "schemaVersion": "2.0.1",
  "updatedAt": "2018-10-03T00:45:13.807Z"
}