{
  "contractName": "Contributions",
  "abi": [
    {
      "constant": true,
      "inputs": [],
      "name": "getBalance",
      "outputs": [
        {
          "name": "",
          "type": "uint256"
        }
      ],
      "payable": false,
      "stateMutability": "view",
      "type": "function"
    },
    {
      "constant": false,
      "inputs": [
        {
          "name": "org",
          "type": "string"
        },
        {
          "name": "amount",
          "type": "uint256"
        }
      ],
      "name": "giveBack",
      "outputs": [],
      "payable": false,
      "stateMutability": "nonpayable",
      "type": "function"
    },
    {
      "constant": true,
      "inputs": [
        {
          "name": "_org",
          "type": "string"
        }
      ],
      "name": "donationsToFundGoal",
      "outputs": [
        {
          "name": "",
          "type": "uint256"
        }
      ],
      "payable": false,
      "stateMutability": "view",
      "type": "function"
    },
    {
      "constant": true,
      "inputs": [
        {
          "name": "",
          "type": "uint256"
        }
      ],
      "name": "missions",
      "outputs": [
        {
          "name": "contributorCount",
          "type": "uint256"
        },
        {
          "name": "amountDonated",
          "type": "uint256"
        },
        {
          "name": "organization",
          "type": "string"
        },
        {
          "name": "date",
          "type": "uint256"
        },
        {
          "name": "fundGoal",
          "type": "uint256"
        },
        {
          "name": "requester",
          "type": "address"
        },
        {
          "name": "orgContract",
          "type": "address"
        },
        {
          "name": "orgHead",
          "type": "address"
        }
      ],
      "payable": false,
      "stateMutability": "view",
      "type": "function"
    },
    {
      "constant": true,
      "inputs": [
        {
          "name": "",
          "type": "address"
        }
      ],
      "name": "donorChoice",
      "outputs": [
        {
          "name": "",
          "type": "uint256"
        }
      ],
      "payable": false,
      "stateMutability": "view",
      "type": "function"
    },
    {
      "constant": true,
      "inputs": [
        {
          "name": "",
          "type": "uint256"
        }
      ],
      "name": "existingMissions",
      "outputs": [
        {
          "name": "",
          "type": "uint8"
        }
      ],
      "payable": false,
      "stateMutability": "view",
      "type": "function"
    },
    {
      "constant": false,
      "inputs": [
        {
          "name": "_org",
          "type": "string"
        },
        {
          "name": "_fundGoal",
          "type": "uint256"
        }
      ],
      "name": "addFundGoal",
      "outputs": [
        {
          "name": "",
          "type": "uint256"
        }
      ],
      "payable": false,
      "stateMutability": "nonpayable",
      "type": "function"
    },
    {
      "constant": true,
      "inputs": [
        {
          "name": "",
          "type": "address"
        }
      ],
      "name": "donorAmount",
      "outputs": [
        {
          "name": "",
          "type": "uint256"
        }
      ],
      "payable": false,
      "stateMutability": "view",
      "type": "function"
    },
    {
      "constant": true,
      "inputs": [
        {
          "name": "",
          "type": "uint256"
        }
      ],
      "name": "missionAddresses",
      "outputs": [
        {
          "name": "",
          "type": "address"
        }
      ],
      "payable": false,
      "stateMutability": "view",
      "type": "function"
    },
    {
      "constant": true,
      "inputs": [],
      "name": "missionCounter",
      "outputs": [
        {
          "name": "",
          "type": "uint256"
        }
      ],
      "payable": false,
      "stateMutability": "view",
      "type": "function"
    },
    {
      "constant": true,
      "inputs": [
        {
          "name": "",
          "type": "address"
        }
      ],
      "name": "donors",
      "outputs": [
        {
          "name": "",
          "type": "uint8"
        }
      ],
      "payable": false,
      "stateMutability": "view",
      "type": "function"
    },
    {
      "constant": true,
      "inputs": [],
      "name": "multipurposeBalance",
      "outputs": [
        {
          "name": "",
          "type": "uint256"
        }
      ],
      "payable": false,
      "stateMutability": "view",
      "type": "function"
    },
    {
      "constant": true,
      "inputs": [
        {
          "name": "",
          "type": "address"
        }
      ],
      "name": "donorContributions",
      "outputs": [
        {
          "name": "",
          "type": "uint256"
        }
      ],
      "payable": false,
      "stateMutability": "view",
      "type": "function"
    },
    {
      "constant": false,
      "inputs": [
        {
          "name": "_organization",
          "type": "string"
        },
        {
          "name": "_fundGoal",
          "type": "uint256"
        },
        {
          "name": "_orgHead",
          "type": "address"
        }
      ],
      "name": "createMission",
      "outputs": [],
      "payable": false,
      "stateMutability": "nonpayable",
      "type": "function"
    },
    {
      "payable": true,
      "stateMutability": "payable",
      "type": "fallback"
    },
    {
      "anonymous": false,
      "inputs": [
        {
          "indexed": true,
          "name": "from",
          "type": "address"
        },
        {
          "indexed": false,
          "name": "org",
          "type": "string"
        }
      ],
      "name": "Request",
      "type": "event"
    },
    {
      "anonymous": false,
      "inputs": [
        {
          "indexed": false,
          "name": "org",
          "type": "string"
        }
      ],
      "name": "Approve",
      "type": "event"
    },
    {
      "anonymous": false,
      "inputs": [
        {
          "indexed": false,
          "name": "donor",
          "type": "address"
        },
        {
          "indexed": false,
          "name": "org",
          "type": "string"
        }
      ],
      "name": "DonorChoice",
      "type": "event"
    },
    {
      "anonymous": false,
      "inputs": [
        {
          "indexed": false,
          "name": "debug",
          "type": "string"
        },
        {
          "indexed": false,
          "name": "val",
          "type": "uint256"
        }
      ],
      "name": "Debug",
      "type": "event"
    },
    {
      "anonymous": false,
      "inputs": [
        {
          "indexed": false,
          "name": "test",
          "type": "string"
        },
        {
          "indexed": false,
          "name": "addr",
          "type": "address"
        }
      ],
      "name": "debugger",
      "type": "event"
    },
    {
      "anonymous": false,
      "inputs": [
        {
          "indexed": true,
          "name": "from",
          "type": "address"
        },
        {
          "indexed": false,
          "name": "amount",
          "type": "uint256"
        },
        {
          "indexed": false,
          "name": "organization",
          "type": "string"
        }
      ],
      "name": "Donated",
      "type": "event"
    },
    {
      "anonymous": false,
      "inputs": [
        {
          "indexed": false,
          "name": "amount",
          "type": "uint256"
        },
        {
          "indexed": false,
          "name": "organization",
          "type": "string"
        }
      ],
      "name": "Given",
      "type": "event"
    },
    {
      "anonymous": false,
      "inputs": [
        {
          "indexed": false,
          "name": "org",
          "type": "string"
        },
        {
          "indexed": false,
          "name": "fundGoal",
          "type": "uint256"
        },
        {
          "indexed": true,
          "name": "orgHead",
          "type": "address"
        }
      ],
      "name": "CreatedMission",
      "type": "event"
    },
    {
      "anonymous": false,
      "inputs": [
        {
          "indexed": false,
          "name": "org",
          "type": "string"
        },
        {
          "indexed": false,
          "name": "fundGoal",
          "type": "uint256"
        }
      ],
      "name": "AddedFundGoal",
      "type": "event"
    },
    {
      "constant": false,
      "inputs": [
        {
          "name": "org",
          "type": "string"
        }
      ],
      "name": "requestMission",
      "outputs": [],
      "payable": false,
      "stateMutability": "nonpayable",
      "type": "function"
    },
    {
      "constant": false,
      "inputs": [
        {
          "name": "org",
          "type": "string"
        },
        {
          "name": "_fundGoal",
          "type": "uint256"
        },
        {
          "name": "_orgHead",
          "type": "address"
        }
      ],
      "name": "approveRequest",
      "outputs": [],
      "payable": false,
      "stateMutability": "nonpayable",
      "type": "function"
    },
    {
      "constant": false,
      "inputs": [
        {
          "name": "_org",
          "type": "string"
        }
      ],
      "name": "donate",
      "outputs": [],
      "payable": true,
      "stateMutability": "payable",
      "type": "function"
    },
    {
      "constant": false,
      "inputs": [],
      "name": "verifyDonation",
      "outputs": [],
      "payable": false,
      "stateMutability": "nonpayable",
      "type": "function"
    },
    {
      "constant": false,
      "inputs": [],
      "name": "genericDonation",
      "outputs": [],
      "payable": true,
      "stateMutability": "payable",
      "type": "function"
    },
    {
      "constant": true,
      "inputs": [
        {
          "name": "org",
          "type": "string"
        }
      ],
      "name": "getMissionBalance",
      "outputs": [
        {
          "name": "",
          "type": "uint256"
        }
      ],
      "payable": false,
      "stateMutability": "view",
      "type": "function"
    },
    {
      "constant": true,
      "inputs": [
        {
          "name": "org",
          "type": "string"
        }
      ],
      "name": "getMissionTotalDonations",
      "outputs": [
        {
          "name": "",
          "type": "uint256"
        }
      ],
      "payable": false,
      "stateMutability": "view",
      "type": "function"
    },
    {
      "constant": true,
      "inputs": [
        {
          "name": "_org",
          "type": "string"
        }
      ],
      "name": "getMissionAddress",
      "outputs": [
        {
          "name": "",
          "type": "address"
        }
      ],
      "payable": false,
      "stateMutability": "view",
      "type": "function"
    },
    {
      "constant": true,
      "inputs": [
        {
          "name": "_org",
          "type": "string"
        }
      ],
      "name": "missionExists",
      "outputs": [
        {
          "name": "",
          "type": "uint8"
        }
      ],
      "payable": false,
      "stateMutability": "view",
      "type": "function"
    }
  ],
  "bytecode": "0x6080604052336000806101000a81548173ffffffffffffffffffffffffffffffffffffffff021916908373ffffffffffffffffffffffffffffffffffffffff160217905550613620806100536000396000f3006080604052600436106200014b576000357c0100000000000000000000000000000000000000000000000000000000900463ffffffff1680630b34a28f146200024a57806312065fe01462000264578063167595ee14620002925780631a0f74fc14620003085780631b49df6514620003885780632c8fe526146200040857806334f5ca6a1462000569578063356e2eec14620005e95780633b36ceae14620006955780634ce6033314620007015780634d21aabf146200078757806353db692814620007e157806358157973146200082b5780636e5c2bb214620008b55780638cb21471146200090f578063b2763455146200097f578063b5aebc8014620009ad578063ca0cdea81462000a0b578063d0ef19fe1462000a6b578063da5504ba1462000a77578063dcd4491b1462000b0d578063f4374aea1462000b3b578063fd2202ce1462000b95575b620001623460015462000c2b90919063ffffffff16565b6001819055506001600360003373ffffffffffffffffffffffffffffffffffffffff1673ffffffffffffffffffffffffffffffffffffffff16815260200190815260200160002060006101000a81548160ff021916908360ff1602179055503373ffffffffffffffffffffffffffffffffffffffff167fcf76696fec6613453db3fc8d0e87a2417d6033db7623130bae09a2d82c06813b346040518082815260200180602001828103825260088152602001807f66616c6c6261636b0000000000000000000000000000000000000000000000008152506020019250505060405180910390a2005b3480156200025757600080fd5b506200026262000c4d565b005b3480156200027157600080fd5b506200027c62000d86565b6040518082815260200191505060405180910390f35b3480156200029f57600080fd5b5062000306600480360381019080803590602001908201803590602001908080601f01602080910402602001604051908101604052809392919081815260200183838082843782019150505050505091929192908035906020019092919050505062000da5565b005b3480156200031557600080fd5b5062000372600480360381019080803590602001908201803590602001908080601f016020809104026020016040519081016040528093929190818152602001838380828437820191505050505050919291929050505062001042565b6040518082815260200191505060405180910390f35b3480156200039557600080fd5b50620003f2600480360381019080803590602001908201803590602001908080601f016020809104026020016040519081016040528093929190818152602001838380828437820191505050505050919291929050505062001155565b6040518082815260200191505060405180910390f35b3480156200041557600080fd5b5062000436600480360381019080803590602001909291905050506200127f565b60405180898152602001888152602001806020018781526020018681526020018573ffffffffffffffffffffffffffffffffffffffff1673ffffffffffffffffffffffffffffffffffffffff1681526020018473ffffffffffffffffffffffffffffffffffffffff1673ffffffffffffffffffffffffffffffffffffffff1681526020018373ffffffffffffffffffffffffffffffffffffffff1673ffffffffffffffffffffffffffffffffffffffff168152602001828103825288818151815260200191508051906020019080838360005b838110156200052657808201518184015260208101905062000509565b50505050905090810190601f168015620005545780820380516001836020036101000a031916815260200191505b50995050505050505050505060405180910390f35b3480156200057657600080fd5b50620005d3600480360381019080803590602001908201803590602001908080601f0160208091040260200160405190810160405280939291908181526020018383808284378201915050505050509192919290505050620013c3565b6040518082815260200191505060405180910390f35b348015620005f657600080fd5b5062000653600480360381019080803590602001908201803590602001908080601f0160208091040260200160405190810160405280939291908181526020018383808284378201915050505050509192919290505050620014d2565b604051808273ffffffffffffffffffffffffffffffffffffffff1673ffffffffffffffffffffffffffffffffffffffff16815260200191505060405180910390f35b348015620006a257600080fd5b50620006ff600480360381019080803590602001908201803590602001908080601f0160208091040260200160405190810160405280939291908181526020018383808284378201915050505050509192919290505050620016ee565b005b3480156200070e57600080fd5b506200076b600480360381019080803590602001908201803590602001908080601f016020809104026020016040519081016040528093929190818152602001838380828437820191505050505050919291929050505062001a98565b604051808260ff1660ff16815260200191505060405180910390f35b3480156200079457600080fd5b50620007cb600480360381019080803573ffffffffffffffffffffffffffffffffffffffff16906020019092919050505062001b98565b6040518082815260200191505060405180910390f35b348015620007ee57600080fd5b506200080f6004803603810190808035906020019092919050505062001bb0565b604051808260ff1660ff16815260200191505060405180910390f35b3480156200083857600080fd5b506200089f600480360381019080803590602001908201803590602001908080601f01602080910402602001604051908101604052809392919081815260200183838082843782019150505050505091929192908035906020019092919050505062001bd0565b6040518082815260200191505060405180910390f35b348015620008c257600080fd5b50620008f9600480360381019080803573ffffffffffffffffffffffffffffffffffffffff16906020019092919050505062001df0565b6040518082815260200191505060405180910390f35b3480156200091c57600080fd5b506200093d6004803603810190808035906020019092919050505062001e08565b604051808273ffffffffffffffffffffffffffffffffffffffff1673ffffffffffffffffffffffffffffffffffffffff16815260200191505060405180910390f35b3480156200098c57600080fd5b506200099762001e3b565b6040518082815260200191505060405180910390f35b62000a09600480360381019080803590602001908201803590602001908080601f016020809104026020016040519081016040528093929190818152602001838380828437820191505050505050919291929050505062001e41565b005b34801562000a1857600080fd5b5062000a4f600480360381019080803573ffffffffffffffffffffffffffffffffffffffff16906020019092919050505062002498565b604051808260ff1660ff16815260200191505060405180910390f35b62000a75620024b8565b005b34801562000a8457600080fd5b5062000b0b600480360381019080803590602001908201803590602001908080601f016020809104026020016040519081016040528093929190818152602001838380828437820191505050505050919291929080359060200190929190803573ffffffffffffffffffffffffffffffffffffffff169060200190929190505050620025b7565b005b34801562000b1a57600080fd5b5062000b25620028ac565b6040518082815260200191505060405180910390f35b34801562000b4857600080fd5b5062000b7f600480360381019080803573ffffffffffffffffffffffffffffffffffffffff169060200190929190505050620028b2565b6040518082815260200191505060405180910390f35b34801562000ba257600080fd5b5062000c29600480360381019080803590602001908201803590602001908080601f016020809104026020016040519081016040528093929190818152602001838380828437820191505050505050919291929080359060200190929190803573ffffffffffffffffffffffffffffffffffffffff169060200190929190505050620028ca565b005b600080828401905083811015151562000c4357600080fd5b8091505092915050565b600080600460003373ffffffffffffffffffffffffffffffffffffffff1673ffffffffffffffffffffffffffffffffffffffff16815260200190815260200160002054915060016006600084815260200190815260200160002060009054906101000a900460ff1660ff1614151562000cc557600080fd5b600560003373ffffffffffffffffffffffffffffffffffffffff1673ffffffffffffffffffffffffffffffffffffffff1681526020019081526020016000205490506007600083815260200190815260200160002060009054906101000a900473ffffffffffffffffffffffffffffffffffffffff1673ffffffffffffffffffffffffffffffffffffffff166108fc829081150290604051600060405180830381858888f1935050505015801562000d81573d6000803e3d6000fd5b505050565b60003073ffffffffffffffffffffffffffffffffffffffff1631905090565b60008060009054906101000a900473ffffffffffffffffffffffffffffffffffffffff1673ffffffffffffffffffffffffffffffffffffffff163373ffffffffffffffffffffffffffffffffffffffff1614151562000e0357600080fd5b60086000846040516020018082805190602001908083835b60208310151562000e42578051825260208201915060208101905060208303925062000e1b565b6001836020036101000a0380198251168184511680821785525050505050509050019150506040516020818303038152906040526040518082805190602001908083835b60208310151562000ead578051825260208201915060208101905060208303925062000e86565b6001836020036101000a03801982511681845116808217855250505050505090500191505060405180910390206001900481526020019081526020016000209050600081600201541415151562000f0357600080fd5b813073ffffffffffffffffffffffffffffffffffffffff16311015151562000f2a57600080fd5b8060080160009054906101000a900473ffffffffffffffffffffffffffffffffffffffff1673ffffffffffffffffffffffffffffffffffffffff166108fc839081150290604051600060405180830381858888f1935050505015801562000f95573d6000803e3d6000fd5b507ff39ed54c3a63ca881695c190da1e9572ccc241c340d9f41a22677f1d90bbb43c82846040518083815260200180602001828103825283818151815260200191508051906020019080838360005b838110156200100157808201518184015260208101905062000fe4565b50505050905090810190601f1680156200102f5780820380516001836020036101000a031916815260200191505b50935050505060405180910390a1505050565b60008060086000846040516020018082805190602001908083835b6020831015156200108457805182526020820191506020810190506020830392506200105d565b6001836020036101000a0380198251168184511680821785525050505050509050019150506040516020818303038152906040526040518082805190602001908083835b602083101515620010ef5780518252602082019150602081019050602083039250620010c8565b6001836020036101000a038019825116818451168082178552505050505050905001915050604051809103902060019004815260200190815260200160002090506200114d81600301548260060154620030a490919063ffffffff16565b915050919050565b600060076000836040516020018082805190602001908083835b6020831015156200119657805182526020820191506020810190506020830392506200116f565b6001836020036101000a0380198251168184511680821785525050505050509050019150506040516020818303038152906040526040518082805190602001908083835b602083101515620012015780518252602082019150602081019050602083039250620011da565b6001836020036101000a038019825116818451168082178552505050505050905001915050604051809103902060019004815260200190815260200160002060009054906101000a900473ffffffffffffffffffffffffffffffffffffffff1673ffffffffffffffffffffffffffffffffffffffff16319050919050565b6008602052806000526040600020600091509050806002015490806003015490806004018054600181600116156101000203166002900480601f0160208091040260200160405190810160405280929190818152602001828054600181600116156101000203166002900480156200133b5780601f106200130f576101008083540402835291602001916200133b565b820191906000526020600020905b8154815290600101906020018083116200131d57829003601f168201915b5050505050908060050154908060060154908060070160009054906101000a900473ffffffffffffffffffffffffffffffffffffffff16908060080160009054906101000a900473ffffffffffffffffffffffffffffffffffffffff16908060090160009054906101000a900473ffffffffffffffffffffffffffffffffffffffff16905088565b60008060086000846040516020018082805190602001908083835b602083101515620014055780518252602082019150602081019050602083039250620013de565b6001836020036101000a0380198251168184511680821785525050505050509050019150506040516020818303038152906040526040518082805190602001908083835b60208310151562001470578051825260208201915060208101905060208303925062001449565b6001836020036101000a0380198251168184511680821785525050505050509050019150506040518091039020600190048152602001908152602001600020905060008160030154111515620014c557600080fd5b8060030154915050919050565b6000600160066000846040516020018082805190602001908083835b602083101515620015155780518252602082019150602081019050602083039250620014ee565b6001836020036101000a0380198251168184511680821785525050505050509050019150506040516020818303038152906040526040518082805190602001908083835b60208310151562001580578051825260208201915060208101905060208303925062001559565b6001836020036101000a038019825116818451168082178552505050505050905001915050604051809103902060019004815260200190815260200160002060009054906101000a900460ff1660ff16141515620015dd57600080fd5b60076000836040516020018082805190602001908083835b6020831015156200161c5780518252602082019150602081019050602083039250620015f5565b6001836020036101000a0380198251168184511680821785525050505050509050019150506040516020818303038152906040526040518082805190602001908083835b60208310151562001687578051825260208201915060208101905060208303925062001660565b6001836020036101000a038019825116818451168082178552505050505050905001915050604051809103902060019004815260200190815260200160002060009054906101000a900473ffffffffffffffffffffffffffffffffffffffff169050919050565b600060066000836040516020018082805190602001908083835b6020831015156200172f578051825260208201915060208101905060208303925062001708565b6001836020036101000a0380198251168184511680821785525050505050509050019150506040516020818303038152906040526040518082805190602001908083835b6020831015156200179a578051825260208201915060208101905060208303925062001773565b6001836020036101000a038019825116818451168082178552505050505050905001915050604051809103902060019004815260200190815260200160002060009054906101000a900460ff1660ff16141515620017f757600080fd5b600060096000836040516020018082805190602001908083835b60208310151562001838578051825260208201915060208101905060208303925062001811565b6001836020036101000a0380198251168184511680821785525050505050509050019150506040516020818303038152906040526040518082805190602001908083835b602083101515620018a357805182526020820191506020810190506020830392506200187c565b6001836020036101000a038019825116818451168082178552505050505050905001915050604051809103902060019004815260200190815260200160002054141515620018f057600080fd5b600160096000836040516020018082805190602001908083835b6020831015156200193157805182526020820191506020810190506020830392506200190a565b6001836020036101000a0380198251168184511680821785525050505050509050019150506040516020818303038152906040526040518082805190602001908083835b6020831015156200199c578051825260208201915060208101905060208303925062001975565b6001836020036101000a0380198251168184511680821785525050505050509050019150506040518091039020600190048152602001908152602001600020819055503373ffffffffffffffffffffffffffffffffffffffff167f9e7637d10c6f58bcf03ad632c3c3fcb88d4489674fdce2a7723c260e141ac398826040518080602001828103825283818151815260200191508051906020019080838360005b8381101562001a5a57808201518184015260208101905062001a3d565b50505050905090810190601f16801562001a885780820380516001836020036101000a031916815260200191505b509250505060405180910390a250565b600060066000836040516020018082805190602001908083835b60208310151562001ad9578051825260208201915060208101905060208303925062001ab2565b6001836020036101000a0380198251168184511680821785525050505050509050019150506040516020818303038152906040526040518082805190602001908083835b60208310151562001b44578051825260208201915060208101905060208303925062001b1d565b6001836020036101000a038019825116818451168082178552505050505050905001915050604051809103902060019004815260200190815260200160002060009054906101000a900460ff169050919050565b60046020528060005260406000206000915090505481565b60066020528060005260406000206000915054906101000a900460ff1681565b6000806000809054906101000a900473ffffffffffffffffffffffffffffffffffffffff1673ffffffffffffffffffffffffffffffffffffffff163373ffffffffffffffffffffffffffffffffffffffff1614151562001c2f57600080fd5b60086000856040516020018082805190602001908083835b60208310151562001c6e578051825260208201915060208101905060208303925062001c47565b6001836020036101000a0380198251168184511680821785525050505050509050019150506040516020818303038152906040526040518082805190602001908083835b60208310151562001cd9578051825260208201915060208101905060208303925062001cb2565b6001836020036101000a0380198251168184511680821785525050505050509050019150506040518091039020600190048152602001908152602001600020905062001d3383826006015462000c2b90919063ffffffff16565b81600601819055507f7111d56781ecdd48151e807951a9dbe25e0bb304cbe9f2a7ae57c19c620ca64284846040518080602001838152602001828103825284818151815260200191508051906020019080838360005b8381101562001da657808201518184015260208101905062001d89565b50505050905090810190601f16801562001dd45780820380516001836020036101000a031916815260200191505b50935050505060405180910390a1806006015491505092915050565b60056020528060005260406000206000915090505481565b60076020528060005260406000206000915054906101000a900473ffffffffffffffffffffffffffffffffffffffff1681565b60025481565b6000803411151562001e5257600080fd5b600160066000846040516020018082805190602001908083835b60208310151562001e93578051825260208201915060208101905060208303925062001e6c565b6001836020036101000a0380198251168184511680821785525050505050509050019150506040516020818303038152906040526040518082805190602001908083835b60208310151562001efe578051825260208201915060208101905060208303925062001ed7565b6001836020036101000a038019825116818451168082178552505050505050905001915050604051809103902060019004815260200190815260200160002060009054906101000a900460ff1660ff1614151562001f5b57600080fd5b60086000836040516020018082805190602001908083835b60208310151562001f9a578051825260208201915060208101905060208303925062001f73565b6001836020036101000a0380198251168184511680821785525050505050509050019150506040516020818303038152906040526040518082805190602001908083835b60208310151562002005578051825260208201915060208101905060208303925062001fde565b6001836020036101000a0380198251168184511680821785525050505050509050019150506040518091039020600190048152602001908152602001600020905034600560003373ffffffffffffffffffffffffffffffffffffffff1673ffffffffffffffffffffffffffffffffffffffff168152602001908152602001600020819055506001600360003373ffffffffffffffffffffffffffffffffffffffff1673ffffffffffffffffffffffffffffffffffffffff16815260200190815260200160002060006101000a81548160ff021916908360ff160217905550816040516020018082805190602001908083835b6020831015156200211e5780518252602082019150602081019050602083039250620020f7565b6001836020036101000a0380198251168184511680821785525050505050509050019150506040516020818303038152906040526040518082805190602001908083835b60208310151562002189578051825260208201915060208101905060208303925062002162565b6001836020036101000a038019825116818451168082178552505050505050905001915050604051809103902060019004600460003373ffffffffffffffffffffffffffffffffffffffff1673ffffffffffffffffffffffffffffffffffffffff1681526020019081526020016000208190555060018160000160003373ffffffffffffffffffffffffffffffffffffffff1673ffffffffffffffffffffffffffffffffffffffff16815260200190815260200160002060006101000a81548160ff021916908360ff160217905550620022ae348260010160003373ffffffffffffffffffffffffffffffffffffffff1673ffffffffffffffffffffffffffffffffffffffff1681526020019081526020016000205462000c2b90919063ffffffff16565b8160010160003373ffffffffffffffffffffffffffffffffffffffff1673ffffffffffffffffffffffffffffffffffffffff168152602001908152602001600020819055506200230d6001826002015462000c2b90919063ffffffff16565b81600201819055504281600501819055506200233734826003015462000c2b90919063ffffffff16565b81600301819055506200239334600a60003373ffffffffffffffffffffffffffffffffffffffff1673ffffffffffffffffffffffffffffffffffffffff1681526020019081526020016000205462000c2b90919063ffffffff16565b600a60003373ffffffffffffffffffffffffffffffffffffffff1673ffffffffffffffffffffffffffffffffffffffff168152602001908152602001600020819055503373ffffffffffffffffffffffffffffffffffffffff167fcf76696fec6613453db3fc8d0e87a2417d6033db7623130bae09a2d82c06813b34846040518083815260200180602001828103825283818151815260200191508051906020019080838360005b83811015620024585780820151818401526020810190506200243b565b50505050905090810190601f168015620024865780820380516001836020036101000a031916815260200191505b50935050505060405180910390a25050565b60036020528060005260406000206000915054906101000a900460ff1681565b620024cf3460015462000c2b90919063ffffffff16565b6001819055506001600360003373ffffffffffffffffffffffffffffffffffffffff1673ffffffffffffffffffffffffffffffffffffffff16815260200190815260200160002060006101000a81548160ff021916908360ff1602179055503373ffffffffffffffffffffffffffffffffffffffff167fcf76696fec6613453db3fc8d0e87a2417d6033db7623130bae09a2d82c06813b346040518082815260200180602001828103825260078152602001807f67656e65726963000000000000000000000000000000000000000000000000008152506020019250505060405180910390a2565b6000809054906101000a900473ffffffffffffffffffffffffffffffffffffffff1673ffffffffffffffffffffffffffffffffffffffff163373ffffffffffffffffffffffffffffffffffffffff161415156200261357600080fd5b600160096000856040516020018082805190602001908083835b6020831015156200265457805182526020820191506020810190506020830392506200262d565b6001836020036101000a0380198251168184511680821785525050505050509050019150506040516020818303038152906040526040518082805190602001908083835b602083101515620026bf578051825260208201915060208101905060208303925062002698565b6001836020036101000a0380198251168184511680821785525050505050509050019150506040518091039020600190048152602001908152602001600020541415156200270c57600080fd5b62002719838383620028ca565b600260096000856040516020018082805190602001908083835b6020831015156200275a578051825260208201915060208101905060208303925062002733565b6001836020036101000a0380198251168184511680821785525050505050509050019150506040516020818303038152906040526040518082805190602001908083835b602083101515620027c557805182526020820191506020810190506020830392506200279e565b6001836020036101000a0380198251168184511680821785525050505050509050019150506040518091039020600190048152602001908152602001600020819055507fb8693ca6963890ed75ddc33a4bfb4c8c5c5fd5cb6108904d4a14fa40d0961c56836040518080602001828103825283818151815260200191508051906020019080838360005b838110156200286c5780820151818401526020810190506200284f565b50505050905090810190601f1680156200289a5780820380516001836020036101000a031916815260200191505b509250505060405180910390a1505050565b60015481565b600a6020528060005260406000206000915090505481565b620028d4620030c6565b6000809054906101000a900473ffffffffffffffffffffffffffffffffffffffff1673ffffffffffffffffffffffffffffffffffffffff163373ffffffffffffffffffffffffffffffffffffffff161415156200293057600080fd5b600060066000866040516020018082805190602001908083835b6020831015156200297157805182526020820191506020810190506020830392506200294a565b6001836020036101000a0380198251168184511680821785525050505050509050019150506040516020818303038152906040526040518082805190602001908083835b602083101515620029dc5780518252602082019150602081019050602083039250620029b5565b6001836020036101000a038019825116818451168082178552505050505050905001915050604051809103902060019004815260200190815260200160002060009054906101000a900460ff1660ff1614151562002a3957600080fd5b838160400181905250818160e0019073ffffffffffffffffffffffffffffffffffffffff16908173ffffffffffffffffffffffffffffffffffffffff1681525050828160800181815250508060086000866040516020018082805190602001908083835b60208310151562002ac4578051825260208201915060208101905060208303925062002a9d565b6001836020036101000a0380198251168184511680821785525050505050509050019150506040516020818303038152906040526040518082805190602001908083835b60208310151562002b2f578051825260208201915060208101905060208303925062002b08565b6001836020036101000a03801982511681845116808217855250505050505090500191505060405180910390206001900481526020019081526020016000206000820151816002015560208201518160030155604082015181600401908051906020019062002ba09291906200314e565b50606082015181600501556080820151816006015560a08201518160070160006101000a81548173ffffffffffffffffffffffffffffffffffffffff021916908373ffffffffffffffffffffffffffffffffffffffff16021790555060c08201518160080160006101000a81548173ffffffffffffffffffffffffffffffffffffffff021916908373ffffffffffffffffffffffffffffffffffffffff16021790555060e08201518160090160006101000a81548173ffffffffffffffffffffffffffffffffffffffff021916908373ffffffffffffffffffffffffffffffffffffffff16021790555090505062002ca5600160025462000c2b90919063ffffffff16565b600281905550838262002cb7620031d5565b80806020018373ffffffffffffffffffffffffffffffffffffffff1673ffffffffffffffffffffffffffffffffffffffff168152602001828103825284818151815260200191508051906020019080838360005b8381101562002d2857808201518184015260208101905062002d0b565b50505050905090810190601f16801562002d565780820380516001836020036101000a031916815260200191505b509350505050604051809103906000f08015801562002d79573d6000803e3d6000fd5b508160c0019073ffffffffffffffffffffffffffffffffffffffff16908173ffffffffffffffffffffffffffffffffffffffff1681525050600160066000866040516020018082805190602001908083835b60208310151562002df2578051825260208201915060208101905060208303925062002dcb565b6001836020036101000a0380198251168184511680821785525050505050509050019150506040516020818303038152906040526040518082805190602001908083835b60208310151562002e5d578051825260208201915060208101905060208303925062002e36565b6001836020036101000a038019825116818451168082178552505050505050905001915050604051809103902060019004815260200190815260200160002060006101000a81548160ff021916908360ff1602179055508060c0015160076000866040516020018082805190602001908083835b60208310151562002ef8578051825260208201915060208101905060208303925062002ed1565b6001836020036101000a0380198251168184511680821785525050505050509050019150506040516020818303038152906040526040518082805190602001908083835b60208310151562002f63578051825260208201915060208101905060208303925062002f3c565b6001836020036101000a038019825116818451168082178552505050505050905001915050604051809103902060019004815260200190815260200160002060006101000a81548173ffffffffffffffffffffffffffffffffffffffff021916908373ffffffffffffffffffffffffffffffffffffffff1602179055508173ffffffffffffffffffffffffffffffffffffffff167fc1490e357730c1a879f6dde9e035b50deef91f0b7521ef58d59d50b46683ca1385856040518080602001838152602001828103825284818151815260200191508051906020019080838360005b838110156200306257808201518184015260208101905062003045565b50505050905090810190601f168015620030905780820380516001836020036101000a031916815260200191505b50935050505060405180910390a250505050565b600080838311151515620030b757600080fd5b82840390508091505092915050565b610100604051908101604052806000815260200160008152602001606081526020016000815260200160008152602001600073ffffffffffffffffffffffffffffffffffffffff168152602001600073ffffffffffffffffffffffffffffffffffffffff168152602001600073ffffffffffffffffffffffffffffffffffffffff1681525090565b828054600181600116156101000203166002900490600052602060002090601f016020900481019282601f106200319157805160ff1916838001178555620031c2565b82800160010185558215620031c2579182015b82811115620031c1578251825591602001919060010190620031a4565b5b509050620031d19190620031e6565b5090565b6040516103e6806200320f83390190565b6200320b91905b8082111562003207576000816000905550600101620031ed565b5090565b905600608060405234801561001057600080fd5b506040516103e63803806103e68339810180604052810190808051820192919060200180519060200190929190505050816000908051906020019061005692919061009f565b5080600160006101000a81548173ffffffffffffffffffffffffffffffffffffffff021916908373ffffffffffffffffffffffffffffffffffffffff1602179055505050610144565b828054600181600116156101000203166002900490600052602060002090601f016020900481019282601f106100e057805160ff191683800117855561010e565b8280016001018555821561010e579182015b8281111561010d5782518255916020019190600101906100f2565b5b50905061011b919061011f565b5090565b61014191905b8082111561013d576000816000905550600101610125565b5090565b90565b610293806101536000396000f30060806040526004361061004c576000357c0100000000000000000000000000000000000000000000000000000000900463ffffffff1680630f657b4314610051578063efe4fe021461007c575b600080fd5b34801561005d57600080fd5b506100666100fd565b6040518082815260200191505060405180910390f35b34801561008857600080fd5b506100e3600480360381019080803590602001908201803590602001908080601f016020809104026020016040519081016040528093929190818152602001838380828437820191505050505050919291929050505061011c565b604051808215151515815260200191505060405180910390f35b60003073ffffffffffffffffffffffffffffffffffffffff1631905090565b6000600160009054906101000a900473ffffffffffffffffffffffffffffffffffffffff1673ffffffffffffffffffffffffffffffffffffffff163373ffffffffffffffffffffffffffffffffffffffff1614151561017a57600080fd5b60028290806001815401808255809150509060018203906000526020600020016000909192909190915090805190602001906101b79291906101c2565b505060019050919050565b828054600181600116156101000203166002900490600052602060002090601f016020900481019282601f1061020357805160ff1916838001178555610231565b82800160010185558215610231579182015b82811115610230578251825591602001919060010190610215565b5b50905061023e9190610242565b5090565b61026491905b80821115610260576000816000905550600101610248565b5090565b905600a165627a7a72305820026dd2eee08e8e323ea80fcaa705dc46c4d683d1d32c51f73f720a13bc3025a40029a165627a7a723058203d30686db4ce538a97981d859bd28589cc49398aafd1f26f4ada65d7c83407f00029",
  "source": "pragma solidity ^0.4.24;\nimport \"./Charity.sol\";\nimport \"./SafeMath.sol\";\nimport \"./OrgContract.sol\";\n\ncontract Contributions is Charity{\n    using SafeMath for uint;\n    event Request(address indexed from, string org);\n    event Approve(string org);\n    event DonorChoice(address donor, string org);\n\n\n    //event Debug(string debug, address addr, uint val2);\n    event Debug(string debug, uint val);\n\n    //Mission[] public requested;\n    mapping(uint => uint) requested;\n    //@dev map to store total contributions of specific address\n    mapping(address=>uint) public donorContributions;\n\n\n    //@dev allows user to request a mission to be added to charity\n    //add requested mission to list of waiting for approval\n    function requestMission(string org) public{\n        //require that mission doesn't already exist\n        require(existingMissions[uint(keccak256(abi.encodePacked(org)))] == 0);\n        //require that mission has not been already requested\n        require(requested[uint(keccak256(abi.encodePacked(org)))] == 0 );\n        requested[uint(keccak256(abi.encodePacked(org)))] = 1;\n        emit Request(msg.sender, org);\n    }\n\n    //@dev allows owner to approve request for new mission\n    //delete mission from pending list\n    function approveRequest(string org, uint _fundGoal, address _orgHead)\n    isOwner public{\n        require(requested[uint(keccak256(abi.encodePacked(org)))] == 1);\n        createMission(org, _fundGoal, _orgHead);\n        //TODO add address\n        //setting requested = 2 means mission already approved\n        //if requested = 0 then mission has never been requested\n        requested[uint(keccak256(abi.encodePacked(org)))] = 2;\n        emit Approve(org);\n    }\n\n    //@dev contributors donate to their specific mission via organization name\n    //NEW AND CHANGED FUNCTIONALITY:\n    //@dev msg.value now goes directly to mission without the need for passing\n    //through the governing body\n    function donate(string _org) payable public{\n        require(msg.value > 0);\n        require(existingMissions[uint(keccak256(abi.encodePacked(_org)))] == 1);\n\n        Mission storage mission = missions[uint(keccak256(abi.encodePacked(_org)))];\n\n        donorAmount[msg.sender] = msg.value;\n        donors[msg.sender] = 1;\n        donorChoice[msg.sender] = uint(keccak256(abi.encodePacked(_org)));\n\n        mission.contributors[msg.sender] = 1;\n        mission.addressDonations[msg.sender] = mission.addressDonations[msg.sender].add(msg.value);\n        mission.contributorCount = mission.contributorCount.add(1);\n        mission.date = now;\n        mission.amountDonated = mission.amountDonated.add(msg.value);\n        donorContributions[msg.sender] = donorContributions[msg.sender].add(msg.value);\n\n        emit Donated(msg.sender, msg.value, _org);\n    }\n\n    //@dev let donor verify donations\n    //has to be separate method because solidity (??) cannot accept ether\n    //and transfer in the same function\n    function verifyDonation() public{\n        //uint amount = msg.value;\n        //emit Debug(\"msgval = \", msg.value);\n        //require(msg.value > 0);\n        uint org = donorChoice[msg.sender];\n        require(existingMissions[org] == 1);\n        //Mission storage mission = missions[org];\n        //Mission mission = missions(org);\n        //TODO fix require:\n        //emit Debug(\"after first require\", address(mission.orgContract),1);\n        //uint oneEther = 1 ether;\n        //require(mission.fundGoal > (tempAmountDonated));\n        //address(mission.orgContract).transfer(msg.value);\n\n        uint donation = donorAmount[msg.sender];\n        //require(getBalance() >= donation);\n        //msg.sender.transfer(donation);\n        //TODO: reverting on transfer for this address\n        missionAddresses[org].transfer(donation); //Transferring amount to org contract\n        //totalDonations = totalDonations.add(amount);\n        //mission.contributors.push(msg.sender);\n\n    }\n\n    //@dev allow donations without specific organization\n    function genericDonation() payable public{\n      multipurposeBalance = multipurposeBalance.add(msg.value);\n      //totalDonations = totalDonations.add(msg.value);\n      donors[msg.sender] = 1;\n      emit Donated(msg.sender, msg.value, \"generic\");\n    }\n\n    //@dev return mission balance\n    function getMissionBalance(string org) public view returns(uint){\n        //Mission storage mission = missions[uint(keccak256(abi.encodePacked(org)))];\n        return missionAddresses[uint(keccak256(abi.encodePacked(org)))].balance;\n        //return mission.orgContract.getOrgBalance();\n        //return mission.availableAmount;\n    }\n\n    //@dev get total amount donated since the beginning\n    // i.e. disregarding \"give-backs\"\n    function getMissionTotalDonations(string org) public view returns(uint){\n      Mission storage mission = missions[uint(keccak256(abi.encodePacked(org)))];\n      require(mission.amountDonated > 0);\n      return mission.amountDonated;\n    }\n\n    //@dev get the orgContract address\n    function getMissionAddress(string _org) public view returns(address){\n      require(existingMissions[uint(keccak256(abi.encodePacked(_org)))] == 1);\n      //Mission storage mission = missions[uint(keccak256(abi.encodePacked(_org)))];\n      return missionAddresses[uint(keccak256(abi.encodePacked(_org)))];\n    }\n\n    function missionExists(string _org) public view returns(uint8){\n        return existingMissions[uint(keccak256(abi.encodePacked(_org)))];\n    }\n}\n",
  "sourcePath": "/Users/hazemtabbaa/Desktop/Other/give-back/contracts/Contributions.sol",
  "compiler": {
    "name": "solc",
    "version": "0.4.24+commit.e67f0147.Emscripten.clang"
  },
  "schemaVersion": "2.0.1",
  "updatedAt": "2018-11-25T20:50:51.530Z"
}