{
  "contractName": "Contributions",
  "abi": [
    {
      "constant": true,
      "inputs": [],
      "name": "getBalance",
      "outputs": [
        {
          "name": "",
          "type": "uint256"
        }
      ],
      "payable": false,
      "stateMutability": "view",
      "type": "function"
    },
    {
      "constant": false,
      "inputs": [
        {
          "name": "org",
          "type": "string"
        },
        {
          "name": "amount",
          "type": "uint256"
        }
      ],
      "name": "giveBack",
      "outputs": [],
      "payable": false,
      "stateMutability": "nonpayable",
      "type": "function"
    },
    {
      "constant": true,
      "inputs": [
        {
          "name": "_org",
          "type": "string"
        }
      ],
      "name": "donationsToFundGoal",
      "outputs": [
        {
          "name": "",
          "type": "uint256"
        }
      ],
      "payable": false,
      "stateMutability": "view",
      "type": "function"
    },
    {
      "constant": false,
      "inputs": [
        {
          "name": "_org",
          "type": "string"
        },
        {
          "name": "_fundGoal",
          "type": "uint256"
        }
      ],
      "name": "addFundGoal",
      "outputs": [
        {
          "name": "",
          "type": "uint256"
        }
      ],
      "payable": false,
      "stateMutability": "nonpayable",
      "type": "function"
    },
    {
      "constant": true,
      "inputs": [],
      "name": "missionCounter",
      "outputs": [
        {
          "name": "",
          "type": "uint256"
        }
      ],
      "payable": false,
      "stateMutability": "view",
      "type": "function"
    },
    {
      "constant": true,
      "inputs": [],
      "name": "multipurposeBalance",
      "outputs": [
        {
          "name": "",
          "type": "uint256"
        }
      ],
      "payable": false,
      "stateMutability": "view",
      "type": "function"
    },
    {
      "constant": false,
      "inputs": [
        {
          "name": "_organization",
          "type": "string"
        },
        {
          "name": "_fundGoal",
          "type": "uint256"
        },
        {
          "name": "_orgHead",
          "type": "address"
        }
      ],
      "name": "createMission",
      "outputs": [],
      "payable": false,
      "stateMutability": "nonpayable",
      "type": "function"
    },
    {
      "payable": true,
      "stateMutability": "payable",
      "type": "fallback"
    },
    {
      "anonymous": false,
      "inputs": [
        {
          "indexed": true,
          "name": "from",
          "type": "address"
        },
        {
          "indexed": false,
          "name": "org",
          "type": "string"
        }
      ],
      "name": "Request",
      "type": "event"
    },
    {
      "anonymous": false,
      "inputs": [
        {
          "indexed": true,
          "name": "org",
          "type": "string"
        }
      ],
      "name": "Approve",
      "type": "event"
    },
    {
      "anonymous": false,
      "inputs": [
        {
          "indexed": true,
          "name": "from",
          "type": "address"
        },
        {
          "indexed": false,
          "name": "amount",
          "type": "uint256"
        },
        {
          "indexed": false,
          "name": "organization",
          "type": "string"
        }
      ],
      "name": "Donated",
      "type": "event"
    },
    {
      "anonymous": false,
      "inputs": [
        {
          "indexed": false,
          "name": "amount",
          "type": "uint256"
        },
        {
          "indexed": false,
          "name": "organization",
          "type": "string"
        }
      ],
      "name": "Given",
      "type": "event"
    },
    {
      "anonymous": false,
      "inputs": [
        {
          "indexed": false,
          "name": "org",
          "type": "string"
        },
        {
          "indexed": false,
          "name": "fundGoal",
          "type": "uint256"
        },
        {
          "indexed": true,
          "name": "orgHead",
          "type": "address"
        }
      ],
      "name": "CreatedMission",
      "type": "event"
    },
    {
      "anonymous": false,
      "inputs": [
        {
          "indexed": false,
          "name": "org",
          "type": "string"
        },
        {
          "indexed": false,
          "name": "fundGoal",
          "type": "uint256"
        }
      ],
      "name": "AddedFundGoal",
      "type": "event"
    },
    {
      "constant": false,
      "inputs": [
        {
          "name": "org",
          "type": "string"
        }
      ],
      "name": "requestMission",
      "outputs": [],
      "payable": false,
      "stateMutability": "nonpayable",
      "type": "function"
    },
    {
      "constant": false,
      "inputs": [
        {
          "name": "org",
          "type": "string"
        }
      ],
      "name": "approveRequest",
      "outputs": [],
      "payable": false,
      "stateMutability": "nonpayable",
      "type": "function"
    },
    {
      "constant": false,
      "inputs": [
        {
          "name": "org",
          "type": "string"
        }
      ],
      "name": "donate",
      "outputs": [],
      "payable": true,
      "stateMutability": "payable",
      "type": "function"
    },
    {
      "constant": false,
      "inputs": [],
      "name": "genericDonation",
      "outputs": [],
      "payable": true,
      "stateMutability": "payable",
      "type": "function"
    },
    {
      "constant": true,
      "inputs": [
        {
          "name": "org",
          "type": "string"
        }
      ],
      "name": "getAvailableToGiveMission",
      "outputs": [
        {
          "name": "",
          "type": "uint256"
        }
      ],
      "payable": false,
      "stateMutability": "view",
      "type": "function"
    },
    {
      "constant": true,
      "inputs": [
        {
          "name": "org",
          "type": "string"
        }
      ],
      "name": "getMissionTotalDonations",
      "outputs": [
        {
          "name": "",
          "type": "uint256"
        }
      ],
      "payable": false,
      "stateMutability": "view",
      "type": "function"
    }
  ],
  "bytecode": "0x6080604052336000806101000a81548173ffffffffffffffffffffffffffffffffffffffff021916908373ffffffffffffffffffffffffffffffffffffffff16021790555061228d806100536000396000f3006080604052600436106100c5576000357c0100000000000000000000000000000000000000000000000000000000900463ffffffff16806312065fe0146101c2578063167595ee146101ed5780631a0f74fc146102605780631e0715df146102dd57806334f5ca6a146103465780633b36ceae146103c35780635382b5cf1461042c57806358157973146104a9578063b276345514610530578063b5aebc801461055b578063d0ef19fe146105b7578063dcd4491b146105c1578063fd2202ce146105ec575b6100da3460015461067f90919063ffffffff16565b6001819055506001600360003373ffffffffffffffffffffffffffffffffffffffff1673ffffffffffffffffffffffffffffffffffffffff16815260200190815260200160002060006101000a81548160ff021916908360ff1602179055503373ffffffffffffffffffffffffffffffffffffffff167fcf76696fec6613453db3fc8d0e87a2417d6033db7623130bae09a2d82c06813b346040518082815260200180602001828103825260088152602001807f66616c6c6261636b0000000000000000000000000000000000000000000000008152506020019250505060405180910390a2005b3480156101ce57600080fd5b506101d76106a0565b6040518082815260200191505060405180910390f35b3480156101f957600080fd5b5061025e600480360381019080803590602001908201803590602001908080601f0160208091040260200160405190810160405280939291908181526020018383808284378201915050505050509192919290803590602001909291905050506106bf565b005b34801561026c57600080fd5b506102c7600480360381019080803590602001908201803590602001908080601f0160208091040260200160405190810160405280939291908181526020018383808284378201915050505050509192919290505050610908565b6040518082815260200191505060405180910390f35b3480156102e957600080fd5b50610344600480360381019080803590602001908201803590602001908080601f016020809104026020016040519081016040528093929190818152602001838380828437820191505050505050919291929050505061099b565b005b34801561035257600080fd5b506103ad600480360381019080803590602001908201803590602001908080601f0160208091040260200160405190810160405280939291908181526020018383808284378201915050505050509192919290505050610e2e565b6040518082815260200191505060405180910390f35b3480156103cf57600080fd5b5061042a600480360381019080803590602001908201803590602001908080601f0160208091040260200160405190810160405280939291908181526020018383808284378201915050505050509192919290505050610ebe565b005b34801561043857600080fd5b50610493600480360381019080803590602001908201803590602001908080601f0160208091040260200160405190810160405280939291908181526020018383808284378201915050505050509192919290505050611152565b6040518082815260200191505060405180910390f35b3480156104b557600080fd5b5061051a600480360381019080803590602001908201803590602001908080601f0160208091040260200160405190810160405280939291908181526020018383808284378201915050505050509192919290803590602001909291905050506111cf565b6040518082815260200191505060405180910390f35b34801561053c57600080fd5b5061054561136b565b6040518082815260200191505060405180910390f35b6105b5600480360381019080803590602001908201803590602001908080601f0160208091040260200160405190810160405280939291908181526020018383808284378201915050505050509192919290505050611371565b005b6105bf611724565b005b3480156105cd57600080fd5b506105d6611821565b6040518082815260200191505060405180910390f35b3480156105f857600080fd5b5061067d600480360381019080803590602001908201803590602001908080601f016020809104026020016040519081016040528093929190818152602001838380828437820191505050505050919291929080359060200190929190803573ffffffffffffffffffffffffffffffffffffffff169060200190929190505050611827565b005b600080828401905083811015151561069657600080fd5b8091505092915050565b60003073ffffffffffffffffffffffffffffffffffffffff1631905090565b60008060009054906101000a900473ffffffffffffffffffffffffffffffffffffffff1673ffffffffffffffffffffffffffffffffffffffff163373ffffffffffffffffffffffffffffffffffffffff1614151561071c57600080fd5b6004836040518082805190602001908083835b602083101515610754578051825260208201915060208101905060208303925061072f565b6001836020036101000a03801982511681845116808217855250505050505090500191505090815260200160405180910390209050600081600201541415151561079d57600080fd5b8181600301541115156107af57600080fd5b813073ffffffffffffffffffffffffffffffffffffffff1631101515156107d557600080fd5b8060090160009054906101000a900473ffffffffffffffffffffffffffffffffffffffff1673ffffffffffffffffffffffffffffffffffffffff166108fc839081150290604051600060405180830381858888f1935050505015801561083f573d6000803e3d6000fd5b50610857828260030154611c4790919063ffffffff16565b81600301819055507ff39ed54c3a63ca881695c190da1e9572ccc241c340d9f41a22677f1d90bbb43c82846040518083815260200180602001828103825283818151815260200191508051906020019080838360005b838110156108c85780820151818401526020810190506108ad565b50505050905090810190601f1680156108f55780820380516001836020036101000a031916815260200191505b50935050505060405180910390a1505050565b6000806004836040518082805190602001908083835b602083101515610943578051825260208201915060208101905060208303925061091e565b6001836020036101000a0380198251168184511680821785525050505050509050019150509081526020016040518091039020905061099381600401548260070154611c4790919063ffffffff16565b915050919050565b60008060009054906101000a900473ffffffffffffffffffffffffffffffffffffffff1673ffffffffffffffffffffffffffffffffffffffff163373ffffffffffffffffffffffffffffffffffffffff161415156109f857600080fd5b6005826040518082805190602001908083835b602083101515610a305780518252602082019150602081019050602083039250610a0b565b6001836020036101000a03801982511681845116808217855250505050505090500191505090815260200160405180910390209050806004836040518082805190602001908083835b602083101515610a9e5780518252602082019150602081019050602083039250610a79565b6001836020036101000a038019825116818451168082178552505050505050905001915050908152602001604051809103902060028201548160020155600382015481600301556004820154816004015560058201816005019080546001816001161561010002031660029004610b16929190611c68565b5060068201548160060155600782015481600701556008820160009054906101000a900473ffffffffffffffffffffffffffffffffffffffff168160080160006101000a81548173ffffffffffffffffffffffffffffffffffffffff021916908373ffffffffffffffffffffffffffffffffffffffff1602179055506009820160009054906101000a900473ffffffffffffffffffffffffffffffffffffffff168160090160006101000a81548173ffffffffffffffffffffffffffffffffffffffff021916908373ffffffffffffffffffffffffffffffffffffffff160217905550600a820160009054906101000a900473ffffffffffffffffffffffffffffffffffffffff1681600a0160006101000a81548173ffffffffffffffffffffffffffffffffffffffff021916908373ffffffffffffffffffffffffffffffffffffffff160217905550905050610c79600160025461067f90919063ffffffff16565b6002819055506005826040518082805190602001908083835b602083101515610cb75780518252602082019150602081019050602083039250610c92565b6001836020036101000a03801982511681845116808217855250505050505090500191505090815260200160405180910390206000600282016000905560038201600090556004820160009055600582016000610d149190611cef565b600682016000905560078201600090556008820160006101000a81549073ffffffffffffffffffffffffffffffffffffffff02191690556009820160006101000a81549073ffffffffffffffffffffffffffffffffffffffff0219169055600a820160006101000a81549073ffffffffffffffffffffffffffffffffffffffff02191690555050816040518082805190602001908083835b602083101515610dd15780518252602082019150602081019050602083039250610dac565b6001836020036101000a03801982511681845116808217855250505050505090500191505060405180910390207fb8693ca6963890ed75ddc33a4bfb4c8c5c5fd5cb6108904d4a14fa40d0961c5660405160405180910390a25050565b6000806004836040518082805190602001908083835b602083101515610e695780518252602082019150602081019050602083039250610e44565b6001836020036101000a0380198251168184511680821785525050505050509050019150509081526020016040518091039020905060008160040154111515610eb157600080fd5b8060040154915050919050565b610ec6611d37565b818160600181905250338160c0019073ffffffffffffffffffffffffffffffffffffffff16908173ffffffffffffffffffffffffffffffffffffffff1681525050806005836040518082805190602001908083835b602083101515610f405780518252602082019150602081019050602083039250610f1b565b6001836020036101000a03801982511681845116808217855250505050505090500191505090815260200160405180910390206000820151816002015560208201518160030155604082015181600401556060820151816005019080519060200190610fad929190611dc6565b506080820151816006015560a0820151816007015560c08201518160080160006101000a81548173ffffffffffffffffffffffffffffffffffffffff021916908373ffffffffffffffffffffffffffffffffffffffff16021790555060e08201518160090160006101000a81548173ffffffffffffffffffffffffffffffffffffffff021916908373ffffffffffffffffffffffffffffffffffffffff16021790555061010082015181600a0160006101000a81548173ffffffffffffffffffffffffffffffffffffffff021916908373ffffffffffffffffffffffffffffffffffffffff1602179055509050503373ffffffffffffffffffffffffffffffffffffffff167f9e7637d10c6f58bcf03ad632c3c3fcb88d4489674fdce2a7723c260e141ac398836040518080602001828103825283818151815260200191508051906020019080838360005b838110156111145780820151818401526020810190506110f9565b50505050905090810190601f1680156111415780820380516001836020036101000a031916815260200191505b509250505060405180910390a25050565b6000806004836040518082805190602001908083835b60208310151561118d5780518252602082019150602081019050602083039250611168565b6001836020036101000a038019825116818451168082178552505050505050905001915050908152602001604051809103902090508060030154915050919050565b6000806000809054906101000a900473ffffffffffffffffffffffffffffffffffffffff1673ffffffffffffffffffffffffffffffffffffffff163373ffffffffffffffffffffffffffffffffffffffff1614151561122d57600080fd5b6004846040518082805190602001908083835b6020831015156112655780518252602082019150602081019050602083039250611240565b6001836020036101000a038019825116818451168082178552505050505050905001915050908152602001604051809103902090506112b183826007015461067f90919063ffffffff16565b81600701819055507f7111d56781ecdd48151e807951a9dbe25e0bb304cbe9f2a7ae57c19c620ca64284846040518080602001838152602001828103825284818151815260200191508051906020019080838360005b83811015611322578082015181840152602081019050611307565b50505050905090810190601f16801561134f5780820380516001836020036101000a031916815260200191505b50935050505060405180910390a1806007015491505092915050565b60025481565b60008034915060008211151561138657600080fd5b6001600360003373ffffffffffffffffffffffffffffffffffffffff1673ffffffffffffffffffffffffffffffffffffffff16815260200190815260200160002060006101000a81548160ff021916908360ff1602179055506004836040518082805190602001908083835b60208310151561141757805182526020820191506020810190506020830392506113f2565b6001836020036101000a0380198251168184511680821785525050505050509050019150509081526020016040518091039020905061146382826004015461067f90919063ffffffff16565b816007015411151561147457600080fd5b61148b82826003015461067f90919063ffffffff16565b816003018190555060018160000160003373ffffffffffffffffffffffffffffffffffffffff1673ffffffffffffffffffffffffffffffffffffffff16815260200190815260200160002060006101000a81548160ff021916908360ff160217905550611542828260010160003373ffffffffffffffffffffffffffffffffffffffff1673ffffffffffffffffffffffffffffffffffffffff1681526020019081526020016000205461067f90919063ffffffff16565b8160010160003373ffffffffffffffffffffffffffffffffffffffff1673ffffffffffffffffffffffffffffffffffffffff1681526020019081526020016000208190555061159f6001826002015461067f90919063ffffffff16565b81600201819055504281600601819055506115c782826004015461067f90919063ffffffff16565b816004018190555061162134600660003373ffffffffffffffffffffffffffffffffffffffff1673ffffffffffffffffffffffffffffffffffffffff1681526020019081526020016000205461067f90919063ffffffff16565b600660003373ffffffffffffffffffffffffffffffffffffffff1673ffffffffffffffffffffffffffffffffffffffff168152602001908152602001600020819055503373ffffffffffffffffffffffffffffffffffffffff167fcf76696fec6613453db3fc8d0e87a2417d6033db7623130bae09a2d82c06813b83856040518083815260200180602001828103825283818151815260200191508051906020019080838360005b838110156116e45780820151818401526020810190506116c9565b50505050905090810190601f1680156117115780820380516001836020036101000a031916815260200191505b50935050505060405180910390a2505050565b6117393460015461067f90919063ffffffff16565b6001819055506001600360003373ffffffffffffffffffffffffffffffffffffffff1673ffffffffffffffffffffffffffffffffffffffff16815260200190815260200160002060006101000a81548160ff021916908360ff1602179055503373ffffffffffffffffffffffffffffffffffffffff167fcf76696fec6613453db3fc8d0e87a2417d6033db7623130bae09a2d82c06813b346040518082815260200180602001828103825260078152602001807f67656e65726963000000000000000000000000000000000000000000000000008152506020019250505060405180910390a2565b60015481565b61182f611d37565b6000809054906101000a900473ffffffffffffffffffffffffffffffffffffffff1673ffffffffffffffffffffffffffffffffffffffff163373ffffffffffffffffffffffffffffffffffffffff1614151561188a57600080fd5b8381606001819052508181610100019073ffffffffffffffffffffffffffffffffffffffff16908173ffffffffffffffffffffffffffffffffffffffff1681525050828160a0018181525050806004856040518082805190602001908083835b60208310151561190f57805182526020820191506020810190506020830392506118ea565b6001836020036101000a0380198251168184511680821785525050505050509050019150509081526020016040518091039020600082015181600201556020820151816003015560408201518160040155606082015181600501908051906020019061197c929190611dc6565b506080820151816006015560a0820151816007015560c08201518160080160006101000a81548173ffffffffffffffffffffffffffffffffffffffff021916908373ffffffffffffffffffffffffffffffffffffffff16021790555060e08201518160090160006101000a81548173ffffffffffffffffffffffffffffffffffffffff021916908373ffffffffffffffffffffffffffffffffffffffff16021790555061010082015181600a0160006101000a81548173ffffffffffffffffffffffffffffffffffffffff021916908373ffffffffffffffffffffffffffffffffffffffff160217905550905050611a80600160025461067f90919063ffffffff16565b6002819055508382611a90611e46565b80806020018373ffffffffffffffffffffffffffffffffffffffff1673ffffffffffffffffffffffffffffffffffffffff168152602001828103825284818151815260200191508051906020019080838360005b83811015611aff578082015181840152602081019050611ae4565b50505050905090810190601f168015611b2c5780820380516001836020036101000a031916815260200191505b509350505050604051809103906000f080158015611b4e573d6000803e3d6000fd5b508160e0019073ffffffffffffffffffffffffffffffffffffffff16908173ffffffffffffffffffffffffffffffffffffffff16815250508173ffffffffffffffffffffffffffffffffffffffff167fc1490e357730c1a879f6dde9e035b50deef91f0b7521ef58d59d50b46683ca1385856040518080602001838152602001828103825284818151815260200191508051906020019080838360005b83811015611c06578082015181840152602081019050611beb565b50505050905090810190601f168015611c335780820380516001836020036101000a031916815260200191505b50935050505060405180910390a250505050565b600080838311151515611c5957600080fd5b82840390508091505092915050565b828054600181600116156101000203166002900490600052602060002090601f016020900481019282601f10611ca15780548555611cde565b82800160010185558215611cde57600052602060002091601f016020900482015b82811115611cdd578254825591600101919060010190611cc2565b5b509050611ceb9190611e56565b5090565b50805460018160011615610100020316600290046000825580601f10611d155750611d34565b601f016020900490600052602060002090810190611d339190611e56565b5b50565b61012060405190810160405280600081526020016000815260200160008152602001606081526020016000815260200160008152602001600073ffffffffffffffffffffffffffffffffffffffff168152602001600073ffffffffffffffffffffffffffffffffffffffff168152602001600073ffffffffffffffffffffffffffffffffffffffff1681525090565b828054600181600116156101000203166002900490600052602060002090601f016020900481019282601f10611e0757805160ff1916838001178555611e35565b82800160010185558215611e35579182015b82811115611e34578251825591602001919060010190611e19565b5b509050611e429190611e56565b5090565b6040516103e680611e7c83390190565b611e7891905b80821115611e74576000816000905550600101611e5c565b5090565b905600608060405234801561001057600080fd5b506040516103e63803806103e68339810180604052810190808051820192919060200180519060200190929190505050816000908051906020019061005692919061009f565b5080600160006101000a81548173ffffffffffffffffffffffffffffffffffffffff021916908373ffffffffffffffffffffffffffffffffffffffff1602179055505050610144565b828054600181600116156101000203166002900490600052602060002090601f016020900481019282601f106100e057805160ff191683800117855561010e565b8280016001018555821561010e579182015b8281111561010d5782518255916020019190600101906100f2565b5b50905061011b919061011f565b5090565b61014191905b8082111561013d576000816000905550600101610125565b5090565b90565b610293806101536000396000f30060806040526004361061004c576000357c0100000000000000000000000000000000000000000000000000000000900463ffffffff1680630f657b4314610051578063efe4fe021461007c575b600080fd5b34801561005d57600080fd5b506100666100fd565b6040518082815260200191505060405180910390f35b34801561008857600080fd5b506100e3600480360381019080803590602001908201803590602001908080601f016020809104026020016040519081016040528093929190818152602001838380828437820191505050505050919291929050505061011c565b604051808215151515815260200191505060405180910390f35b60003073ffffffffffffffffffffffffffffffffffffffff1631905090565b6000600160009054906101000a900473ffffffffffffffffffffffffffffffffffffffff1673ffffffffffffffffffffffffffffffffffffffff163373ffffffffffffffffffffffffffffffffffffffff1614151561017a57600080fd5b60028290806001815401808255809150509060018203906000526020600020016000909192909190915090805190602001906101b79291906101c2565b505060019050919050565b828054600181600116156101000203166002900490600052602060002090601f016020900481019282601f1061020357805160ff1916838001178555610231565b82800160010185558215610231579182015b82811115610230578251825591602001919060010190610215565b5b50905061023e9190610242565b5090565b61026491905b80821115610260576000816000905550600101610248565b5090565b905600a165627a7a7230582033c68b53a10a85fb4763852cba0f88d4fda520714adb972c37c9974483f47d470029a165627a7a72305820e45d039ecde47366d29791762fb856320ae7128df0e3d34a58b8b1a2975be2020029",
  "source": "pragma solidity ^0.4.24;\nimport \"./Charity.sol\";\nimport \"./SafeMath.sol\";\n\ncontract Contributions is Charity{\n    using SafeMath for uint;\n    event Request(address indexed from, string org);\n    event Approve(string indexed org);\n\n    //Mission[] public requested;\n    mapping(string => Mission) requested;\n    //@dev map to store total contributions of specific address\n    mapping(address=>uint) donorContributions;\n\n    //@dev allows user to request a mission to be added to charity\n    //add requested mission to list of waiting for approval\n    function requestMission(string org) public{\n        //require that mission does not already exist\n        //require(missions[org].fundGoal != 0 );\n        Mission memory pendingMission;\n        pendingMission.organization = org;\n        pendingMission.requester = msg.sender;\n        requested[org] = pendingMission;\n        emit Request(msg.sender, org);\n    }\n\n    //@dev allows owner to approve request for new mission\n    //delete mission from pending list\n    function approveRequest(string org) isOwner public{\n        Mission storage mission = requested[org];\n        missions[org] = mission;\n        missionCounter = missionCounter.add(1);\n        //TODO add address\n        delete requested[org];\n        emit Approve(org);\n    }\n\n    //@dev contributors donate to their specific mission via organization name\n    function donate(string org) payable public{\n        uint amount = msg.value;\n        require(amount > 0);\n        donors[msg.sender] = 1;\n        Mission storage mission = missions[org];\n        //TODO fix require:\n        //Add fundgoal function or add in instantiation otherwise donate\n        //will revert on require since fundGoal = 0\n        require(mission.fundGoal > (mission.amountDonated.add(amount)));\n        mission.availableAmount = mission.availableAmount.add(amount);\n        //totalDonations = totalDonations.add(amount);\n        //mission.contributors.push(msg.sender);\n        mission.contributors[msg.sender] = 1;\n        mission.addressDonations[msg.sender] = mission.addressDonations[msg.sender].add(amount);\n        mission.contributorCount = mission.contributorCount.add(1);\n        mission.date = now;\n        mission.amountDonated = mission.amountDonated.add(amount);\n        donorContributions[msg.sender] = donorContributions[msg.sender].add(msg.value);\n        emit Donated(msg.sender, amount, org);\n    }\n\n    //@dev allow donations without specific organization\n    function genericDonation() payable public{\n      multipurposeBalance = multipurposeBalance.add(msg.value);\n      //totalDonations = totalDonations.add(msg.value);\n      donors[msg.sender] = 1;\n      emit Donated(msg.sender, msg.value, \"generic\");\n    }\n\n    //@dev return mission balance\n    function getAvailableToGiveMission(string org) public view returns(uint){\n        Mission storage mission = missions[org];\n        return mission.availableAmount;\n    }\n    //@dev get total amount donated since the beginning\n    // i.e. disregarding \"give-backs\"\n    function getMissionTotalDonations(string org) public view returns(uint){\n      Mission storage mission = missions[org];\n      require(mission.amountDonated > 0);\n      return mission.amountDonated;\n    }\n}\n",
  "sourcePath": "/Users/hazemtabbaa/Desktop/Other/give-back/contracts/Contributions.sol",
  "compiler": {
    "name": "solc",
    "version": "0.4.24+commit.e67f0147.Emscripten.clang"
  },
  "schemaVersion": "2.0.1",
  "updatedAt": "2018-11-04T03:27:37.810Z"
}