{
  "contractName": "Contributions",
  "abi": [
    {
      "constant": true,
      "inputs": [],
      "name": "getBalance",
      "outputs": [
        {
          "name": "",
          "type": "uint256"
        }
      ],
      "payable": false,
      "stateMutability": "view",
      "type": "function"
    },
    {
      "constant": false,
      "inputs": [
        {
          "name": "organization",
          "type": "string"
        }
      ],
      "name": "createMission",
      "outputs": [],
      "payable": false,
      "stateMutability": "nonpayable",
      "type": "function"
    },
    {
      "constant": false,
      "inputs": [
        {
          "name": "to",
          "type": "address"
        },
        {
          "name": "org",
          "type": "string"
        },
        {
          "name": "amount",
          "type": "uint256"
        }
      ],
      "name": "giveBack",
      "outputs": [],
      "payable": false,
      "stateMutability": "nonpayable",
      "type": "function"
    },
    {
      "constant": true,
      "inputs": [],
      "name": "missionCounter",
      "outputs": [
        {
          "name": "",
          "type": "uint256"
        }
      ],
      "payable": false,
      "stateMutability": "view",
      "type": "function"
    },
    {
      "constant": true,
      "inputs": [],
      "name": "multipurposeBalance",
      "outputs": [
        {
          "name": "",
          "type": "uint256"
        }
      ],
      "payable": false,
      "stateMutability": "view",
      "type": "function"
    },
    {
      "constant": true,
      "inputs": [],
      "name": "totalDonations",
      "outputs": [
        {
          "name": "",
          "type": "uint256"
        }
      ],
      "payable": false,
      "stateMutability": "view",
      "type": "function"
    },
    {
      "payable": true,
      "stateMutability": "payable",
      "type": "fallback"
    },
    {
      "anonymous": false,
      "inputs": [
        {
          "indexed": false,
          "name": "from",
          "type": "address"
        },
        {
          "indexed": false,
          "name": "org",
          "type": "string"
        }
      ],
      "name": "Request",
      "type": "event"
    },
    {
      "anonymous": false,
      "inputs": [
        {
          "indexed": false,
          "name": "org",
          "type": "string"
        }
      ],
      "name": "Approve",
      "type": "event"
    },
    {
      "anonymous": false,
      "inputs": [
        {
          "indexed": false,
          "name": "from",
          "type": "address"
        },
        {
          "indexed": false,
          "name": "amount",
          "type": "uint256"
        },
        {
          "indexed": false,
          "name": "organization",
          "type": "string"
        }
      ],
      "name": "Donated",
      "type": "event"
    },
    {
      "anonymous": false,
      "inputs": [
        {
          "indexed": false,
          "name": "to",
          "type": "address"
        },
        {
          "indexed": false,
          "name": "amount",
          "type": "uint256"
        },
        {
          "indexed": false,
          "name": "organization",
          "type": "string"
        }
      ],
      "name": "Given",
      "type": "event"
    },
    {
      "constant": false,
      "inputs": [
        {
          "name": "org",
          "type": "string"
        }
      ],
      "name": "requestMission",
      "outputs": [],
      "payable": false,
      "stateMutability": "nonpayable",
      "type": "function"
    },
    {
      "constant": false,
      "inputs": [
        {
          "name": "org",
          "type": "string"
        }
      ],
      "name": "approveRequest",
      "outputs": [],
      "payable": false,
      "stateMutability": "nonpayable",
      "type": "function"
    },
    {
      "constant": false,
      "inputs": [
        {
          "name": "org",
          "type": "string"
        }
      ],
      "name": "donate",
      "outputs": [],
      "payable": true,
      "stateMutability": "payable",
      "type": "function"
    },
    {
      "constant": true,
      "inputs": [
        {
          "name": "org",
          "type": "string"
        }
      ],
      "name": "getMissionBalance",
      "outputs": [
        {
          "name": "",
          "type": "uint256"
        }
      ],
      "payable": false,
      "stateMutability": "view",
      "type": "function"
    }
  ],
  "bytecode": "0x6080604052336000806101000a81548173ffffffffffffffffffffffffffffffffffffffff021916908373ffffffffffffffffffffffffffffffffffffffff1602179055506115bb806100536000396000f3006080604052600436106100a4576000357c0100000000000000000000000000000000000000000000000000000000900463ffffffff16806312065fe0146101d95780631b49df65146102045780631e0715df146102815780633b36ceae146102ea578063482b7fe814610353578063aa130d9a146103bc578063b27634551461044f578063b5aebc801461047a578063dcd4491b146104d6578063de2ed89314610501575b6100b93460025461052c90919063ffffffff16565b6002819055506100d43460015461052c90919063ffffffff16565b6001819055506001600460003373ffffffffffffffffffffffffffffffffffffffff1673ffffffffffffffffffffffffffffffffffffffff16815260200190815260200160002060006101000a81548160ff021916908360ff1602179055507fcf76696fec6613453db3fc8d0e87a2417d6033db7623130bae09a2d82c06813b3334604051808373ffffffffffffffffffffffffffffffffffffffff1673ffffffffffffffffffffffffffffffffffffffff16815260200182815260200180602001828103825260088152602001807f66616c6c6261636b000000000000000000000000000000000000000000000000815250602001935050505060405180910390a1005b3480156101e557600080fd5b506101ee61054d565b6040518082815260200191505060405180910390f35b34801561021057600080fd5b5061026b600480360381019080803590602001908201803590602001908080601f016020809104026020016040519081016040528093929190818152602001838380828437820191505050505050919291929050505061056c565b6040518082815260200191505060405180910390f35b34801561028d57600080fd5b506102e8600480360381019080803590602001908201803590602001908080601f01602080910402602001604051908101604052809392919081815260200183838082843782019150505050505091929192905050506105e9565b005b3480156102f657600080fd5b50610351600480360381019080803590602001908201803590602001908080601f0160208091040260200160405190810160405280939291908181526020018383808284378201915050505050509192919290505050610965565b005b34801561035f57600080fd5b506103ba600480360381019080803590602001908201803590602001908080601f0160208091040260200160405190810160405280939291908181526020018383808284378201915050505050509192919290505050610b9a565b005b3480156103c857600080fd5b5061044d600480360381019080803573ffffffffffffffffffffffffffffffffffffffff169060200190929190803590602001908201803590602001908080601f016020809104026020016040519081016040528093929190818152602001838380828437820191505050505050919291929080359060200190929190505050610d34565b005b34801561045b57600080fd5b50610464610fa9565b6040518082815260200191505060405180910390f35b6104d4600480360381019080803590602001908201803590602001908080601f0160208091040260200160405190810160405280939291908181526020018383808284378201915050505050509192919290505050610faf565b005b3480156104e257600080fd5b506104eb61125a565b6040518082815260200191505060405180910390f35b34801561050d57600080fd5b50610516611260565b6040518082815260200191505060405180910390f35b600080828401905083811015151561054357600080fd5b8091505092915050565b60003073ffffffffffffffffffffffffffffffffffffffff1631905090565b6000806005836040518082805190602001908083835b6020831015156105a75780518252602082019150602081019050602083039250610582565b6001836020036101000a038019825116818451168082178552505050505050905001915050908152602001604051809103902090508060020154915050919050565b60008060009054906101000a900473ffffffffffffffffffffffffffffffffffffffff1673ffffffffffffffffffffffffffffffffffffffff163373ffffffffffffffffffffffffffffffffffffffff1614151561064657600080fd5b6006826040518082805190602001908083835b60208310151561067e5780518252602082019150602081019050602083039250610659565b6001836020036101000a03801982511681845116808217855250505050505090500191505090815260200160405180910390209050806005836040518082805190602001908083835b6020831015156106ec57805182526020820191506020810190506020830392506106c7565b6001836020036101000a03801982511681845116808217855250505050505090500191505090815260200160405180910390206000820181600001908054610735929190611287565b506001820154816001015560028201548160020155600382018160030190805460018160011615610100020316600290046107719291906112d9565b5060048201548160040155600582015481600501556006820160009054906101000a900473ffffffffffffffffffffffffffffffffffffffff168160060160006101000a81548173ffffffffffffffffffffffffffffffffffffffff021916908373ffffffffffffffffffffffffffffffffffffffff1602179055509050506006826040518082805190602001908083835b6020831015156108285780518252602082019150602081019050602083039250610803565b6001836020036101000a03801982511681845116808217855250505050505090500191505090815260200160405180910390206000808201600061086c9190611360565b6001820160009055600282016000905560038201600061088c9190611381565b600482016000905560058201600090556006820160006101000a81549073ffffffffffffffffffffffffffffffffffffffff021916905550507fb8693ca6963890ed75ddc33a4bfb4c8c5c5fd5cb6108904d4a14fa40d0961c56826040518080602001828103825283818151815260200191508051906020019080838360005b8381101561092757808201518184015260208101905061090c565b50505050905090810190601f1680156109545780820380516001836020036101000a031916815260200191505b509250505060405180910390a15050565b61096d6113c9565b818160600181905250338160c0019073ffffffffffffffffffffffffffffffffffffffff16908173ffffffffffffffffffffffffffffffffffffffff1681525050806006836040518082805190602001908083835b6020831015156109e757805182526020820191506020810190506020830392506109c2565b6001836020036101000a03801982511681845116808217855250505050505090500191505090815260200160405180910390206000820151816000019080519060200190610a3692919061141d565b5060208201518160010155604082015181600201556060820151816003019080519060200190610a679291906114a7565b506080820151816004015560a0820151816005015560c08201518160060160006101000a81548173ffffffffffffffffffffffffffffffffffffffff021916908373ffffffffffffffffffffffffffffffffffffffff1602179055509050507f9e7637d10c6f58bcf03ad632c3c3fcb88d4489674fdce2a7723c260e141ac3983383604051808373ffffffffffffffffffffffffffffffffffffffff1673ffffffffffffffffffffffffffffffffffffffff16815260200180602001828103825283818151815260200191508051906020019080838360005b83811015610b5b578082015181840152602081019050610b40565b50505050905090810190601f168015610b885780820380516001836020036101000a031916815260200191505b50935050505060405180910390a15050565b610ba26113c9565b6000809054906101000a900473ffffffffffffffffffffffffffffffffffffffff1673ffffffffffffffffffffffffffffffffffffffff163373ffffffffffffffffffffffffffffffffffffffff16141515610bfd57600080fd5b818160600181905250806005836040518082805190602001908083835b602083101515610c3f5780518252602082019150602081019050602083039250610c1a565b6001836020036101000a03801982511681845116808217855250505050505090500191505090815260200160405180910390206000820151816000019080519060200190610c8e92919061141d565b5060208201518160010155604082015181600201556060820151816003019080519060200190610cbf9291906114a7565b506080820151816004015560a0820151816005015560c08201518160060160006101000a81548173ffffffffffffffffffffffffffffffffffffffff021916908373ffffffffffffffffffffffffffffffffffffffff1602179055509050506003600081548092919060010191905055505050565b60008060009054906101000a900473ffffffffffffffffffffffffffffffffffffffff1673ffffffffffffffffffffffffffffffffffffffff163373ffffffffffffffffffffffffffffffffffffffff16141515610d9157600080fd5b6005836040518082805190602001908083835b602083101515610dc95780518252602082019150602081019050602083039250610da4565b6001836020036101000a038019825116818451168082178552505050505050905001915050908152602001604051809103902090506000816001015414151515610e1257600080fd5b818160020154111515610e2457600080fd5b813073ffffffffffffffffffffffffffffffffffffffff163110151515610e4a57600080fd5b8373ffffffffffffffffffffffffffffffffffffffff166108fc839081150290604051600060405180830381858888f19350505050158015610e90573d6000803e3d6000fd5b50610ea68260015461126690919063ffffffff16565b600181905550610ec382826002015461126690919063ffffffff16565b81600201819055507fde3ec9fa1ba846c466aa2d622e31a7040b6ff55cc20ed4c122f6fb6e8cae0c63848385604051808473ffffffffffffffffffffffffffffffffffffffff1673ffffffffffffffffffffffffffffffffffffffff16815260200183815260200180602001828103825283818151815260200191508051906020019080838360005b83811015610f67578082015181840152602081019050610f4c565b50505050905090810190601f168015610f945780820380516001836020036101000a031916815260200191505b5094505050505060405180910390a150505050565b60035481565b600080349150600082111515610fc457600080fd5b6001600460003373ffffffffffffffffffffffffffffffffffffffff1673ffffffffffffffffffffffffffffffffffffffff16815260200190815260200160002060006101000a81548160ff021916908360ff1602179055506005836040518082805190602001908083835b6020831015156110555780518252602082019150602081019050602083039250611030565b6001836020036101000a038019825116818451168082178552505050505050905001915050908152602001604051809103902090506110a182826005015461052c90919063ffffffff16565b81600501541015156110b257600080fd5b6110c982826002015461052c90919063ffffffff16565b81600201819055506110e68260015461052c90919063ffffffff16565b600181905550806000013390806001815401808255809150509060018203906000526020600020016000909192909190916101000a81548173ffffffffffffffffffffffffffffffffffffffff021916908373ffffffffffffffffffffffffffffffffffffffff1602179055505061116c6001826001015461052c90919063ffffffff16565b81600101819055504281600401819055507fcf76696fec6613453db3fc8d0e87a2417d6033db7623130bae09a2d82c06813b338385604051808473ffffffffffffffffffffffffffffffffffffffff1673ffffffffffffffffffffffffffffffffffffffff16815260200183815260200180602001828103825283818151815260200191508051906020019080838360005b838110156112195780820151818401526020810190506111fe565b50505050905090810190601f1680156112465780820380516001836020036101000a031916815260200191505b5094505050505060405180910390a1505050565b60025481565b60015481565b60008083831115151561127857600080fd5b82840390508091505092915050565b8280548282559060005260206000209081019282156112c85760005260206000209182015b828111156112c75782548255916001019190600101906112ac565b5b5090506112d59190611527565b5090565b828054600181600116156101000203166002900490600052602060002090601f016020900481019282601f10611312578054855561134f565b8280016001018555821561134f57600052602060002091601f016020900482015b8281111561134e578254825591600101919060010190611333565b5b50905061135c919061156a565b5090565b508054600082559060005260206000209081019061137e919061156a565b50565b50805460018160011615610100020316600290046000825580601f106113a757506113c6565b601f0160209004906000526020600020908101906113c5919061156a565b5b50565b60e060405190810160405280606081526020016000815260200160008152602001606081526020016000815260200160008152602001600073ffffffffffffffffffffffffffffffffffffffff1681525090565b828054828255906000526020600020908101928215611496579160200282015b828111156114955782518260006101000a81548173ffffffffffffffffffffffffffffffffffffffff021916908373ffffffffffffffffffffffffffffffffffffffff1602179055509160200191906001019061143d565b5b5090506114a39190611527565b5090565b828054600181600116156101000203166002900490600052602060002090601f016020900481019282601f106114e857805160ff1916838001178555611516565b82800160010185558215611516579182015b828111156115155782518255916020019190600101906114fa565b5b509050611523919061156a565b5090565b61156791905b8082111561156357600081816101000a81549073ffffffffffffffffffffffffffffffffffffffff02191690555060010161152d565b5090565b90565b61158c91905b80821115611588576000816000905550600101611570565b5090565b905600a165627a7a723058202d75104e194ae84803142f1364f2a736139059f15019566fbb8bc76cb97d9fca0029",
  "source": "pragma solidity ^0.4.19;\nimport \"./Charity.sol\";\nimport \"./SafeMath.sol\";\n\ncontract Contributions is Charity{\n    using SafeMath for uint;\n    event Request(address from, string org);\n    event Approve(string org);\n\n    //Mission[] public requested;\n    mapping(string => Mission) requested;\n\n    //@dev allows user to request a mission to be added to charity\n    //add requested mission to list of waiting for approval\n    function requestMission(string org) public{\n        Mission memory pendingMission;\n        pendingMission.organization = org;\n        pendingMission.requester = msg.sender;\n        requested[org] = pendingMission;\n        emit Request(msg.sender, org);\n    }\n\n    //@dev allows owner to approve request for new mission\n    //delete mission from pending list\n    function approveRequest(string org) isOwner public{\n        Mission storage mission = requested[org];\n        missions[org] = mission;\n        //TODO add address\n        delete requested[org];\n        emit Approve(org);\n    }\n\n    //@dev contributors donate to their specific mission via organization name\n    function donate( string org) payable public{\n        uint amount = msg.value;\n        require(amount > 0);\n        donors[msg.sender] = 1;\n        Mission storage mission = missions[org];\n        require(mission.fundGoal < (mission.fundGoal.add(amount)));\n        mission.amountBalance = mission.amountBalance.add(amount);\n        totalDonations = totalDonations.add(amount);\n        mission.contributors.push(msg.sender);\n        mission.contributorCount = mission.contributorCount.add(1);\n        mission.date = now;\n        emit Donated(msg.sender, amount, org);\n    }\n\n    //@dev return mission balance\n    function getMissionBalance(string org) public view returns(uint){\n        Mission storage mission = missions[org];\n        return mission.amountBalance;\n    }\n}\n",
  "sourcePath": "/Users/hazemtabbaa/Desktop/Other/give-back/contracts/Contributions.sol",
  "compiler": {
    "name": "solc",
    "version": "0.4.24+commit.e67f0147.Emscripten.clang"
  },
  "schemaVersion": "2.0.1",
  "updatedAt": "2018-09-17T17:56:42.176Z"
}