{
  "contractName": "Donors",
  "abi": [
    {
      "constant": true,
      "inputs": [],
      "name": "getBalance",
      "outputs": [
        {
          "name": "",
          "type": "uint256"
        }
      ],
      "payable": false,
      "stateMutability": "view",
      "type": "function"
    },
    {
      "constant": false,
      "inputs": [
        {
          "name": "org",
          "type": "string"
        },
        {
          "name": "amount",
          "type": "uint256"
        }
      ],
      "name": "giveBack",
      "outputs": [],
      "payable": false,
      "stateMutability": "nonpayable",
      "type": "function"
    },
    {
      "constant": true,
      "inputs": [
        {
          "name": "_org",
          "type": "string"
        }
      ],
      "name": "donationsToFundGoal",
      "outputs": [
        {
          "name": "",
          "type": "uint256"
        }
      ],
      "payable": false,
      "stateMutability": "view",
      "type": "function"
    },
    {
      "constant": false,
      "inputs": [
        {
          "name": "org",
          "type": "string"
        }
      ],
      "name": "approveRequest",
      "outputs": [],
      "payable": false,
      "stateMutability": "nonpayable",
      "type": "function"
    },
    {
      "constant": true,
      "inputs": [
        {
          "name": "org",
          "type": "string"
        }
      ],
      "name": "getMissionTotalDonations",
      "outputs": [
        {
          "name": "",
          "type": "uint256"
        }
      ],
      "payable": false,
      "stateMutability": "view",
      "type": "function"
    },
    {
      "constant": false,
      "inputs": [
        {
          "name": "org",
          "type": "string"
        }
      ],
      "name": "requestMission",
      "outputs": [],
      "payable": false,
      "stateMutability": "nonpayable",
      "type": "function"
    },
    {
      "constant": true,
      "inputs": [
        {
          "name": "org",
          "type": "string"
        }
      ],
      "name": "getAvailableToGiveMission",
      "outputs": [
        {
          "name": "",
          "type": "uint256"
        }
      ],
      "payable": false,
      "stateMutability": "view",
      "type": "function"
    },
    {
      "constant": false,
      "inputs": [
        {
          "name": "_org",
          "type": "string"
        },
        {
          "name": "_fundGoal",
          "type": "uint256"
        }
      ],
      "name": "addFundGoal",
      "outputs": [
        {
          "name": "",
          "type": "uint256"
        }
      ],
      "payable": false,
      "stateMutability": "nonpayable",
      "type": "function"
    },
    {
      "constant": true,
      "inputs": [],
      "name": "missionCounter",
      "outputs": [
        {
          "name": "",
          "type": "uint256"
        }
      ],
      "payable": false,
      "stateMutability": "view",
      "type": "function"
    },
    {
      "constant": false,
      "inputs": [
        {
          "name": "org",
          "type": "string"
        }
      ],
      "name": "donate",
      "outputs": [],
      "payable": true,
      "stateMutability": "payable",
      "type": "function"
    },
    {
      "constant": false,
      "inputs": [],
      "name": "genericDonation",
      "outputs": [],
      "payable": true,
      "stateMutability": "payable",
      "type": "function"
    },
    {
      "constant": true,
      "inputs": [],
      "name": "multipurposeBalance",
      "outputs": [
        {
          "name": "",
          "type": "uint256"
        }
      ],
      "payable": false,
      "stateMutability": "view",
      "type": "function"
    },
    {
      "constant": false,
      "inputs": [
        {
          "name": "_organization",
          "type": "string"
        },
        {
          "name": "_fundGoal",
          "type": "uint256"
        },
        {
          "name": "_orgHead",
          "type": "address"
        }
      ],
      "name": "createMission",
      "outputs": [],
      "payable": false,
      "stateMutability": "nonpayable",
      "type": "function"
    },
    {
      "payable": true,
      "stateMutability": "payable",
      "type": "fallback"
    },
    {
      "anonymous": false,
      "inputs": [
        {
          "indexed": true,
          "name": "from",
          "type": "address"
        },
        {
          "indexed": false,
          "name": "org",
          "type": "string"
        }
      ],
      "name": "Request",
      "type": "event"
    },
    {
      "anonymous": false,
      "inputs": [
        {
          "indexed": true,
          "name": "org",
          "type": "string"
        }
      ],
      "name": "Approve",
      "type": "event"
    },
    {
      "anonymous": false,
      "inputs": [
        {
          "indexed": true,
          "name": "from",
          "type": "address"
        },
        {
          "indexed": false,
          "name": "amount",
          "type": "uint256"
        },
        {
          "indexed": false,
          "name": "organization",
          "type": "string"
        }
      ],
      "name": "Donated",
      "type": "event"
    },
    {
      "anonymous": false,
      "inputs": [
        {
          "indexed": false,
          "name": "amount",
          "type": "uint256"
        },
        {
          "indexed": false,
          "name": "organization",
          "type": "string"
        }
      ],
      "name": "Given",
      "type": "event"
    },
    {
      "anonymous": false,
      "inputs": [
        {
          "indexed": false,
          "name": "org",
          "type": "string"
        },
        {
          "indexed": false,
          "name": "fundGoal",
          "type": "uint256"
        },
        {
          "indexed": true,
          "name": "orgHead",
          "type": "address"
        }
      ],
      "name": "CreatedMission",
      "type": "event"
    },
    {
      "anonymous": false,
      "inputs": [
        {
          "indexed": false,
          "name": "org",
          "type": "string"
        },
        {
          "indexed": false,
          "name": "fundGoal",
          "type": "uint256"
        }
      ],
      "name": "AddedFundGoal",
      "type": "event"
    },
    {
      "constant": true,
      "inputs": [
        {
          "name": "addr",
          "type": "address"
        }
      ],
      "name": "isDonor",
      "outputs": [
        {
          "name": "",
          "type": "uint8"
        }
      ],
      "payable": false,
      "stateMutability": "view",
      "type": "function"
    },
    {
      "constant": true,
      "inputs": [
        {
          "name": "addr",
          "type": "address"
        }
      ],
      "name": "getAddressTotalDonations",
      "outputs": [
        {
          "name": "",
          "type": "uint256"
        }
      ],
      "payable": false,
      "stateMutability": "view",
      "type": "function"
    },
    {
      "constant": true,
      "inputs": [
        {
          "name": "addr",
          "type": "address"
        },
        {
          "name": "org",
          "type": "string"
        }
      ],
      "name": "isMissionDonor",
      "outputs": [
        {
          "name": "",
          "type": "uint8"
        }
      ],
      "payable": false,
      "stateMutability": "view",
      "type": "function"
    },
    {
      "constant": true,
      "inputs": [
        {
          "name": "addr",
          "type": "address"
        },
        {
          "name": "org",
          "type": "string"
        }
      ],
      "name": "getAddressToMissionDonations",
      "outputs": [
        {
          "name": "",
          "type": "uint256"
        }
      ],
      "payable": false,
      "stateMutability": "view",
      "type": "function"
    }
  ],
  "bytecode": "0x6080604052336000806101000a81548173ffffffffffffffffffffffffffffffffffffffff021916908373ffffffffffffffffffffffffffffffffffffffff1602179055506128e0806100536000396000f30060806040526004361062000103576000357c0100000000000000000000000000000000000000000000000000000000900463ffffffff16806312065fe01462000202578063167595ee14620002305780631a0f74fc14620002a65780631e0715df14620003265780632bc3d7aa146200039257806334f5ca6a14620003f25780633b36ceae14620004725780635382b5cf14620004de57806358157973146200055e578063634882a214620005e85780638356ed8e146200064257806393ab52bf14620006e8578063b27634551462000788578063b5aebc8014620007b6578063d0ef19fe1462000814578063dcd4491b1462000820578063fd2202ce146200084e575b6200011a34600154620008e490919063ffffffff16565b6001819055506001600360003373ffffffffffffffffffffffffffffffffffffffff1673ffffffffffffffffffffffffffffffffffffffff16815260200190815260200160002060006101000a81548160ff021916908360ff1602179055503373ffffffffffffffffffffffffffffffffffffffff167fcf76696fec6613453db3fc8d0e87a2417d6033db7623130bae09a2d82c06813b346040518082815260200180602001828103825260088152602001807f66616c6c6261636b0000000000000000000000000000000000000000000000008152506020019250505060405180910390a2005b3480156200020f57600080fd5b506200021a62000906565b6040518082815260200191505060405180910390f35b3480156200023d57600080fd5b50620002a4600480360381019080803590602001908201803590602001908080601f01602080910402602001604051908101604052809392919081815260200183838082843782019150505050505091929192908035906020019092919050505062000925565b005b348015620002b357600080fd5b5062000310600480360381019080803590602001908201803590602001908080601f016020809104026020016040519081016040528093929190818152602001838380828437820191505050505050919291929050505062000b7a565b6040518082815260200191505060405180910390f35b3480156200033357600080fd5b5062000390600480360381019080803590602001908201803590602001908080601f016020809104026020016040519081016040528093929190818152602001838380828437820191505050505050919291929050505062000c11565b005b3480156200039f57600080fd5b50620003d6600480360381019080803573ffffffffffffffffffffffffffffffffffffffff169060200190929190505050620010b3565b604051808260ff1660ff16815260200191505060405180910390f35b348015620003ff57600080fd5b506200045c600480360381019080803590602001908201803590602001908080601f016020809104026020016040519081016040528093929190818152602001838380828437820191505050505050919291929050505062001122565b6040518082815260200191505060405180910390f35b3480156200047f57600080fd5b50620004dc600480360381019080803590602001908201803590602001908080601f0160208091040260200160405190810160405280939291908181526020018383808284378201915050505050509192919290505050620011b5565b005b348015620004eb57600080fd5b5062000548600480360381019080803590602001908201803590602001908080601f0160208091040260200160405190810160405280939291908181526020018383808284378201915050505050509192919290505050620014d3565b6040518082815260200191505060405180910390f35b3480156200056b57600080fd5b50620005d2600480360381019080803590602001908201803590602001908080601f01602080910402602001604051908101604052809392919081815260200183838082843782019150505050505091929192908035906020019092919050505062001552565b6040518082815260200191505060405180910390f35b348015620005f557600080fd5b506200062c600480360381019080803573ffffffffffffffffffffffffffffffffffffffff169060200190929190505050620016f6565b6040518082815260200191505060405180910390f35b3480156200064f57600080fd5b50620006cc600480360381019080803573ffffffffffffffffffffffffffffffffffffffff169060200190929190803590602001908201803590602001908080601f01602080910402602001604051908101604052809392919081815260200183838082843782019150505050505091929192905050506200178e565b604051808260ff1660ff16815260200191505060405180910390f35b348015620006f557600080fd5b5062000772600480360381019080803573ffffffffffffffffffffffffffffffffffffffff169060200190929190803590602001908201803590602001908080601f016020809104026020016040519081016040528093929190818152602001838380828437820191505050505050919291929050505062001871565b6040518082815260200191505060405180910390f35b3480156200079557600080fd5b50620007a062001980565b6040518082815260200191505060405180910390f35b62000812600480360381019080803590602001908201803590602001908080601f016020809104026020016040519081016040528093929190818152602001838380828437820191505050505050919291929050505062001986565b005b6200081e62001d4c565b005b3480156200082d57600080fd5b506200083862001e4b565b6040518082815260200191505060405180910390f35b3480156200085b57600080fd5b50620008e2600480360381019080803590602001908201803590602001908080601f016020809104026020016040519081016040528093929190818152602001838380828437820191505050505050919291929080359060200190929190803573ffffffffffffffffffffffffffffffffffffffff16906020019092919050505062001e51565b005b6000808284019050838110151515620008fc57600080fd5b8091505092915050565b60003073ffffffffffffffffffffffffffffffffffffffff1631905090565b60008060009054906101000a900473ffffffffffffffffffffffffffffffffffffffff1673ffffffffffffffffffffffffffffffffffffffff163373ffffffffffffffffffffffffffffffffffffffff161415156200098357600080fd5b6004836040518082805190602001908083835b602083101515620009bd578051825260208201915060208101905060208303925062000996565b6001836020036101000a03801982511681845116808217855250505050505090500191505090815260200160405180910390209050600081600201541415151562000a0757600080fd5b81816003015411151562000a1a57600080fd5b813073ffffffffffffffffffffffffffffffffffffffff16311015151562000a4157600080fd5b8060090160009054906101000a900473ffffffffffffffffffffffffffffffffffffffff1673ffffffffffffffffffffffffffffffffffffffff166108fc839081150290604051600060405180830381858888f1935050505015801562000aac573d6000803e3d6000fd5b5062000ac68282600301546200228390919063ffffffff16565b81600301819055507ff39ed54c3a63ca881695c190da1e9572ccc241c340d9f41a22677f1d90bbb43c82846040518083815260200180602001828103825283818151815260200191508051906020019080838360005b8381101562000b3957808201518184015260208101905062000b1c565b50505050905090810190601f16801562000b675780820380516001836020036101000a031916815260200191505b50935050505060405180910390a1505050565b6000806004836040518082805190602001908083835b60208310151562000bb7578051825260208201915060208101905060208303925062000b90565b6001836020036101000a0380198251168184511680821785525050505050509050019150509081526020016040518091039020905062000c09816004015482600701546200228390919063ffffffff16565b915050919050565b60008060009054906101000a900473ffffffffffffffffffffffffffffffffffffffff1673ffffffffffffffffffffffffffffffffffffffff163373ffffffffffffffffffffffffffffffffffffffff1614151562000c6f57600080fd5b6005826040518082805190602001908083835b60208310151562000ca9578051825260208201915060208101905060208303925062000c82565b6001836020036101000a03801982511681845116808217855250505050505090500191505090815260200160405180910390209050806004836040518082805190602001908083835b60208310151562000d19578051825260208201915060208101905060208303925062000cf2565b6001836020036101000a03801982511681845116808217855250505050505090500191505090815260200160405180910390206002820154816002015560038201548160030155600482015481600401556005820181600501908054600181600116156101000203166002900462000d93929190620022a5565b5060068201548160060155600782015481600701556008820160009054906101000a900473ffffffffffffffffffffffffffffffffffffffff168160080160006101000a81548173ffffffffffffffffffffffffffffffffffffffff021916908373ffffffffffffffffffffffffffffffffffffffff1602179055506009820160009054906101000a900473ffffffffffffffffffffffffffffffffffffffff168160090160006101000a81548173ffffffffffffffffffffffffffffffffffffffff021916908373ffffffffffffffffffffffffffffffffffffffff160217905550600a820160009054906101000a900473ffffffffffffffffffffffffffffffffffffffff1681600a0160006101000a81548173ffffffffffffffffffffffffffffffffffffffff021916908373ffffffffffffffffffffffffffffffffffffffff16021790555090505062000ef86001600254620008e490919063ffffffff16565b6002819055506005826040518082805190602001908083835b60208310151562000f38578051825260208201915060208101905060208303925062000f11565b6001836020036101000a0380198251168184511680821785525050505050509050019150509081526020016040518091039020600060028201600090556003820160009055600482016000905560058201600062000f97919062002333565b600682016000905560078201600090556008820160006101000a81549073ffffffffffffffffffffffffffffffffffffffff02191690556009820160006101000a81549073ffffffffffffffffffffffffffffffffffffffff0219169055600a820160006101000a81549073ffffffffffffffffffffffffffffffffffffffff02191690555050816040518082805190602001908083835b6020831015156200105657805182526020820191506020810190506020830392506200102f565b6001836020036101000a03801982511681845116808217855250505050505090500191505060405180910390207fb8693ca6963890ed75ddc33a4bfb4c8c5c5fd5cb6108904d4a14fa40d0961c5660405160405180910390a25050565b60006001600360008473ffffffffffffffffffffffffffffffffffffffff1673ffffffffffffffffffffffffffffffffffffffff16815260200190815260200160002060009054906101000a900460ff1660ff1614156200111857600190506200111d565b600090505b919050565b6000806004836040518082805190602001908083835b6020831015156200115f578051825260208201915060208101905060208303925062001138565b6001836020036101000a0380198251168184511680821785525050505050509050019150509081526020016040518091039020905060008160040154111515620011a857600080fd5b8060040154915050919050565b620011bf6200237f565b60006004836040518082805190602001908083835b602083101515620011fb5780518252602082019150602081019050602083039250620011d4565b6001836020036101000a038019825116818451168082178552505050505050905001915050908152602001604051809103902060070154141515156200124057600080fd5b818160600181905250338160c0019073ffffffffffffffffffffffffffffffffffffffff16908173ffffffffffffffffffffffffffffffffffffffff1681525050806005836040518082805190602001908083835b602083101515620012bc578051825260208201915060208101905060208303925062001295565b6001836020036101000a038019825116818451168082178552505050505050905001915050908152602001604051809103902060008201518160020155602082015181600301556040820151816004015560608201518160050190805190602001906200132b9291906200240e565b506080820151816006015560a0820151816007015560c08201518160080160006101000a81548173ffffffffffffffffffffffffffffffffffffffff021916908373ffffffffffffffffffffffffffffffffffffffff16021790555060e08201518160090160006101000a81548173ffffffffffffffffffffffffffffffffffffffff021916908373ffffffffffffffffffffffffffffffffffffffff16021790555061010082015181600a0160006101000a81548173ffffffffffffffffffffffffffffffffffffffff021916908373ffffffffffffffffffffffffffffffffffffffff1602179055509050503373ffffffffffffffffffffffffffffffffffffffff167f9e7637d10c6f58bcf03ad632c3c3fcb88d4489674fdce2a7723c260e141ac398836040518080602001828103825283818151815260200191508051906020019080838360005b838110156200149457808201518184015260208101905062001477565b50505050905090810190601f168015620014c25780820380516001836020036101000a031916815260200191505b509250505060405180910390a25050565b6000806004836040518082805190602001908083835b602083101515620015105780518252602082019150602081019050602083039250620014e9565b6001836020036101000a038019825116818451168082178552505050505050905001915050908152602001604051809103902090508060030154915050919050565b6000806000809054906101000a900473ffffffffffffffffffffffffffffffffffffffff1673ffffffffffffffffffffffffffffffffffffffff163373ffffffffffffffffffffffffffffffffffffffff16141515620015b157600080fd5b6004846040518082805190602001908083835b602083101515620015eb5780518252602082019150602081019050602083039250620015c4565b6001836020036101000a0380198251168184511680821785525050505050509050019150509081526020016040518091039020905062001639838260070154620008e490919063ffffffff16565b81600701819055507f7111d56781ecdd48151e807951a9dbe25e0bb304cbe9f2a7ae57c19c620ca64284846040518080602001838152602001828103825284818151815260200191508051906020019080838360005b83811015620016ac5780820151818401526020810190506200168f565b50505050905090810190601f168015620016da5780820380516001836020036101000a031916815260200191505b50935050505060405180910390a1806007015491505092915050565b600080600660008473ffffffffffffffffffffffffffffffffffffffff1673ffffffffffffffffffffffffffffffffffffffff16815260200190815260200160002054141515156200174757600080fd5b600660008373ffffffffffffffffffffffffffffffffffffffff1673ffffffffffffffffffffffffffffffffffffffff168152602001908152602001600020549050919050565b6000806004836040518082805190602001908083835b602083101515620017cb5780518252602082019150602081019050602083039250620017a4565b6001836020036101000a0380198251168184511680821785525050505050509050019150509081526020016040518091039020905060018160000160008673ffffffffffffffffffffffffffffffffffffffff1673ffffffffffffffffffffffffffffffffffffffff16815260200190815260200160002060009054906101000a900460ff1660ff1614156200186557600191506200186a565b600091505b5092915050565b6000806004836040518082805190602001908083835b602083101515620018ae578051825260208201915060208101905060208303925062001887565b6001836020036101000a0380198251168184511680821785525050505050509050019150509081526020016040518091039020905060008160010160008673ffffffffffffffffffffffffffffffffffffffff1673ffffffffffffffffffffffffffffffffffffffff16815260200190815260200160002054141515156200193557600080fd5b8060010160008573ffffffffffffffffffffffffffffffffffffffff1673ffffffffffffffffffffffffffffffffffffffff1681526020019081526020016000205491505092915050565b60025481565b6000803491506000821115156200199c57600080fd5b6001600360003373ffffffffffffffffffffffffffffffffffffffff1673ffffffffffffffffffffffffffffffffffffffff16815260200190815260200160002060006101000a81548160ff021916908360ff1602179055506004836040518082805190602001908083835b60208310151562001a2f578051825260208201915060208101905060208303925062001a08565b6001836020036101000a0380198251168184511680821785525050505050509050019150509081526020016040518091039020905062001a7d828260040154620008e490919063ffffffff16565b816007015411151562001a8f57600080fd5b62001aa8828260030154620008e490919063ffffffff16565b816003018190555060018160000160003373ffffffffffffffffffffffffffffffffffffffff1673ffffffffffffffffffffffffffffffffffffffff16815260200190815260200160002060006101000a81548160ff021916908360ff16021790555062001b61828260010160003373ffffffffffffffffffffffffffffffffffffffff1673ffffffffffffffffffffffffffffffffffffffff16815260200190815260200160002054620008e490919063ffffffff16565b8160010160003373ffffffffffffffffffffffffffffffffffffffff1673ffffffffffffffffffffffffffffffffffffffff1681526020019081526020016000208190555062001bc060018260020154620008e490919063ffffffff16565b816002018190555042816006018190555062001bea828260040154620008e490919063ffffffff16565b816004018190555062001c4634600660003373ffffffffffffffffffffffffffffffffffffffff1673ffffffffffffffffffffffffffffffffffffffff16815260200190815260200160002054620008e490919063ffffffff16565b600660003373ffffffffffffffffffffffffffffffffffffffff1673ffffffffffffffffffffffffffffffffffffffff168152602001908152602001600020819055503373ffffffffffffffffffffffffffffffffffffffff167fcf76696fec6613453db3fc8d0e87a2417d6033db7623130bae09a2d82c06813b83856040518083815260200180602001828103825283818151815260200191508051906020019080838360005b8381101562001d0b57808201518184015260208101905062001cee565b50505050905090810190601f16801562001d395780820380516001836020036101000a031916815260200191505b50935050505060405180910390a2505050565b62001d6334600154620008e490919063ffffffff16565b6001819055506001600360003373ffffffffffffffffffffffffffffffffffffffff1673ffffffffffffffffffffffffffffffffffffffff16815260200190815260200160002060006101000a81548160ff021916908360ff1602179055503373ffffffffffffffffffffffffffffffffffffffff167fcf76696fec6613453db3fc8d0e87a2417d6033db7623130bae09a2d82c06813b346040518082815260200180602001828103825260078152602001807f67656e65726963000000000000000000000000000000000000000000000000008152506020019250505060405180910390a2565b60015481565b62001e5b6200237f565b6000809054906101000a900473ffffffffffffffffffffffffffffffffffffffff1673ffffffffffffffffffffffffffffffffffffffff163373ffffffffffffffffffffffffffffffffffffffff1614151562001eb757600080fd5b8381606001819052508181610100019073ffffffffffffffffffffffffffffffffffffffff16908173ffffffffffffffffffffffffffffffffffffffff1681525050828160a0018181525050806004856040518082805190602001908083835b60208310151562001f3e578051825260208201915060208101905060208303925062001f17565b6001836020036101000a0380198251168184511680821785525050505050509050019150509081526020016040518091039020600082015181600201556020820151816003015560408201518160040155606082015181600501908051906020019062001fad9291906200240e565b506080820151816006015560a0820151816007015560c08201518160080160006101000a81548173ffffffffffffffffffffffffffffffffffffffff021916908373ffffffffffffffffffffffffffffffffffffffff16021790555060e08201518160090160006101000a81548173ffffffffffffffffffffffffffffffffffffffff021916908373ffffffffffffffffffffffffffffffffffffffff16021790555061010082015181600a0160006101000a81548173ffffffffffffffffffffffffffffffffffffffff021916908373ffffffffffffffffffffffffffffffffffffffff160217905550905050620020b36001600254620008e490919063ffffffff16565b6002819055508382620020c562002495565b80806020018373ffffffffffffffffffffffffffffffffffffffff1673ffffffffffffffffffffffffffffffffffffffff168152602001828103825284818151815260200191508051906020019080838360005b838110156200213657808201518184015260208101905062002119565b50505050905090810190601f168015620021645780820380516001836020036101000a031916815260200191505b509350505050604051809103906000f08015801562002187573d6000803e3d6000fd5b508160e0019073ffffffffffffffffffffffffffffffffffffffff16908173ffffffffffffffffffffffffffffffffffffffff16815250508173ffffffffffffffffffffffffffffffffffffffff167fc1490e357730c1a879f6dde9e035b50deef91f0b7521ef58d59d50b46683ca1385856040518080602001838152602001828103825284818151815260200191508051906020019080838360005b838110156200224157808201518184015260208101905062002224565b50505050905090810190601f1680156200226f5780820380516001836020036101000a031916815260200191505b50935050505060405180910390a250505050565b6000808383111515156200229657600080fd5b82840390508091505092915050565b828054600181600116156101000203166002900490600052602060002090601f016020900481019282601f10620022e0578054855562002320565b828001600101855582156200232057600052602060002091601f016020900482015b828111156200231f57825482559160010191906001019062002302565b5b5090506200232f9190620024a6565b5090565b50805460018160011615610100020316600290046000825580601f106200235b57506200237c565b601f0160209004906000526020600020908101906200237b9190620024a6565b5b50565b61012060405190810160405280600081526020016000815260200160008152602001606081526020016000815260200160008152602001600073ffffffffffffffffffffffffffffffffffffffff168152602001600073ffffffffffffffffffffffffffffffffffffffff168152602001600073ffffffffffffffffffffffffffffffffffffffff1681525090565b828054600181600116156101000203166002900490600052602060002090601f016020900481019282601f106200245157805160ff191683800117855562002482565b8280016001018555821562002482579182015b828111156200248157825182559160200191906001019062002464565b5b509050620024919190620024a6565b5090565b6040516103e680620024cf83390190565b620024cb91905b80821115620024c7576000816000905550600101620024ad565b5090565b905600608060405234801561001057600080fd5b506040516103e63803806103e68339810180604052810190808051820192919060200180519060200190929190505050816000908051906020019061005692919061009f565b5080600160006101000a81548173ffffffffffffffffffffffffffffffffffffffff021916908373ffffffffffffffffffffffffffffffffffffffff1602179055505050610144565b828054600181600116156101000203166002900490600052602060002090601f016020900481019282601f106100e057805160ff191683800117855561010e565b8280016001018555821561010e579182015b8281111561010d5782518255916020019190600101906100f2565b5b50905061011b919061011f565b5090565b61014191905b8082111561013d576000816000905550600101610125565b5090565b90565b610293806101536000396000f30060806040526004361061004c576000357c0100000000000000000000000000000000000000000000000000000000900463ffffffff1680630f657b4314610051578063efe4fe021461007c575b600080fd5b34801561005d57600080fd5b506100666100fd565b6040518082815260200191505060405180910390f35b34801561008857600080fd5b506100e3600480360381019080803590602001908201803590602001908080601f016020809104026020016040519081016040528093929190818152602001838380828437820191505050505050919291929050505061011c565b604051808215151515815260200191505060405180910390f35b60003073ffffffffffffffffffffffffffffffffffffffff1631905090565b6000600160009054906101000a900473ffffffffffffffffffffffffffffffffffffffff1673ffffffffffffffffffffffffffffffffffffffff163373ffffffffffffffffffffffffffffffffffffffff1614151561017a57600080fd5b60028290806001815401808255809150509060018203906000526020600020016000909192909190915090805190602001906101b79291906101c2565b505060019050919050565b828054600181600116156101000203166002900490600052602060002090601f016020900481019282601f1061020357805160ff1916838001178555610231565b82800160010185558215610231579182015b82811115610230578251825591602001919060010190610215565b5b50905061023e9190610242565b5090565b61026491905b80821115610260576000816000905550600101610248565b5090565b905600a165627a7a7230582033c68b53a10a85fb4763852cba0f88d4fda520714adb972c37c9974483f47d470029a165627a7a7230582036313dbca2aef4c09d1c34d23b7036d727e9e449e612a45deaa037910d97949b0029",
  "source": "pragma solidity ^0.4.24;\nimport \"./Contributions.sol\";\n\n//@contract to get information about donors/contributors\ncontract Donors is Contributions{\n  //@dev function to check if specific address is a donor\n  function isDonor(address addr) public view returns(uint8){\n    if(donors[addr] == 1){\n      return 1;\n    }\n    else{\n      return 0;\n    }\n  }\n\n  //@dev function to check how much specific address has donated\n  function getAddressTotalDonations(address addr) public view returns(uint){\n    require(donorContributions[addr] != 0);\n    return donorContributions[addr];\n  }\n\n  //@dev function to check if address donated to specific missions\n  function isMissionDonor(address addr, string org) public view returns(uint8){\n    Mission storage mission = missions[org];\n    if(mission.contributors[addr] == 1){\n      return 1;\n    }\n    else{\n      return 0;\n    }\n  }\n\n  //@dev get donor's contributions to specific mission\n  function getAddressToMissionDonations(address addr, string org) public view returns(uint){\n    Mission storage mission = missions[org];\n    require(mission.addressDonations[addr] != 0);\n    return mission.addressDonations[addr];\n  }\n\n\n\n\n}\n",
  "sourcePath": "/Users/hazemtabbaa/Desktop/Other/give-back/contracts/Donors.sol",
  "compiler": {
    "name": "solc",
    "version": "0.4.24+commit.e67f0147.Emscripten.clang"
  },
  "schemaVersion": "2.0.1",
  "updatedAt": "2018-11-04T02:30:37.354Z"
}