{
  "contractName": "Donors",
  "abi": [
    {
      "constant": true,
      "inputs": [],
      "name": "getBalance",
      "outputs": [
        {
          "name": "",
          "type": "uint256"
        }
      ],
      "payable": false,
      "stateMutability": "view",
      "type": "function"
    },
    {
      "constant": true,
      "inputs": [
        {
          "name": "_org",
          "type": "string"
        }
      ],
      "name": "donationsToFundGoal",
      "outputs": [
        {
          "name": "",
          "type": "uint256"
        }
      ],
      "payable": false,
      "stateMutability": "view",
      "type": "function"
    },
    {
      "constant": false,
      "inputs": [
        {
          "name": "org",
          "type": "string"
        }
      ],
      "name": "approveRequest",
      "outputs": [],
      "payable": false,
      "stateMutability": "nonpayable",
      "type": "function"
    },
    {
      "constant": true,
      "inputs": [
        {
          "name": "org",
          "type": "string"
        }
      ],
      "name": "getMissionTotalDonations",
      "outputs": [
        {
          "name": "",
          "type": "uint256"
        }
      ],
      "payable": false,
      "stateMutability": "view",
      "type": "function"
    },
    {
      "constant": false,
      "inputs": [
        {
          "name": "org",
          "type": "string"
        }
      ],
      "name": "requestMission",
      "outputs": [],
      "payable": false,
      "stateMutability": "nonpayable",
      "type": "function"
    },
    {
      "constant": true,
      "inputs": [
        {
          "name": "org",
          "type": "string"
        }
      ],
      "name": "getAvailableToGiveMission",
      "outputs": [
        {
          "name": "",
          "type": "uint256"
        }
      ],
      "payable": false,
      "stateMutability": "view",
      "type": "function"
    },
    {
      "constant": false,
      "inputs": [
        {
          "name": "_org",
          "type": "string"
        },
        {
          "name": "_fundGoal",
          "type": "uint256"
        }
      ],
      "name": "addFundGoal",
      "outputs": [
        {
          "name": "",
          "type": "uint256"
        }
      ],
      "payable": false,
      "stateMutability": "nonpayable",
      "type": "function"
    },
    {
      "constant": false,
      "inputs": [
        {
          "name": "to",
          "type": "address"
        },
        {
          "name": "org",
          "type": "string"
        },
        {
          "name": "amount",
          "type": "uint256"
        }
      ],
      "name": "giveBack",
      "outputs": [],
      "payable": false,
      "stateMutability": "nonpayable",
      "type": "function"
    },
    {
      "constant": true,
      "inputs": [],
      "name": "missionCounter",
      "outputs": [
        {
          "name": "",
          "type": "uint256"
        }
      ],
      "payable": false,
      "stateMutability": "view",
      "type": "function"
    },
    {
      "constant": false,
      "inputs": [
        {
          "name": "org",
          "type": "string"
        }
      ],
      "name": "donate",
      "outputs": [],
      "payable": true,
      "stateMutability": "payable",
      "type": "function"
    },
    {
      "constant": false,
      "inputs": [],
      "name": "genericDonation",
      "outputs": [],
      "payable": true,
      "stateMutability": "payable",
      "type": "function"
    },
    {
      "constant": true,
      "inputs": [],
      "name": "multipurposeBalance",
      "outputs": [
        {
          "name": "",
          "type": "uint256"
        }
      ],
      "payable": false,
      "stateMutability": "view",
      "type": "function"
    },
    {
      "constant": false,
      "inputs": [
        {
          "name": "_organization",
          "type": "string"
        },
        {
          "name": "_fundGoal",
          "type": "uint256"
        }
      ],
      "name": "createMission",
      "outputs": [],
      "payable": false,
      "stateMutability": "nonpayable",
      "type": "function"
    },
    {
      "payable": true,
      "stateMutability": "payable",
      "type": "fallback"
    },
    {
      "anonymous": false,
      "inputs": [
        {
          "indexed": true,
          "name": "from",
          "type": "address"
        },
        {
          "indexed": false,
          "name": "org",
          "type": "string"
        }
      ],
      "name": "Request",
      "type": "event"
    },
    {
      "anonymous": false,
      "inputs": [
        {
          "indexed": true,
          "name": "org",
          "type": "string"
        }
      ],
      "name": "Approve",
      "type": "event"
    },
    {
      "anonymous": false,
      "inputs": [
        {
          "indexed": true,
          "name": "from",
          "type": "address"
        },
        {
          "indexed": false,
          "name": "amount",
          "type": "uint256"
        },
        {
          "indexed": false,
          "name": "organization",
          "type": "string"
        }
      ],
      "name": "Donated",
      "type": "event"
    },
    {
      "anonymous": false,
      "inputs": [
        {
          "indexed": true,
          "name": "to",
          "type": "address"
        },
        {
          "indexed": false,
          "name": "amount",
          "type": "uint256"
        },
        {
          "indexed": false,
          "name": "organization",
          "type": "string"
        }
      ],
      "name": "Given",
      "type": "event"
    },
    {
      "anonymous": false,
      "inputs": [
        {
          "indexed": true,
          "name": "org",
          "type": "string"
        },
        {
          "indexed": false,
          "name": "fundGoal",
          "type": "uint256"
        }
      ],
      "name": "CreatedMission",
      "type": "event"
    },
    {
      "anonymous": false,
      "inputs": [
        {
          "indexed": true,
          "name": "org",
          "type": "string"
        },
        {
          "indexed": false,
          "name": "fundGoal",
          "type": "uint256"
        }
      ],
      "name": "AddedFundGoal",
      "type": "event"
    },
    {
      "constant": true,
      "inputs": [
        {
          "name": "addr",
          "type": "address"
        }
      ],
      "name": "isDonor",
      "outputs": [
        {
          "name": "",
          "type": "uint8"
        }
      ],
      "payable": false,
      "stateMutability": "view",
      "type": "function"
    },
    {
      "constant": true,
      "inputs": [
        {
          "name": "addr",
          "type": "address"
        }
      ],
      "name": "getAddressTotalDonations",
      "outputs": [
        {
          "name": "",
          "type": "uint256"
        }
      ],
      "payable": false,
      "stateMutability": "view",
      "type": "function"
    },
    {
      "constant": true,
      "inputs": [
        {
          "name": "addr",
          "type": "address"
        },
        {
          "name": "org",
          "type": "string"
        }
      ],
      "name": "isMissionDonor",
      "outputs": [
        {
          "name": "",
          "type": "uint8"
        }
      ],
      "payable": false,
      "stateMutability": "view",
      "type": "function"
    },
    {
      "constant": true,
      "inputs": [
        {
          "name": "addr",
          "type": "address"
        },
        {
          "name": "org",
          "type": "string"
        }
      ],
      "name": "getAddressToMissionDonations",
      "outputs": [
        {
          "name": "",
          "type": "uint256"
        }
      ],
      "payable": false,
      "stateMutability": "view",
      "type": "function"
    }
  ],
  "bytecode": "0x6080604052336000806101000a81548173ffffffffffffffffffffffffffffffffffffffff021916908373ffffffffffffffffffffffffffffffffffffffff1602179055506123a2806100536000396000f3006080604052600436106100f1576000357c0100000000000000000000000000000000000000000000000000000000900463ffffffff16806312065fe0146101ee5780631a0f74fc146102195780631e0715df146102965780632bc3d7aa146102ff57806334f5ca6a1461035c5780633b36ceae146103d95780635382b5cf1461044257806358157973146104bf578063634882a2146105465780638356ed8e1461059d57806393ab52bf14610640578063aa130d9a146106dd578063b276345514610770578063b5aebc801461079b578063d0ef19fe146107f7578063dcd4491b14610801578063ee8631801461082c575b6101063460015461089f90919063ffffffff16565b6001819055506001600360003373ffffffffffffffffffffffffffffffffffffffff1673ffffffffffffffffffffffffffffffffffffffff16815260200190815260200160002060006101000a81548160ff021916908360ff1602179055503373ffffffffffffffffffffffffffffffffffffffff167fcf76696fec6613453db3fc8d0e87a2417d6033db7623130bae09a2d82c06813b346040518082815260200180602001828103825260088152602001807f66616c6c6261636b0000000000000000000000000000000000000000000000008152506020019250505060405180910390a2005b3480156101fa57600080fd5b506102036108c0565b6040518082815260200191505060405180910390f35b34801561022557600080fd5b50610280600480360381019080803590602001908201803590602001908080601f01602080910402602001604051908101604052809392919081815260200183838082843782019150505050505091929192905050506108df565b6040518082815260200191505060405180910390f35b3480156102a257600080fd5b506102fd600480360381019080803590602001908201803590602001908080601f0160208091040260200160405190810160405280939291908181526020018383808284378201915050505050509192919290505050610972565b005b34801561030b57600080fd5b50610340600480360381019080803573ffffffffffffffffffffffffffffffffffffffff169060200190929190505050610d77565b604051808260ff1660ff16815260200191505060405180910390f35b34801561036857600080fd5b506103c3600480360381019080803590602001908201803590602001908080601f0160208091040260200160405190810160405280939291908181526020018383808284378201915050505050509192919290505050610de4565b6040518082815260200191505060405180910390f35b3480156103e557600080fd5b50610440600480360381019080803590602001908201803590602001908080601f0160208091040260200160405190810160405280939291908181526020018383808284378201915050505050509192919290505050610e74565b005b34801561044e57600080fd5b506104a9600480360381019080803590602001908201803590602001908080601f016020809104026020016040519081016040528093929190818152602001838380828437820191505050505050919291929050505061113e565b6040518082815260200191505060405180910390f35b3480156104cb57600080fd5b50610530600480360381019080803590602001908201803590602001908080601f0160208091040260200160405190810160405280939291908181526020018383808284378201915050505050509192919290803590602001909291905050506111bb565b6040518082815260200191505060405180910390f35b34801561055257600080fd5b50610587600480360381019080803573ffffffffffffffffffffffffffffffffffffffff16906020019092919050505061134d565b6040518082815260200191505060405180910390f35b3480156105a957600080fd5b50610624600480360381019080803573ffffffffffffffffffffffffffffffffffffffff169060200190929190803590602001908201803590602001908080601f01602080910402602001604051908101604052809392919081815260200183838082843782019150505050505091929192905050506113e4565b604051808260ff1660ff16815260200191505060405180910390f35b34801561064c57600080fd5b506106c7600480360381019080803573ffffffffffffffffffffffffffffffffffffffff169060200190929190803590602001908201803590602001908080601f01602080910402602001604051908101604052809392919081815260200183838082843782019150505050505091929192905050506114c3565b6040518082815260200191505060405180910390f35b3480156106e957600080fd5b5061076e600480360381019080803573ffffffffffffffffffffffffffffffffffffffff169060200190929190803590602001908201803590602001908080601f0160208091040260200160405190810160405280939291908181526020018383808284378201915050505050509192919290803590602001909291905050506115cf565b005b34801561077c57600080fd5b50610785611830565b6040518082815260200191505060405180910390f35b6107f5600480360381019080803590602001908201803590602001908080601f0160208091040260200160405190810160405280939291908181526020018383808284378201915050505050509192919290505050611836565b005b6107ff611be9565b005b34801561080d57600080fd5b50610816611ce6565b6040518082815260200191505060405180910390f35b34801561083857600080fd5b5061089d600480360381019080803590602001908201803590602001908080601f016020809104026020016040519081016040528093929190818152602001838380828437820191505050505050919291929080359060200190929190505050611cec565b005b60008082840190508381101515156108b657600080fd5b8091505092915050565b60003073ffffffffffffffffffffffffffffffffffffffff1631905090565b6000806004836040518082805190602001908083835b60208310151561091a57805182526020820191506020810190506020830392506108f5565b6001836020036101000a0380198251168184511680821785525050505050509050019150509081526020016040518091039020905061096a8160040154826007015461203590919063ffffffff16565b915050919050565b60008060009054906101000a900473ffffffffffffffffffffffffffffffffffffffff1673ffffffffffffffffffffffffffffffffffffffff163373ffffffffffffffffffffffffffffffffffffffff161415156109cf57600080fd5b6005826040518082805190602001908083835b602083101515610a0757805182526020820191506020810190506020830392506109e2565b6001836020036101000a03801982511681845116808217855250505050505090500191505090815260200160405180910390209050806004836040518082805190602001908083835b602083101515610a755780518252602082019150602081019050602083039250610a50565b6001836020036101000a038019825116818451168082178552505050505050905001915050908152602001604051809103902060028201548160020155600382015481600301556004820154816004015560058201816005019080546001816001161561010002031660029004610aed929190612056565b5060068201548160060155600782015481600701556008820160009054906101000a900473ffffffffffffffffffffffffffffffffffffffff168160080160006101000a81548173ffffffffffffffffffffffffffffffffffffffff021916908373ffffffffffffffffffffffffffffffffffffffff1602179055506009820160009054906101000a900473ffffffffffffffffffffffffffffffffffffffff168160090160006101000a81548173ffffffffffffffffffffffffffffffffffffffff021916908373ffffffffffffffffffffffffffffffffffffffff160217905550905050610be9600160025461089f90919063ffffffff16565b6002819055506005826040518082805190602001908083835b602083101515610c275780518252602082019150602081019050602083039250610c02565b6001836020036101000a03801982511681845116808217855250505050505090500191505090815260200160405180910390206000600282016000905560038201600090556004820160009055600582016000610c8491906120dd565b600682016000905560078201600090556008820160006101000a81549073ffffffffffffffffffffffffffffffffffffffff02191690556009820160006101000a81549073ffffffffffffffffffffffffffffffffffffffff02191690555050816040518082805190602001908083835b602083101515610d1a5780518252602082019150602081019050602083039250610cf5565b6001836020036101000a03801982511681845116808217855250505050505090500191505060405180910390207fb8693ca6963890ed75ddc33a4bfb4c8c5c5fd5cb6108904d4a14fa40d0961c5660405160405180910390a25050565b60006001600360008473ffffffffffffffffffffffffffffffffffffffff1673ffffffffffffffffffffffffffffffffffffffff16815260200190815260200160002060009054906101000a900460ff1660ff161415610dda5760019050610ddf565b600090505b919050565b6000806004836040518082805190602001908083835b602083101515610e1f5780518252602082019150602081019050602083039250610dfa565b6001836020036101000a0380198251168184511680821785525050505050509050019150509081526020016040518091039020905060008160040154111515610e6757600080fd5b8060040154915050919050565b610e7c612125565b60006004836040518082805190602001908083835b602083101515610eb65780518252602082019150602081019050602083039250610e91565b6001836020036101000a03801982511681845116808217855250505050505090500191505090815260200160405180910390206007015414151515610efa57600080fd5b818160600181905250338160c0019073ffffffffffffffffffffffffffffffffffffffff16908173ffffffffffffffffffffffffffffffffffffffff1681525050806005836040518082805190602001908083835b602083101515610f745780518252602082019150602081019050602083039250610f4f565b6001836020036101000a03801982511681845116808217855250505050505090500191505090815260200160405180910390206000820151816002015560208201518160030155604082015181600401556060820151816005019080519060200190610fe1929190612197565b506080820151816006015560a0820151816007015560c08201518160080160006101000a81548173ffffffffffffffffffffffffffffffffffffffff021916908373ffffffffffffffffffffffffffffffffffffffff16021790555060e08201518160090160006101000a81548173ffffffffffffffffffffffffffffffffffffffff021916908373ffffffffffffffffffffffffffffffffffffffff1602179055509050503373ffffffffffffffffffffffffffffffffffffffff167f9e7637d10c6f58bcf03ad632c3c3fcb88d4489674fdce2a7723c260e141ac398836040518080602001828103825283818151815260200191508051906020019080838360005b838110156111005780820151818401526020810190506110e5565b50505050905090810190601f16801561112d5780820380516001836020036101000a031916815260200191505b509250505060405180910390a25050565b6000806004836040518082805190602001908083835b6020831015156111795780518252602082019150602081019050602083039250611154565b6001836020036101000a038019825116818451168082178552505050505050905001915050908152602001604051809103902090508060030154915050919050565b6000806000809054906101000a900473ffffffffffffffffffffffffffffffffffffffff1673ffffffffffffffffffffffffffffffffffffffff163373ffffffffffffffffffffffffffffffffffffffff1614151561121957600080fd5b6004846040518082805190602001908083835b602083101515611251578051825260208201915060208101905060208303925061122c565b6001836020036101000a0380198251168184511680821785525050505050509050019150509081526020016040518091039020905061129d83826007015461089f90919063ffffffff16565b8160070181905550836040518082805190602001908083835b6020831015156112db57805182526020820191506020810190506020830392506112b6565b6001836020036101000a03801982511681845116808217855250505050505090500191505060405180910390207f7111d56781ecdd48151e807951a9dbe25e0bb304cbe9f2a7ae57c19c620ca642846040518082815260200191505060405180910390a2806007015491505092915050565b600080600660008473ffffffffffffffffffffffffffffffffffffffff1673ffffffffffffffffffffffffffffffffffffffff168152602001908152602001600020541415151561139d57600080fd5b600660008373ffffffffffffffffffffffffffffffffffffffff1673ffffffffffffffffffffffffffffffffffffffff168152602001908152602001600020549050919050565b6000806004836040518082805190602001908083835b60208310151561141f57805182526020820191506020810190506020830392506113fa565b6001836020036101000a0380198251168184511680821785525050505050509050019150509081526020016040518091039020905060018160000160008673ffffffffffffffffffffffffffffffffffffffff1673ffffffffffffffffffffffffffffffffffffffff16815260200190815260200160002060009054906101000a900460ff1660ff1614156114b757600191506114bc565b600091505b5092915050565b6000806004836040518082805190602001908083835b6020831015156114fe57805182526020820191506020810190506020830392506114d9565b6001836020036101000a0380198251168184511680821785525050505050509050019150509081526020016040518091039020905060008160010160008673ffffffffffffffffffffffffffffffffffffffff1673ffffffffffffffffffffffffffffffffffffffff168152602001908152602001600020541415151561158457600080fd5b8060010160008573ffffffffffffffffffffffffffffffffffffffff1673ffffffffffffffffffffffffffffffffffffffff1681526020019081526020016000205491505092915050565b60008060009054906101000a900473ffffffffffffffffffffffffffffffffffffffff1673ffffffffffffffffffffffffffffffffffffffff163373ffffffffffffffffffffffffffffffffffffffff1614151561162c57600080fd5b6004836040518082805190602001908083835b602083101515611664578051825260208201915060208101905060208303925061163f565b6001836020036101000a0380198251168184511680821785525050505050509050019150509081526020016040518091039020905060008160020154141515156116ad57600080fd5b8181600301541115156116bf57600080fd5b813073ffffffffffffffffffffffffffffffffffffffff1631101515156116e557600080fd5b8060090160009054906101000a900473ffffffffffffffffffffffffffffffffffffffff1673ffffffffffffffffffffffffffffffffffffffff166108fc839081150290604051600060405180830381858888f1935050505015801561174f573d6000803e3d6000fd5b5061176782826003015461203590919063ffffffff16565b81600301819055508373ffffffffffffffffffffffffffffffffffffffff167fde3ec9fa1ba846c466aa2d622e31a7040b6ff55cc20ed4c122f6fb6e8cae0c6383856040518083815260200180602001828103825283818151815260200191508051906020019080838360005b838110156117ef5780820151818401526020810190506117d4565b50505050905090810190601f16801561181c5780820380516001836020036101000a031916815260200191505b50935050505060405180910390a250505050565b60025481565b60008034915060008211151561184b57600080fd5b6001600360003373ffffffffffffffffffffffffffffffffffffffff1673ffffffffffffffffffffffffffffffffffffffff16815260200190815260200160002060006101000a81548160ff021916908360ff1602179055506004836040518082805190602001908083835b6020831015156118dc57805182526020820191506020810190506020830392506118b7565b6001836020036101000a0380198251168184511680821785525050505050509050019150509081526020016040518091039020905061192882826004015461089f90919063ffffffff16565b816007015411151561193957600080fd5b61195082826003015461089f90919063ffffffff16565b816003018190555060018160000160003373ffffffffffffffffffffffffffffffffffffffff1673ffffffffffffffffffffffffffffffffffffffff16815260200190815260200160002060006101000a81548160ff021916908360ff160217905550611a07828260010160003373ffffffffffffffffffffffffffffffffffffffff1673ffffffffffffffffffffffffffffffffffffffff1681526020019081526020016000205461089f90919063ffffffff16565b8160010160003373ffffffffffffffffffffffffffffffffffffffff1673ffffffffffffffffffffffffffffffffffffffff16815260200190815260200160002081905550611a646001826002015461089f90919063ffffffff16565b8160020181905550428160060181905550611a8c82826004015461089f90919063ffffffff16565b8160040181905550611ae634600660003373ffffffffffffffffffffffffffffffffffffffff1673ffffffffffffffffffffffffffffffffffffffff1681526020019081526020016000205461089f90919063ffffffff16565b600660003373ffffffffffffffffffffffffffffffffffffffff1673ffffffffffffffffffffffffffffffffffffffff168152602001908152602001600020819055503373ffffffffffffffffffffffffffffffffffffffff167fcf76696fec6613453db3fc8d0e87a2417d6033db7623130bae09a2d82c06813b83856040518083815260200180602001828103825283818151815260200191508051906020019080838360005b83811015611ba9578082015181840152602081019050611b8e565b50505050905090810190601f168015611bd65780820380516001836020036101000a031916815260200191505b50935050505060405180910390a2505050565b611bfe3460015461089f90919063ffffffff16565b6001819055506001600360003373ffffffffffffffffffffffffffffffffffffffff1673ffffffffffffffffffffffffffffffffffffffff16815260200190815260200160002060006101000a81548160ff021916908360ff1602179055503373ffffffffffffffffffffffffffffffffffffffff167fcf76696fec6613453db3fc8d0e87a2417d6033db7623130bae09a2d82c06813b346040518082815260200180602001828103825260078152602001807f67656e65726963000000000000000000000000000000000000000000000000008152506020019250505060405180910390a2565b60015481565b611cf4612125565b6000809054906101000a900473ffffffffffffffffffffffffffffffffffffffff1673ffffffffffffffffffffffffffffffffffffffff163373ffffffffffffffffffffffffffffffffffffffff16141515611d4f57600080fd5b828160600181905250818160a0018181525050806004846040518082805190602001908083835b602083101515611d9b5780518252602082019150602081019050602083039250611d76565b6001836020036101000a03801982511681845116808217855250505050505090500191505090815260200160405180910390206000820151816002015560208201518160030155604082015181600401556060820151816005019080519060200190611e08929190612197565b506080820151816006015560a0820151816007015560c08201518160080160006101000a81548173ffffffffffffffffffffffffffffffffffffffff021916908373ffffffffffffffffffffffffffffffffffffffff16021790555060e08201518160090160006101000a81548173ffffffffffffffffffffffffffffffffffffffff021916908373ffffffffffffffffffffffffffffffffffffffff160217905550905050611ec4600160025461089f90919063ffffffff16565b60028190555082611ed3612217565b8080602001828103825283818151815260200191508051906020019080838360005b83811015611f10578082015181840152602081019050611ef5565b50505050905090810190601f168015611f3d5780820380516001836020036101000a031916815260200191505b5092505050604051809103906000f080158015611f5e573d6000803e3d6000fd5b508160e0019073ffffffffffffffffffffffffffffffffffffffff16908173ffffffffffffffffffffffffffffffffffffffff1681525050826040518082805190602001908083835b602083101515611fcc5780518252602082019150602081019050602083039250611fa7565b6001836020036101000a03801982511681845116808217855250505050505090500191505060405180910390207f2362915a770d438c034b1e4fdfac17fe8d6353614c7f8275df20db5fb64070b2836040518082815260200191505060405180910390a2505050565b60008083831115151561204757600080fd5b82840390508091505092915050565b828054600181600116156101000203166002900490600052602060002090601f016020900481019282601f1061208f57805485556120cc565b828001600101855582156120cc57600052602060002091601f016020900482015b828111156120cb5782548255916001019190600101906120b0565b5b5090506120d99190612227565b5090565b50805460018160011615610100020316600290046000825580601f106121035750612122565b601f0160209004906000526020600020908101906121219190612227565b5b50565b61010060405190810160405280600081526020016000815260200160008152602001606081526020016000815260200160008152602001600073ffffffffffffffffffffffffffffffffffffffff168152602001600073ffffffffffffffffffffffffffffffffffffffff1681525090565b828054600181600116156101000203166002900490600052602060002090601f016020900481019282601f106121d857805160ff1916838001178555612206565b82800160010185558215612206579182015b828111156122055782518255916020019190600101906121ea565b5b5090506122139190612227565b5090565b60405161012a8061224d83390190565b61224991905b8082111561224557600081600090555060010161222d565b5090565b9056006080604052348015600f57600080fd5b5060405161012a38038061012a8339810180604052810190808051820192919050505080600090805190602001906046929190604c565b505060e7565b828054600181600116156101000203166002900490600052602060002090601f016020900481019282601f10608b57805160ff191683800117855560b6565b8280016001018555821560b6579182015b8281111560b5578251825591602001919060010190609c565b5b50905060c1919060c5565b5090565b60e491905b8082111560e057600081600090555060010160ca565b5090565b90565b6035806100f56000396000f3006080604052600080fd00a165627a7a723058208f7ba481978aae9438e4f113b64ebae0e1c02523948f215b0f116f4029394bb10029a165627a7a72305820c31567972156b4b64f620d6bd92e73f97796c7336184a91a6a60e1b00fe44ea10029",
  "source": "pragma solidity ^0.4.24;\nimport \"./Contributions.sol\";\n\n//@contract to get information about donors/contributors\ncontract Donors is Contributions{\n  //@dev function to check if specific address is a donor\n  function isDonor(address addr) public view returns(uint8){\n    if(donors[addr] == 1){\n      return 1;\n    }\n    else{\n      return 0;\n    }\n  }\n\n  //@dev function to check how much specific address has donated\n  function getAddressTotalDonations(address addr) public view returns(uint){\n    require(donorContributions[addr] != 0);\n    return donorContributions[addr];\n  }\n\n  //@dev function to check if address donated to specific missions\n  function isMissionDonor(address addr, string org) public view returns(uint8){\n    Mission storage mission = missions[org];\n    if(mission.contributors[addr] == 1){\n      return 1;\n    }\n    else{\n      return 0;\n    }\n  }\n\n  //@dev get donor's contributions to specific mission\n  function getAddressToMissionDonations(address addr, string org) public view returns(uint){\n    Mission storage mission = missions[org];\n    require(mission.addressDonations[addr] != 0);\n    return mission.addressDonations[addr];\n  }\n\n\n\n\n}\n",
  "sourcePath": "/Users/hazemtabbaa/Desktop/Other/give-back/contracts/Donors.sol",
  "compiler": {
    "name": "solc",
    "version": "0.4.24+commit.e67f0147.Emscripten.clang"
  },
  "schemaVersion": "2.0.1",
  "updatedAt": "2018-10-13T23:23:49.934Z"
}