{
  "contractName": "Donors",
  "abi": [
    {
      "constant": true,
      "inputs": [],
      "name": "getBalance",
      "outputs": [
        {
          "name": "",
          "type": "uint256"
        }
      ],
      "payable": false,
      "stateMutability": "view",
      "type": "function"
    },
    {
      "constant": false,
      "inputs": [
        {
          "name": "org",
          "type": "string"
        },
        {
          "name": "amount",
          "type": "uint256"
        }
      ],
      "name": "giveBack",
      "outputs": [],
      "payable": false,
      "stateMutability": "nonpayable",
      "type": "function"
    },
    {
      "constant": true,
      "inputs": [
        {
          "name": "_org",
          "type": "string"
        }
      ],
      "name": "donationsToFundGoal",
      "outputs": [
        {
          "name": "",
          "type": "uint256"
        }
      ],
      "payable": false,
      "stateMutability": "view",
      "type": "function"
    },
    {
      "constant": true,
      "inputs": [
        {
          "name": "org",
          "type": "string"
        }
      ],
      "name": "getMissionTotalDonations",
      "outputs": [
        {
          "name": "",
          "type": "uint256"
        }
      ],
      "payable": false,
      "stateMutability": "view",
      "type": "function"
    },
    {
      "constant": false,
      "inputs": [
        {
          "name": "org",
          "type": "string"
        }
      ],
      "name": "requestMission",
      "outputs": [],
      "payable": false,
      "stateMutability": "nonpayable",
      "type": "function"
    },
    {
      "constant": true,
      "inputs": [
        {
          "name": "org",
          "type": "string"
        }
      ],
      "name": "getAvailableToGiveMission",
      "outputs": [
        {
          "name": "",
          "type": "uint256"
        }
      ],
      "payable": false,
      "stateMutability": "view",
      "type": "function"
    },
    {
      "constant": false,
      "inputs": [
        {
          "name": "_org",
          "type": "string"
        },
        {
          "name": "_fundGoal",
          "type": "uint256"
        }
      ],
      "name": "addFundGoal",
      "outputs": [
        {
          "name": "",
          "type": "uint256"
        }
      ],
      "payable": false,
      "stateMutability": "nonpayable",
      "type": "function"
    },
    {
      "constant": true,
      "inputs": [],
      "name": "missionCounter",
      "outputs": [
        {
          "name": "",
          "type": "uint256"
        }
      ],
      "payable": false,
      "stateMutability": "view",
      "type": "function"
    },
    {
      "constant": false,
      "inputs": [
        {
          "name": "org",
          "type": "string"
        }
      ],
      "name": "donate",
      "outputs": [],
      "payable": true,
      "stateMutability": "payable",
      "type": "function"
    },
    {
      "constant": false,
      "inputs": [],
      "name": "genericDonation",
      "outputs": [],
      "payable": true,
      "stateMutability": "payable",
      "type": "function"
    },
    {
      "constant": false,
      "inputs": [
        {
          "name": "org",
          "type": "string"
        },
        {
          "name": "_fundGoal",
          "type": "uint256"
        },
        {
          "name": "_orgHead",
          "type": "address"
        }
      ],
      "name": "approveRequest",
      "outputs": [],
      "payable": false,
      "stateMutability": "nonpayable",
      "type": "function"
    },
    {
      "constant": true,
      "inputs": [],
      "name": "multipurposeBalance",
      "outputs": [
        {
          "name": "",
          "type": "uint256"
        }
      ],
      "payable": false,
      "stateMutability": "view",
      "type": "function"
    },
    {
      "constant": false,
      "inputs": [
        {
          "name": "_organization",
          "type": "string"
        },
        {
          "name": "_fundGoal",
          "type": "uint256"
        },
        {
          "name": "_orgHead",
          "type": "address"
        }
      ],
      "name": "createMission",
      "outputs": [],
      "payable": false,
      "stateMutability": "nonpayable",
      "type": "function"
    },
    {
      "payable": true,
      "stateMutability": "payable",
      "type": "fallback"
    },
    {
      "anonymous": false,
      "inputs": [
        {
          "indexed": true,
          "name": "from",
          "type": "address"
        },
        {
          "indexed": false,
          "name": "org",
          "type": "string"
        }
      ],
      "name": "Request",
      "type": "event"
    },
    {
      "anonymous": false,
      "inputs": [
        {
          "indexed": false,
          "name": "org",
          "type": "string"
        }
      ],
      "name": "Approve",
      "type": "event"
    },
    {
      "anonymous": false,
      "inputs": [
        {
          "indexed": false,
          "name": "debug",
          "type": "string"
        }
      ],
      "name": "Debug",
      "type": "event"
    },
    {
      "anonymous": false,
      "inputs": [
        {
          "indexed": true,
          "name": "from",
          "type": "address"
        },
        {
          "indexed": false,
          "name": "amount",
          "type": "uint256"
        },
        {
          "indexed": false,
          "name": "organization",
          "type": "string"
        }
      ],
      "name": "Donated",
      "type": "event"
    },
    {
      "anonymous": false,
      "inputs": [
        {
          "indexed": false,
          "name": "amount",
          "type": "uint256"
        },
        {
          "indexed": false,
          "name": "organization",
          "type": "string"
        }
      ],
      "name": "Given",
      "type": "event"
    },
    {
      "anonymous": false,
      "inputs": [
        {
          "indexed": false,
          "name": "org",
          "type": "string"
        },
        {
          "indexed": false,
          "name": "fundGoal",
          "type": "uint256"
        },
        {
          "indexed": true,
          "name": "orgHead",
          "type": "address"
        }
      ],
      "name": "CreatedMission",
      "type": "event"
    },
    {
      "anonymous": false,
      "inputs": [
        {
          "indexed": false,
          "name": "org",
          "type": "string"
        },
        {
          "indexed": false,
          "name": "fundGoal",
          "type": "uint256"
        }
      ],
      "name": "AddedFundGoal",
      "type": "event"
    },
    {
      "constant": true,
      "inputs": [
        {
          "name": "addr",
          "type": "address"
        }
      ],
      "name": "isDonor",
      "outputs": [
        {
          "name": "",
          "type": "uint8"
        }
      ],
      "payable": false,
      "stateMutability": "view",
      "type": "function"
    },
    {
      "constant": true,
      "inputs": [
        {
          "name": "addr",
          "type": "address"
        }
      ],
      "name": "getAddressTotalDonations",
      "outputs": [
        {
          "name": "",
          "type": "uint256"
        }
      ],
      "payable": false,
      "stateMutability": "view",
      "type": "function"
    },
    {
      "constant": true,
      "inputs": [
        {
          "name": "addr",
          "type": "address"
        },
        {
          "name": "org",
          "type": "string"
        }
      ],
      "name": "isMissionDonor",
      "outputs": [
        {
          "name": "",
          "type": "uint8"
        }
      ],
      "payable": false,
      "stateMutability": "view",
      "type": "function"
    },
    {
      "constant": true,
      "inputs": [
        {
          "name": "addr",
          "type": "address"
        },
        {
          "name": "org",
          "type": "string"
        }
      ],
      "name": "getAddressToMissionDonations",
      "outputs": [
        {
          "name": "",
          "type": "uint256"
        }
      ],
      "payable": false,
      "stateMutability": "view",
      "type": "function"
    }
  ],
  "bytecode": "0x6080604052336000806101000a81548173ffffffffffffffffffffffffffffffffffffffff021916908373ffffffffffffffffffffffffffffffffffffffff160217905550612672806100536000396000f30060806040526004361062000103576000357c0100000000000000000000000000000000000000000000000000000000900463ffffffff16806312065fe01462000202578063167595ee14620002305780631a0f74fc14620002a65780632bc3d7aa146200032657806334f5ca6a14620003865780633b36ceae14620004065780635382b5cf14620004725780635815797314620004f2578063634882a2146200057c5780638356ed8e14620005d657806393ab52bf146200067c578063b2763455146200071c578063b5aebc80146200074a578063d0ef19fe14620007a8578063da5504ba14620007b4578063dcd4491b146200084a578063fd2202ce1462000878575b6200011a346001546200090e90919063ffffffff16565b6001819055506001600360003373ffffffffffffffffffffffffffffffffffffffff1673ffffffffffffffffffffffffffffffffffffffff16815260200190815260200160002060006101000a81548160ff021916908360ff1602179055503373ffffffffffffffffffffffffffffffffffffffff167fcf76696fec6613453db3fc8d0e87a2417d6033db7623130bae09a2d82c06813b346040518082815260200180602001828103825260088152602001807f66616c6c6261636b0000000000000000000000000000000000000000000000008152506020019250505060405180910390a2005b3480156200020f57600080fd5b506200021a62000930565b6040518082815260200191505060405180910390f35b3480156200023d57600080fd5b50620002a4600480360381019080803590602001908201803590602001908080601f0160208091040260200160405190810160405280939291908181526020018383808284378201915050505050509192919290803590602001909291905050506200094f565b005b348015620002b357600080fd5b5062000310600480360381019080803590602001908201803590602001908080601f016020809104026020016040519081016040528093929190818152602001838380828437820191505050505050919291929050505062000ba4565b6040518082815260200191505060405180910390f35b3480156200033357600080fd5b506200036a600480360381019080803573ffffffffffffffffffffffffffffffffffffffff16906020019092919050505062000c3b565b604051808260ff1660ff16815260200191505060405180910390f35b3480156200039357600080fd5b50620003f0600480360381019080803590602001908201803590602001908080601f016020809104026020016040519081016040528093929190818152602001838380828437820191505050505050919291929050505062000caa565b6040518082815260200191505060405180910390f35b3480156200041357600080fd5b5062000470600480360381019080803590602001908201803590602001908080601f016020809104026020016040519081016040528093929190818152602001838380828437820191505050505050919291929050505062000d3d565b005b3480156200047f57600080fd5b50620004dc600480360381019080803590602001908201803590602001908080601f016020809104026020016040519081016040528093929190818152602001838380828437820191505050505050919291929050505062000f73565b6040518082815260200191505060405180910390f35b348015620004ff57600080fd5b5062000566600480360381019080803590602001908201803590602001908080601f01602080910402602001604051908101604052809392919081815260200183838082843782019150505050505091929192908035906020019092919050505062000ff2565b6040518082815260200191505060405180910390f35b3480156200058957600080fd5b50620005c0600480360381019080803573ffffffffffffffffffffffffffffffffffffffff16906020019092919050505062001196565b6040518082815260200191505060405180910390f35b348015620005e357600080fd5b5062000660600480360381019080803573ffffffffffffffffffffffffffffffffffffffff169060200190929190803590602001908201803590602001908080601f01602080910402602001604051908101604052809392919081815260200183838082843782019150505050505091929192905050506200122e565b604051808260ff1660ff16815260200191505060405180910390f35b3480156200068957600080fd5b5062000706600480360381019080803573ffffffffffffffffffffffffffffffffffffffff169060200190929190803590602001908201803590602001908080601f016020809104026020016040519081016040528093929190818152602001838380828437820191505050505050919291929050505062001311565b6040518082815260200191505060405180910390f35b3480156200072957600080fd5b506200073462001420565b6040518082815260200191505060405180910390f35b620007a6600480360381019080803590602001908201803590602001908080601f016020809104026020016040519081016040528093929190818152602001838380828437820191505050505050919291929050505062001426565b005b620007b262001924565b005b348015620007c157600080fd5b5062000848600480360381019080803590602001908201803590602001908080601f016020809104026020016040519081016040528093929190818152602001838380828437820191505050505050919291929080359060200190929190803573ffffffffffffffffffffffffffffffffffffffff16906020019092919050505062001a23565b005b3480156200085757600080fd5b506200086262001ba3565b6040518082815260200191505060405180910390f35b3480156200088557600080fd5b506200090c600480360381019080803590602001908201803590602001908080601f016020809104026020016040519081016040528093929190818152602001838380828437820191505050505050919291929080359060200190929190803573ffffffffffffffffffffffffffffffffffffffff16906020019092919050505062001ba9565b005b60008082840190508381101515156200092657600080fd5b8091505092915050565b60003073ffffffffffffffffffffffffffffffffffffffff1631905090565b60008060009054906101000a900473ffffffffffffffffffffffffffffffffffffffff1673ffffffffffffffffffffffffffffffffffffffff163373ffffffffffffffffffffffffffffffffffffffff16141515620009ad57600080fd5b6005836040518082805190602001908083835b602083101515620009e75780518252602082019150602081019050602083039250620009c0565b6001836020036101000a03801982511681845116808217855250505050505090500191505090815260200160405180910390209050600081600201541415151562000a3157600080fd5b81816003015411151562000a4457600080fd5b813073ffffffffffffffffffffffffffffffffffffffff16311015151562000a6b57600080fd5b8060090160009054906101000a900473ffffffffffffffffffffffffffffffffffffffff1673ffffffffffffffffffffffffffffffffffffffff166108fc839081150290604051600060405180830381858888f1935050505015801562000ad6573d6000803e3d6000fd5b5062000af0828260030154620020ef90919063ffffffff16565b81600301819055507ff39ed54c3a63ca881695c190da1e9572ccc241c340d9f41a22677f1d90bbb43c82846040518083815260200180602001828103825283818151815260200191508051906020019080838360005b8381101562000b6357808201518184015260208101905062000b46565b50505050905090810190601f16801562000b915780820380516001836020036101000a031916815260200191505b50935050505060405180910390a1505050565b6000806005836040518082805190602001908083835b60208310151562000be1578051825260208201915060208101905060208303925062000bba565b6001836020036101000a0380198251168184511680821785525050505050509050019150509081526020016040518091039020905062000c3381600401548260070154620020ef90919063ffffffff16565b915050919050565b60006001600360008473ffffffffffffffffffffffffffffffffffffffff1673ffffffffffffffffffffffffffffffffffffffff16815260200190815260200160002060009054906101000a900460ff1660ff16141562000ca0576001905062000ca5565b600090505b919050565b6000806005836040518082805190602001908083835b60208310151562000ce7578051825260208201915060208101905060208303925062000cc0565b6001836020036101000a038019825116818451168082178552505050505050905001915050908152602001604051809103902090506000816004015411151562000d3057600080fd5b8060040154915050919050565b60006004826040518082805190602001908083835b60208310151562000d79578051825260208201915060208101905060208303925062000d52565b6001836020036101000a038019825116818451168082178552505050505050905001915050908152602001604051809103902060009054906101000a900460ff1660ff1614151562000dca57600080fd5b60006006826040518082805190602001908083835b60208310151562000e06578051825260208201915060208101905060208303925062000ddf565b6001836020036101000a03801982511681845116808217855250505050505090500191505090815260200160405180910390205414151562000e4757600080fd5b60016006826040518082805190602001908083835b60208310151562000e83578051825260208201915060208101905060208303925062000e5c565b6001836020036101000a0380198251168184511680821785525050505050509050019150509081526020016040518091039020819055503373ffffffffffffffffffffffffffffffffffffffff167f9e7637d10c6f58bcf03ad632c3c3fcb88d4489674fdce2a7723c260e141ac398826040518080602001828103825283818151815260200191508051906020019080838360005b8381101562000f3557808201518184015260208101905062000f18565b50505050905090810190601f16801562000f635780820380516001836020036101000a031916815260200191505b509250505060405180910390a250565b6000806005836040518082805190602001908083835b60208310151562000fb0578051825260208201915060208101905060208303925062000f89565b6001836020036101000a038019825116818451168082178552505050505050905001915050908152602001604051809103902090508060030154915050919050565b6000806000809054906101000a900473ffffffffffffffffffffffffffffffffffffffff1673ffffffffffffffffffffffffffffffffffffffff163373ffffffffffffffffffffffffffffffffffffffff161415156200105157600080fd5b6005846040518082805190602001908083835b6020831015156200108b578051825260208201915060208101905060208303925062001064565b6001836020036101000a03801982511681845116808217855250505050505090500191505090815260200160405180910390209050620010d98382600701546200090e90919063ffffffff16565b81600701819055507f7111d56781ecdd48151e807951a9dbe25e0bb304cbe9f2a7ae57c19c620ca64284846040518080602001838152602001828103825284818151815260200191508051906020019080838360005b838110156200114c5780820151818401526020810190506200112f565b50505050905090810190601f1680156200117a5780820380516001836020036101000a031916815260200191505b50935050505060405180910390a1806007015491505092915050565b600080600760008473ffffffffffffffffffffffffffffffffffffffff1673ffffffffffffffffffffffffffffffffffffffff1681526020019081526020016000205414151515620011e757600080fd5b600760008373ffffffffffffffffffffffffffffffffffffffff1673ffffffffffffffffffffffffffffffffffffffff168152602001908152602001600020549050919050565b6000806005836040518082805190602001908083835b6020831015156200126b578051825260208201915060208101905060208303925062001244565b6001836020036101000a0380198251168184511680821785525050505050509050019150509081526020016040518091039020905060018160000160008673ffffffffffffffffffffffffffffffffffffffff1673ffffffffffffffffffffffffffffffffffffffff16815260200190815260200160002060009054906101000a900460ff1660ff1614156200130557600191506200130a565b600091505b5092915050565b6000806005836040518082805190602001908083835b6020831015156200134e578051825260208201915060208101905060208303925062001327565b6001836020036101000a0380198251168184511680821785525050505050509050019150509081526020016040518091039020905060008160010160008673ffffffffffffffffffffffffffffffffffffffff1673ffffffffffffffffffffffffffffffffffffffff1681526020019081526020016000205414151515620013d557600080fd5b8060010160008573ffffffffffffffffffffffffffffffffffffffff1673ffffffffffffffffffffffffffffffffffffffff1681526020019081526020016000205491505092915050565b60025481565b6000807f7cdb51e9dbbc205231228146c3246e7f914aa6d4a33170e43ecc8e3593481d1a6040518080602001828103825260148152602001807f6265666f7265206669727374207265717569726500000000000000000000000081525060200191505060405180910390a1349150600082111515620014a457600080fd5b6001600360003373ffffffffffffffffffffffffffffffffffffffff1673ffffffffffffffffffffffffffffffffffffffff16815260200190815260200160002060006101000a81548160ff021916908360ff1602179055506005836040518082805190602001908083835b60208310151562001537578051825260208201915060208101905060208303925062001510565b6001836020036101000a038019825116818451168082178552505050505050905001915050908152602001604051809103902090507f7cdb51e9dbbc205231228146c3246e7f914aa6d4a33170e43ecc8e3593481d1a6040518080602001828103825260138152602001807f616674657220666972737420726571756972650000000000000000000000000081525060200191505060405180910390a1620015ed8282600401546200090e90919063ffffffff16565b8160070154111515620015ff57600080fd5b7f7cdb51e9dbbc205231228146c3246e7f914aa6d4a33170e43ecc8e3593481d1a6040518080602001828103825260148152602001807f6166746572207365636f6e64207265717569726500000000000000000000000081525060200191505060405180910390a1620016808282600301546200090e90919063ffffffff16565b816003018190555060018160000160003373ffffffffffffffffffffffffffffffffffffffff1673ffffffffffffffffffffffffffffffffffffffff16815260200190815260200160002060006101000a81548160ff021916908360ff16021790555062001739828260010160003373ffffffffffffffffffffffffffffffffffffffff1673ffffffffffffffffffffffffffffffffffffffff168152602001908152602001600020546200090e90919063ffffffff16565b8160010160003373ffffffffffffffffffffffffffffffffffffffff1673ffffffffffffffffffffffffffffffffffffffff1681526020019081526020016000208190555062001798600182600201546200090e90919063ffffffff16565b8160020181905550428160060181905550620017c28282600401546200090e90919063ffffffff16565b81600401819055506200181e34600760003373ffffffffffffffffffffffffffffffffffffffff1673ffffffffffffffffffffffffffffffffffffffff168152602001908152602001600020546200090e90919063ffffffff16565b600760003373ffffffffffffffffffffffffffffffffffffffff1673ffffffffffffffffffffffffffffffffffffffff168152602001908152602001600020819055503373ffffffffffffffffffffffffffffffffffffffff167fcf76696fec6613453db3fc8d0e87a2417d6033db7623130bae09a2d82c06813b83856040518083815260200180602001828103825283818151815260200191508051906020019080838360005b83811015620018e3578082015181840152602081019050620018c6565b50505050905090810190601f168015620019115780820380516001836020036101000a031916815260200191505b50935050505060405180910390a2505050565b6200193b346001546200090e90919063ffffffff16565b6001819055506001600360003373ffffffffffffffffffffffffffffffffffffffff1673ffffffffffffffffffffffffffffffffffffffff16815260200190815260200160002060006101000a81548160ff021916908360ff1602179055503373ffffffffffffffffffffffffffffffffffffffff167fcf76696fec6613453db3fc8d0e87a2417d6033db7623130bae09a2d82c06813b346040518082815260200180602001828103825260078152602001807f67656e65726963000000000000000000000000000000000000000000000000008152506020019250505060405180910390a2565b6000809054906101000a900473ffffffffffffffffffffffffffffffffffffffff1673ffffffffffffffffffffffffffffffffffffffff163373ffffffffffffffffffffffffffffffffffffffff1614151562001a7f57600080fd5b62001a8c83838362001ba9565b60026006846040518082805190602001908083835b60208310151562001ac8578051825260208201915060208101905060208303925062001aa1565b6001836020036101000a0380198251168184511680821785525050505050509050019150509081526020016040518091039020819055507fb8693ca6963890ed75ddc33a4bfb4c8c5c5fd5cb6108904d4a14fa40d0961c56836040518080602001828103825283818151815260200191508051906020019080838360005b8381101562001b6357808201518184015260208101905062001b46565b50505050905090810190601f16801562001b915780820380516001836020036101000a031916815260200191505b509250505060405180910390a1505050565b60015481565b62001bb362002111565b6000809054906101000a900473ffffffffffffffffffffffffffffffffffffffff1673ffffffffffffffffffffffffffffffffffffffff163373ffffffffffffffffffffffffffffffffffffffff1614151562001c0f57600080fd5b60006004856040518082805190602001908083835b60208310151562001c4b578051825260208201915060208101905060208303925062001c24565b6001836020036101000a038019825116818451168082178552505050505050905001915050908152602001604051809103902060009054906101000a900460ff1660ff1614151562001c9c57600080fd5b8381606001819052508181610100019073ffffffffffffffffffffffffffffffffffffffff16908173ffffffffffffffffffffffffffffffffffffffff1681525050828160a0018181525050806005856040518082805190602001908083835b60208310151562001d23578051825260208201915060208101905060208303925062001cfc565b6001836020036101000a0380198251168184511680821785525050505050509050019150509081526020016040518091039020600082015181600201556020820151816003015560408201518160040155606082015181600501908051906020019062001d92929190620021a0565b506080820151816006015560a0820151816007015560c08201518160080160006101000a81548173ffffffffffffffffffffffffffffffffffffffff021916908373ffffffffffffffffffffffffffffffffffffffff16021790555060e08201518160090160006101000a81548173ffffffffffffffffffffffffffffffffffffffff021916908373ffffffffffffffffffffffffffffffffffffffff16021790555061010082015181600a0160006101000a81548173ffffffffffffffffffffffffffffffffffffffff021916908373ffffffffffffffffffffffffffffffffffffffff16021790555090505062001e9860016002546200090e90919063ffffffff16565b600281905550838262001eaa62002227565b80806020018373ffffffffffffffffffffffffffffffffffffffff1673ffffffffffffffffffffffffffffffffffffffff168152602001828103825284818151815260200191508051906020019080838360005b8381101562001f1b57808201518184015260208101905062001efe565b50505050905090810190601f16801562001f495780820380516001836020036101000a031916815260200191505b509350505050604051809103906000f08015801562001f6c573d6000803e3d6000fd5b508160e0019073ffffffffffffffffffffffffffffffffffffffff16908173ffffffffffffffffffffffffffffffffffffffff168152505060016004856040518082805190602001908083835b60208310151562001fe0578051825260208201915060208101905060208303925062001fb9565b6001836020036101000a038019825116818451168082178552505050505050905001915050908152602001604051809103902060006101000a81548160ff021916908360ff1602179055508173ffffffffffffffffffffffffffffffffffffffff167fc1490e357730c1a879f6dde9e035b50deef91f0b7521ef58d59d50b46683ca1385856040518080602001838152602001828103825284818151815260200191508051906020019080838360005b83811015620020ad57808201518184015260208101905062002090565b50505050905090810190601f168015620020db5780820380516001836020036101000a031916815260200191505b50935050505060405180910390a250505050565b6000808383111515156200210257600080fd5b82840390508091505092915050565b61012060405190810160405280600081526020016000815260200160008152602001606081526020016000815260200160008152602001600073ffffffffffffffffffffffffffffffffffffffff168152602001600073ffffffffffffffffffffffffffffffffffffffff168152602001600073ffffffffffffffffffffffffffffffffffffffff1681525090565b828054600181600116156101000203166002900490600052602060002090601f016020900481019282601f10620021e357805160ff191683800117855562002214565b8280016001018555821562002214579182015b8281111562002213578251825591602001919060010190620021f6565b5b50905062002223919062002238565b5090565b6040516103e6806200226183390190565b6200225d91905b80821115620022595760008160009055506001016200223f565b5090565b905600608060405234801561001057600080fd5b506040516103e63803806103e68339810180604052810190808051820192919060200180519060200190929190505050816000908051906020019061005692919061009f565b5080600160006101000a81548173ffffffffffffffffffffffffffffffffffffffff021916908373ffffffffffffffffffffffffffffffffffffffff1602179055505050610144565b828054600181600116156101000203166002900490600052602060002090601f016020900481019282601f106100e057805160ff191683800117855561010e565b8280016001018555821561010e579182015b8281111561010d5782518255916020019190600101906100f2565b5b50905061011b919061011f565b5090565b61014191905b8082111561013d576000816000905550600101610125565b5090565b90565b610293806101536000396000f30060806040526004361061004c576000357c0100000000000000000000000000000000000000000000000000000000900463ffffffff1680630f657b4314610051578063efe4fe021461007c575b600080fd5b34801561005d57600080fd5b506100666100fd565b6040518082815260200191505060405180910390f35b34801561008857600080fd5b506100e3600480360381019080803590602001908201803590602001908080601f016020809104026020016040519081016040528093929190818152602001838380828437820191505050505050919291929050505061011c565b604051808215151515815260200191505060405180910390f35b60003073ffffffffffffffffffffffffffffffffffffffff1631905090565b6000600160009054906101000a900473ffffffffffffffffffffffffffffffffffffffff1673ffffffffffffffffffffffffffffffffffffffff163373ffffffffffffffffffffffffffffffffffffffff1614151561017a57600080fd5b60028290806001815401808255809150509060018203906000526020600020016000909192909190915090805190602001906101b79291906101c2565b505060019050919050565b828054600181600116156101000203166002900490600052602060002090601f016020900481019282601f1061020357805160ff1916838001178555610231565b82800160010185558215610231579182015b82811115610230578251825591602001919060010190610215565b5b50905061023e9190610242565b5090565b61026491905b80821115610260576000816000905550600101610248565b5090565b905600a165627a7a72305820465ab884ef757777f03f01ab38e22a7e6d793242826df7acd8549738dc95c3050029a165627a7a7230582063cf14e2fe33e038755bc45539fee9b81463da2578980450b861bec36afcaceb0029",
  "source": "pragma solidity ^0.4.24;\nimport \"./Contributions.sol\";\n\n//@contract to get information about donors/contributors\ncontract Donors is Contributions{\n  //@dev function to check if specific address is a donor\n  function isDonor(address addr) public view returns(uint8){\n    if(donors[addr] == 1){\n      return 1;\n    }\n    else{\n      return 0;\n    }\n  }\n\n  //@dev function to check how much specific address has donated\n  function getAddressTotalDonations(address addr) public view returns(uint){\n    require(donorContributions[addr] != 0);\n    return donorContributions[addr];\n  }\n\n  //@dev function to check if address donated to specific missions\n  function isMissionDonor(address addr, string org) public view returns(uint8){\n    Mission storage mission = missions[org];\n    if(mission.contributors[addr] == 1){\n      return 1;\n    }\n    else{\n      return 0;\n    }\n  }\n\n  //@dev get donor's contributions to specific mission\n  function getAddressToMissionDonations(address addr, string org) public view returns(uint){\n    Mission storage mission = missions[org];\n    require(mission.addressDonations[addr] != 0);\n    return mission.addressDonations[addr];\n  }\n\n\n\n\n}\n",
  "sourcePath": "/Users/hazemtabbaa/Desktop/Other/give-back/contracts/Donors.sol",
  "compiler": {
    "name": "solc",
    "version": "0.4.24+commit.e67f0147.Emscripten.clang"
  },
  "schemaVersion": "2.0.1",
  "updatedAt": "2018-11-08T04:57:31.435Z"
}