{
  "contractName": "OrgContract",
  "abi": [
    {
      "inputs": [
        {
          "name": "_org",
          "type": "bytes32"
        },
        {
          "name": "_orgHead",
          "type": "address"
        }
      ],
      "payable": false,
      "stateMutability": "nonpayable",
      "type": "constructor"
    },
    {
      "constant": true,
      "inputs": [],
      "name": "getOrgBalance",
      "outputs": [
        {
          "name": "",
          "type": "uint256"
        }
      ],
      "payable": false,
      "stateMutability": "view",
      "type": "function"
    },
    {
      "constant": false,
      "inputs": [
        {
          "name": "_purchase",
          "type": "bytes32"
        }
      ],
      "name": "recordPurchase",
      "outputs": [
        {
          "name": "",
          "type": "bool"
        }
      ],
      "payable": false,
      "stateMutability": "nonpayable",
      "type": "function"
    }
  ],
  "bytecode": "0x608060405234801561001057600080fd5b506040516040806102438339810180604052810190808051906020019092919080519060200190929190505050816000816000191690555080600160006101000a81548173ffffffffffffffffffffffffffffffffffffffff021916908373ffffffffffffffffffffffffffffffffffffffff16021790555050506101a98061009a6000396000f30060806040526004361061004c576000357c0100000000000000000000000000000000000000000000000000000000900463ffffffff1680630f657b43146100515780635c560b911461007c575b600080fd5b34801561005d57600080fd5b506100666100c5565b6040518082815260200191505060405180910390f35b34801561008857600080fd5b506100ab60048036038101908080356000191690602001909291905050506100e4565b604051808215151515815260200191505060405180910390f35b60003073ffffffffffffffffffffffffffffffffffffffff1631905090565b6000600160009054906101000a900473ffffffffffffffffffffffffffffffffffffffff1673ffffffffffffffffffffffffffffffffffffffff163373ffffffffffffffffffffffffffffffffffffffff1614151561014257600080fd5b6002829080600181540180825580915050906001820390600052602060002001600090919290919091509060001916905550600190509190505600a165627a7a723058200fbae7da372a95d0f558febb0f17c1abd0d656dc9dbf8037895bc7c22140161d0029",
  "source": "pragma solidity ^0.4.24;\n\nimport \"./SafeMath.sol\";\nimport \"./Charity.sol\";\n\n //@dev contract used to give organization an address\n //this helps with monitoring the organization's work which helps\n //in showing donors how their donations are being used\n contract OrgContract{\n   using SafeMath for uint;\n   bytes32 organization;\n   address private orgOwner;\n   bytes32 [] purchases;\n\n   modifier isOrgOwner{\n     require(msg.sender == orgOwner);\n     _;\n   }\n\n   constructor(bytes32 _org, address _orgHead) public{\n     organization = _org;\n     orgOwner = _orgHead;\n   }\n\n   function getOrgBalance()\n    view public returns(uint){\n     return address(this).balance;\n   }\n\n   //@dev allow org to record purchases without changing balance (FOR NOW)\n   //due to assumption that they won't necessarily be in ETH\n   //fix later when even org purchases are in ETH\n   function recordPurchase(bytes32 _purchase)\n    isOrgOwner public returns(bool){\n     purchases.push(_purchase);\n     return true;\n   }\n }\n",
  "sourcePath": "/Users/hazemtabbaa/Desktop/Other/give-back/contracts/OrgContract.sol",
  "compiler": {
    "name": "solc",
    "version": "0.4.24+commit.e67f0147.Emscripten.clang"
  },
  "schemaVersion": "2.0.1",
  "updatedAt": "2018-11-11T03:18:21.357Z"
}