{
  "contractName": "OrgContract",
  "abi": [
    {
      "inputs": [
        {
          "name": "_org",
          "type": "string"
        },
        {
          "name": "_orgHead",
          "type": "address"
        }
      ],
      "payable": false,
      "stateMutability": "nonpayable",
      "type": "constructor"
    },
    {
      "constant": true,
      "inputs": [],
      "name": "getOrgBalance",
      "outputs": [
        {
          "name": "",
          "type": "uint256"
        }
      ],
      "payable": false,
      "stateMutability": "view",
      "type": "function"
    },
    {
      "constant": false,
      "inputs": [
        {
          "name": "_purchase",
          "type": "string"
        }
      ],
      "name": "recordPurchase",
      "outputs": [
        {
          "name": "",
          "type": "bool"
        }
      ],
      "payable": false,
      "stateMutability": "nonpayable",
      "type": "function"
    }
  ],
  "bytecode": "0x608060405234801561001057600080fd5b506040516103e63803806103e68339810180604052810190808051820192919060200180519060200190929190505050816000908051906020019061005692919061009f565b5080600160006101000a81548173ffffffffffffffffffffffffffffffffffffffff021916908373ffffffffffffffffffffffffffffffffffffffff1602179055505050610144565b828054600181600116156101000203166002900490600052602060002090601f016020900481019282601f106100e057805160ff191683800117855561010e565b8280016001018555821561010e579182015b8281111561010d5782518255916020019190600101906100f2565b5b50905061011b919061011f565b5090565b61014191905b8082111561013d576000816000905550600101610125565b5090565b90565b610293806101536000396000f30060806040526004361061004c576000357c0100000000000000000000000000000000000000000000000000000000900463ffffffff1680630f657b4314610051578063efe4fe021461007c575b600080fd5b34801561005d57600080fd5b506100666100fd565b6040518082815260200191505060405180910390f35b34801561008857600080fd5b506100e3600480360381019080803590602001908201803590602001908080601f016020809104026020016040519081016040528093929190818152602001838380828437820191505050505050919291929050505061011c565b604051808215151515815260200191505060405180910390f35b60003073ffffffffffffffffffffffffffffffffffffffff1631905090565b6000600160009054906101000a900473ffffffffffffffffffffffffffffffffffffffff1673ffffffffffffffffffffffffffffffffffffffff163373ffffffffffffffffffffffffffffffffffffffff1614151561017a57600080fd5b60028290806001815401808255809150509060018203906000526020600020016000909192909190915090805190602001906101b79291906101c2565b505060019050919050565b828054600181600116156101000203166002900490600052602060002090601f016020900481019282601f1061020357805160ff1916838001178555610231565b82800160010185558215610231579182015b82811115610230578251825591602001919060010190610215565b5b50905061023e9190610242565b5090565b61026491905b80821115610260576000816000905550600101610248565b5090565b905600a165627a7a72305820465ab884ef757777f03f01ab38e22a7e6d793242826df7acd8549738dc95c3050029",
  "source": "pragma solidity ^0.4.24;\n\nimport \"./SafeMath.sol\";\nimport \"./Charity.sol\";\n\n //@dev contract used to give organization an address\n //this helps with monitoring the organization's work which helps\n //in showing donors how their donations are being used\n contract OrgContract{\n   using SafeMath for uint;\n   string organization;\n   address private orgOwner;\n   string [] purchases;\n\n   modifier isOrgOwner{\n     require(msg.sender == orgOwner);\n     _;\n   }\n\n   constructor(string _org, address _orgHead) public{\n     organization = _org;\n     orgOwner = _orgHead;\n   }\n\n   function getOrgBalance()\n    view public returns(uint){\n     return address(this).balance;\n   }\n\n   //@dev allow org to record purchases without changing balance (FOR NOW)\n   //due to assumption that they won't necessarily be in ETH\n   //fix later when even org purchases are in ETH\n   function recordPurchase(string _purchase)\n    isOrgOwner public returns(bool){\n     purchases.push(_purchase);\n     return true;\n   }\n }\n",
  "sourcePath": "/Users/hazemtabbaa/Desktop/Other/give-back/contracts/OrgContract.sol",
  "compiler": {
    "name": "solc",
    "version": "0.4.24+commit.e67f0147.Emscripten.clang"
  },
  "schemaVersion": "2.0.1",
  "updatedAt": "2018-11-08T04:57:31.436Z"
}